:020000040800F2
:1000000048B400202903000857320008592B000883
:100010005532000855060008693C00080000000041
:10002000000000000000000000000000690200085D
:100030005709000800000000C50200087D340008D0
:100040004303000843030008430300084303000878
:10005000430300084303000859090008430300084C
:10006000430300085F09000865090008430300080E
:100070008D080008430300084303000843030008F9
:100080004303000843030008430300084303000838
:100090009D07000843030008430300086B0900089C
:1000A0004303000843030008430300084303000818
:1000B0004303000843030008430300084303000808
:1000C00043030008430300084303000843030008F8
:1000D000430300084303000843030008C13B000832
:1000E00043030008430300084303000843030008D8
:1000F00043030008430300084303000843030008C8
:1001000043030008430300084303000843030008B7
:1001100043030008430300084303000843030008A7
:100120004303000843030008430300084303000897
:100130004303000843030008430300084303000887
:10014000A90700084303000843030008430300080D
:10015000430300084303000899080008430300080C
:100160004303000843030008430300084303000857
:100170004303000843030008430300080000000095
:10018000430300084303000800F002F800F05CF8A5
:100190000AA090E8000C82448344AAF10107DA45E2
:1001A00001D100F051F8AFF2090EBAE80F0013F0D8
:1001B000010F18BFFB1A43F00103184784730000B6
:1001C000A47300000A444FF0000C10F8013B13F038
:1001D000070408BF10F8014B1D1108BF10F8015BA0
:1001E000641E05D010F8016B641E01F8016BF9D193
:1001F00013F0080F1EBF10F8014BAD1C0C1B09D1EA
:100200006D1E58BF01F801CBFAD505E014F8016B5B
:1002100001F8016B6D1EF9D59142D6D370470000ED
:100220000023002400250026103A28BF78C1FBD8FF
:10023000520728BF30C148BF0B6070471FB507F099
:1002400064F81FBD10B510BD00F0D6F91146FFF7D8
:10025000F5FF04F061FC00F0F4F903B4FFF7F2FFDE
:1002600003BC03F002FD00002C4B19680868B0E8DD
:10027000F04F80F30988BFF36F8F4FF0000080F3D9
:10028000118870470000000008480068006880F38B
:1002900008884FF0000080F3148862B661B6BFF39F
:1002A0004F8FBFF36F8F00DF00BF00BF08ED00E08E
:1002B000DFF80C00016841F470010160704700BF75
:1002C00088ED00E0EFF30980BFF36F8F134B1A68DE
:1002D0001EF0100F08BF20ED108A20E9F04F1060CB
:1002E00009B44FF0500080F31188BFF34F8FBFF374
:1002F0006F8F05F099FD4FF0000080F3118809BC65
:1003000019680868B0E8F04F1EF0100F08BFB0EC95
:10031000108A80F30988BFF36F8F7047B800002000
:10032000EFF30580704700000948804709480047FF
:10033000FEE7FEE7FEE7FEE7FEE7FEE7FEE7FEE795
:10034000FEE7FEE704480549054A064B70470000F2
:1003500019350008890100084874002048B40020BD
:100360004894002048940020704753EA020C00F0A3
:1003700069802DE9F04B4FF00006002B1FBFB3FA48
:1003800083F503FA05F424FA05F65E4012BF16431E
:10039000B2FA82F502FA05F4C5F120051EBF22FA71
:1003A00005FC44EA0C04203556EA044C4FEA144498
:1003B00018BF641C4FF000084FF00009904271EB29
:1003C000030C39D3002919BFB1FA81F701FA07F6F6
:1003D000B0FA80F700FA07F6C7F120071EBF20FA2F
:1003E00007FC46EA0C062037B6FBF4FCA7EB050732
:1003F000103F07F01F0BCBF120060CFA0BFB2CFA79
:1004000006F644BFB3460026202FA4BF5E464FF039
:10041000000B5BEA060C08BF4FF0010B19EB0B0950
:10042000ABFB027C48EB0608C01B06FB02CC0BFBB7
:1004300003CC71EB0C01C1E70B460246414648462E
:10044000BDE8F08B13B54FF000004FF00001AFF3A3
:100450000080BDE81C407047032A40F2308010F055
:10046000030C00F0158011F8013BBCF1020F62444F
:1004700098BF11F801CB00F8013B38BF11F8013BE0
:10048000A2F1040298BF00F801CB38BF00F8013B8D
:1004900011F0030300F02580083AC0F0088051F8FD
:1004A000043B083A51F804CBA0E80810F5E7121D08
:1004B0005CBF51F8043B40F8043BAFF30080D20727
:1004C00024BF11F8013B11F801CB48BF11F8012BF3
:1004D00024BF00F8013B00F801CB48BF00F8012B16
:1004E000704710B5203AC0F00B80B1E81850203AA0
:1004F000A0E81850B1E81850A0E81850BFF4F5AFC4
:100500005FEA027C24BFB1E81850A0E8185044BF4D
:1005100018C918C0BDE810405FEA827C24BF51F8BA
:10052000043B40F8043B08BF7047D20728BF31F8AE
:10053000023B48BF11F8012B28BF20F8023B48BFFF
:1005400000F8012B704702F0FF0343EA032242EA5E
:10055000024200F02DB84FF0000200B51346944659
:100560009646203922BFA0E80C50A0E80C50B1F10B
:100570002001BFF4F7AF090728BFA0E80C5048BF1F
:100580000CC05DF804EB890028BF40F8042B08BFBD
:10059000704748BF20F8022B11F0804F18BF00F8B9
:1005A000012B704770477047704770474FF000024B
:1005B0000429C0F0128010F0030C3FF4CEAFCCF150
:1005C000040CBCF1020F18BF00F8012BA8BF20F8E3
:1005D000022BA1EB0C01FFF7C0BF5FEAC17C24BF77
:1005E00000F8012B00F8012B48BF00F8012B7047E1
:1005F00000487047E87300207546FFF7F9FFAE46E4
:1006000005006946534620F00700854618B020B51E
:10061000FFF798FEBDE820404FF000064FF00007BE
:100620004FF000084FF0000B21F00701AC46ACE89A
:10063000C009ACE8C009ACE8C009ACE8C0098D4607
:10064000704710B50446AFF300802046BDE8104067
:10065000FFF703BEFEE70000C82005F027FB0126D8
:100660000D4D0E4C00276879012801D040B10FE0F4
:10067000207868B900F054F803F058FD267007E0C0
:100680002078012804D100F00BF803F04FFD27700B
:10069000642005F00BFBE6E7A400002040000020EA
:1006A00070B540F2F524204605F020F8002004F053
:1006B000E5FF40F25235284605F018F8002004F016
:1006C000DDFF40F26F4005F011F8002005F00EF854
:1006D000002005F00BF8002005F008F8204605F092
:1006E00005F8002004F0CAFF284604F0FFFF0020B0
:1006F00004F0C4FF4FF41F7004F0F8FF002004F072
:10070000F5FF40F2CA2004F0F1FF002004F0B6FF2C
:10071000204604F0EBFFBDE87040002004F0AEBFBF
:1007200070B540F2EC54204604F0C4FF002004F001
:10073000A5FF204604F0BEFF002004F09FFF2046E6
:1007400004F0B8FF002004F099FF204604F0B2FF47
:10075000002004F093FF002004F0ACFF40F277701B
:1007600004F0C4FF002004F089FF40F2A66528468B
:1007700004F0BCFF002004F081FF204604F0B6FF27
:10078000002004F07BFF284604F094FF002004F0D2
:1007900075FF2046BDE8704004F0A8BF014800F096
:1007A000C8BA0000D4070020014800F0C2BA000017
:1007B000FC07002038B50E4B40F2FF1408251C60E2
:1007C00000249C60C3E903450A4B050A1D7058705C
:1007D000080A9870D970100A18715A719C71DC71EE
:1007E0006B46044A0249044800F0D5F838BD0000C1
:1007F000100C002080000020FC07002038B50E4BB4
:100800004FF4007408251C6000249C60C3E9034574
:100810000A4B050A1D705870080A9870D970100AA2
:1008200018715A719C71DC716B46044A0249044884
:1008300000F0B1F838BD0000E00B0020700000208F
:10084000D407002038B50E4B40F2FF1408251C6079
:1008500000249C60C3E903450A4B050A1D705870CB
:10086000080A9870D970100A18715A719C71DC715D
:100870006B46044A0249044800F08DF838BD000078
:10088000F80B002078000020D4070020014800F079
:1008900073BD0000800B0020014800F06DBD00001A
:1008A000200B002001680A4BCAB2103AA3FB0232A7
:1008B0001209084B9B5CC365032A04D96FF3090135
:1008C000091D816502E06FF309018165806D704744
:1008D000ABAAAAAABC740008014600208A6A8B69E8
:1008E000002B0FD0B3F5005F1DD08AB3012A30D0A2
:1008F000022A2ED0032A04D1C96A11F0807F00D0C9
:10090000012070471AB1012A07D0022AF9D1C96A19
:1009100011F0807FF5D001207047C96AB1F1C07F26
:10092000FAD1012070475AB1012A0BD0022A07D010
:10093000032AF7D1C96AB1F1C07FF3D10120704712
:1009400001207047C96A11F0807FFAD001207047FA
:10095000FFE7012070477047012000F07BBE0820B0
:1009600000F078BE102000F075BE202000F072BEAE
:10097000704790F82020012A07D0022A05D0416A4A
:1009800041F48021416201207047006842691143AF
:1009900041610020704770B490F82040D0F800C04A
:1009A000DCF808C0012C08D0022C06D0416A41F4C2
:1009B0008021416270BC012070470CF080640CF013
:1009C00000652C4302D11CF0805F5FD0CCF3016C3A
:1009D000BCF1020F06D9416A41F40001416270BCCA
:1009E00001207047012404FA0CF41C608B684FF45A
:1009F000C0749BB1CD6804EB0C162B434D6843EAE1
:100A0000C5030568AB514FF4C273066803EB0C13C2
:100A10000D69F550097D012909D00DE00D88CB68DD
:100A200004EB0C1643EA45530568AB51EBE701684C
:100A3000CD5845F48075CD501179D379557941EA77
:100A4000036193791B0443EA052319434FF4C675E8
:100A5000036805EB0C1559511178D37841EA03610D
:100A6000937852781B0443EA022211434FF4C47373
:100A7000026803EB0C13D150016804EB0C100A5808
:100A800042F001020A5070BC00207047416A41F4F4
:100A90000011416270BC01207047000090F82020D6
:100AA000012A07D0022A05D0416A41F4802141621F
:100AB000012070474248D0F8002242F00102C0F8FD
:100AC0000022D0F8002222F47C52C0F80022D0F894
:100AD00000224B6A42EA0322C0F800220A7D012369
:100AE00002F01F0203FA02F2D0F81C329343C0F85E
:100AF0001C32CB69D3B9D0F80C329343C0F80C3216
:100B0000B1F80CC04B686CF31F43D1F814C000EB74
:100B1000CC0CCCF84032B1F808C00B686CF31F4322
:100B2000D1F814C000EBCC0CCCF84432CB69012BCB
:100B30001AD1D0F80C321343C0F80C32B1F800C00F
:100B40004B686CF31F43D1F814C000EBCC0CCCF80D
:100B50004032B1F808C0CB686CF31F43D1F814C021
:100B600000EBCC0CCCF844328B697BB1D0F804326A
:100B70001343C0F804320B6973B1D0F81432134335
:100B8000C0F81432096A01290CD010E0D0F8043200
:100B90009343C0F80432EEE7D0F814329343C0F820
:100BA0001432EFE7D0F81C121143C0F81C12D0F831
:100BB000001221F00101C0F800120020704700006F
:100BC00000640040704710B490F820C0BCF1010FE1
:100BD00009D0BCF1020F06D0416A41F48021416284
:100BE00010BC0120704739B1D0F800C0DCF810C04B
:100BF0001CF0030F7DD006E0D0F800C0DCF80CC07C
:100C00001CF0030F7BD04FF4D87C04680CEB011C64
:100C100054F80C4004F004049460002C7DD0046867
:100C200054F80C40E4085460046854F80CC0CCF349
:100C3000400CC2F80CC04FF4DA7C04680CEB011CC9
:100C400054F80C4004F00F041461046854F80C408C
:100C5000C4F307249461046854F80CC04FEA1C4C98
:100C6000C2F814C04FF4DC72D0F800C002EB0112DD
:100C70005CF802C083F800C0D0F800C05CF802C085
:100C80004FEA1C2C83F801C0D0F800C05CF802C009
:100C90004FEA1C4C83F802C0D0F800C05CF8022078
:100CA000120EDA704FF4DE72D0F800C002EB0112BF
:100CB0005CF802C083F804C0D0F800C05CF802C041
:100CC0004FEA1C2C83F805C0D0F800C05CF802C0C5
:100CD0004FEA1C4C83F806C0D0F800C05CF8022034
:100CE000120EDA71F9B10068016941F02001016169
:100CF00002E00BE003E010E010BC00207047416A06
:100D000041F40011416210BC01207047416A41F476
:100D10000011416210BC01207047046854F80C4077
:100D2000640D146080E70068C16841F02001C16073
:100D3000DEE72DE9F05F0546002428684669D0F813
:100D400004908768D0F80CA0D0F810B0D0F81880C4
:100D500016F0010F54D017F0010F17D00121816058
:100D600017F0020F03D0284600F000FB0EE017F04A
:100D7000040F02D04FF4006408E017F0080F02D00F
:100D80004FF4805402E0284600F0EFFA17F4807F19
:100D900019D029684FF48070886017F4007F03D061
:100DA000284600F0E5FA0EE017F4806F02D044F414
:100DB000005408E017F4006F02D044F4804402E0CD
:100DC000284600F0D4FA17F4803F19D029684FF470
:100DD0008030886017F4003F03D0284600F0CAFA3C
:100DE0000EE017F4802F02D044F4004408E017F41A
:100DF000002F02D044F4803402E0284600F0B9FA13
:100E000016F0080F07D01AF0100F04D044F4007445
:100E100029681020C86016F0040F4FF0080707D0AB
:100E20001AF0080F04D02868C760284600F0CCF9F3
:100E300016F0020F07D02868C06810F0030F02D028
:100E4000284600F0C3F916F0400F07D01BF0100F32
:100E500004D044F4806429681020086116F0200F43
:100E600007D01BF0080F04D028680761284600F05F
:100E700047FA16F0100F07D02868006910F0030F2A
:100E800002D0284600F03DFA16F4003F08D019F0D1
:100E9000100F05D0296810204860284600F032FA6B
:100EA00016F4803F07D019F0080F04D02868476077
:100EB000284600F060FA16F4004F4AD019F0040FEB
:100EC00044D016F4807F04D018F0010F01D044F014
:100ED000010416F4007F04D018F0020F01D044F092
:100EE000020416F4806F04D018F0040F01D044F00F
:100EF000040416F4006F29D018F0700F26D008F003
:100F00007000402815D006DC102809D020280AD00F
:100F1000302816D10AE050280ED0602811D10EE0FA
:100F200044F008040DE044F010040AE044F020040A
:100F300007E044F0400404E044F0800401E044F49D
:100F400080742868816921F070018161296804201A
:100F50004860002C05D0686A204368622846FFF785
:100F600031FEBDE8F09F70B50446002C03D094F824
:100F7000200010B104E0012070BD204600F0A8F868
:100F80002068016821F00201016000F085FC05463F
:100F9000206840684FF0050610F0020F11D000F0F5
:100FA0007BFC401B0A2807D9606A40F4003060626D
:100FB00084F82060012070BD2068406810F0020FA6
:100FC000EDD12068016841F00101016000F064FC8E
:100FD00005462068406810F0010F11D100F05CFC5C
:100FE000401B0A2807D9606A40F40030606284F828
:100FF0002060012070BD2068406810F0010FEDD026
:10100000207E01283FD02068016821F08001016026
:10101000607E01283DD02068016821F04001016018
:10102000A07E01283BD02068016821F020010160EA
:10103000E07E012839D02068016841F0100101608C
:10104000207F012837D02068016821F00801016065
:10105000607F012835D02068016821F0040101601B
:10106000E168A06862690843216911430843616827
:10107000491E08432168C86100206062012084F88D
:101080002000002070BD2068016841F080010160EF
:10109000BEE72068016841F040010160C0E72068B8
:1010A000016841F020010160C2E72068016821F079
:1010B00010010160C4E72068016841F00801016087
:1010C000C6E72068016841F004010160C8E700003C
:1010D000F0B587B0044614216846FFF73CFA35495D
:1010E000354ADFF8CCE00868D4F800C0324B03245E
:1010F0000225092610320027401CF44521D1086042
:10110000012807D1106840F000701060106800F0EE
:1011100000700590186840F00800186018688DE8A5
:10112000B00000F00800CDE904606946039423484C
:1011300000F09CFA00220521142000F033FD142059
:1011400031E0DFF87CE0F4452FD1D2F800C04CF05C
:10115000806CC2F800C0D2F800C001280CF0806C8E
:10116000CDF814C0086007D1106840F0007010601E
:10117000106800F000700590186840F002001860D8
:101180001868694600F00200059060208DE8A10013
:10119000CDE903460B4800F069FA00220521402002
:1011A00000F000FD402000F0EFFC07B0F0BD0000B3
:1011B000006400402800002030380240000C02404B
:1011C000006800400004024070470000F0B589B09C
:1011D00005466B4602AA0021FFF7F5FC4148424B49
:1011E000424C85421ED10298A0F2012007280FD25E
:1011F000DFE800F00406100E12141600187800E064
:101200005878694600EB800004EB800003F02CF96D
:1012100009B0F0BD9878F4E7D878F2E71879F0E7EC
:101220005879EEE732488542F2D10298A0F5007075
:1012300005381BD001281BD00228E9D1187A69464D
:1012400000EB800004EB800003F00EF9187A00EB4D
:10125000800204EB820001884589491B4FF48055C8
:101260006E42A94206DDC189491E07E09879C8E7A8
:10127000D879C6E7B14202DAC189491CC181078821
:1012800041889FED1C1A791A00EE101AB0F90E1061
:10129000F8EEC00A00EE101AB8EEC00A00EE810A9D
:1012A000DFED150A20EE200ADFED140A80EE201A89
:1012B00080ED041AD96809B900278781491CD960D3
:1012C000B1F5FA7FA4DD34F822104289891AA942C7
:1012D00002DD8189491E03E0B14299DA8189491C06
:1012E000818195E7D407002060000020280C0020B1
:1012F000FC070020000000390000B4430000104249
:1013000070477047704770B5044694F82000012874
:1013100005D0606A40F400206062012070BD0220A8
:1013200084F820002068016821F00101016000F0CC
:10133000B3FA05462068406810F0010F12D000F0A3
:10134000ABFA401B0A2808D9606A40F4003060629A
:10135000052084F82000012070BD2068406810F04E
:10136000010FECD10020606270BD7047704770477C
:1013700070477047704770472DE9F84304464FF0B7
:101380000008CDF8008076484FF416510068B0FB95
:10139000F1F7A56D2E6894F85C00082101FA00F0C1
:1013A000304211D02068026812F0040F0CD002689D
:1013B00022F00402026094F85C0001FA00F0A860D8
:1013C000606D40F00100606594F85C004FF0010929
:1013D00009FA00F0304209D02168496911F0800F04
:1013E00004D0A860606D40F00200606594F85C1065
:1013F00004208840304209D02168096811F0020FAA
:1014000004D0A860606D40F00400606594F85C1042
:1014100010208840304224D02168096811F0080F5C
:101420001FD0A8602068016811F4802F0DD00068DB
:1014300010F4002F04D0A16C99B12046884710E029
:10144000216C71B1204688470BE0016811F4807F60
:1014500003D1016821F008010160216C09B1204627
:10146000884794F85C1020208840304251D0216891
:10147000096811F0100F4CD0A86094F835000528C9
:101480000DD02068016811F4802F32D0006810F46C
:10149000002F29D0E16B59B32046884739E02068F6
:1014A000016821F0160101602068416921F0800186
:1014B0004161206C08B9A06C20B12068016821F05E
:1014C0000801016094F85C003F2101FA00F0A86077
:1014D00084F8348084F83590216D00293ED001B025
:1014E0002046BDE8F0430847616C09B120468847B3
:1014F0000FE0016811F4807F07D1016821F010012D
:10150000016084F8348084F83590E16B09B120469D
:101510008847606D002821D0606D10F0010F15D054
:10152000052084F835002068016821F00101016080
:101530000098401C0090B84204D82068006810F061
:10154000010FF5D184F8348084F83590E16C0029DE
:1015500004D001B02046BDE8F0430847BDE8F88359
:101560002C0000202DE9F041044600F095F90546D5
:10157000DCB1002684F83460022084F8350020684D
:10158000016821F0010101602068006810F0010F7E
:1015900013D000F081F9401B052809D9202060658F
:1015A000032084F83500BDE8F0810120BDE8F0811A
:1015B0002068006810F0010FEBD121680868234A09
:1015C0001040A3686268D4F810C01A43E36843EA85
:1015D0000C031A4363691A43A3691A43E3691A4364
:1015E000236A1A431043626A042A03D1236BE26A16
:1015F0001A43104308602068406920F00701606AC0
:1016000040EA0105012704280ED1A06A0543E06ADB
:1016100050B12046FFF760F930B14020606584F892
:1016200035700120BDE8F081206845612046FFF754
:1016300039F994F85C103F2202FA01F18160666585
:1016400084F835700020BDE8F08100003F8010F084
:101650007047000010B504490A68024202D00860D1
:10166000FFF7F6FF10BD0000143C01402DE9F84FD4
:101670000022DFF80082DFF80092DFF800A24FF0CE
:10168000030E0F27012303FA02F50B682B40AB4230
:101690007DD1D1F804C0BCF1020F02D0BCF1120F11
:1016A00012D14FEAD20C00EB8C0CDCF8206054070E
:1016B000E40E07FA04FB26EA0B06D1F810B00BFA89
:1016C00004F43443CCF8204006684FEA420C0EFA8A
:1016D0000CF4A64391F804B00BF0030B0BFA0CFBCF
:1016E0004BEA060606604E68012E05D0022E03D096
:1016F000112E01D0122E11D18668A643D1F80CB05C
:101700000BFA0CFB4BEA06068660466826EA0505DE
:101710000E79C6F30016964035434560C56825EA44
:1017200004048D6805FA0CFC4CEA040CC0F80CC0EB
:10173000D1F804C01CF0805F7DD0D8F800C04CF414
:10174000804CC8F800C0D8F800C00CF4804CCDF82C
:1017500000C022F0030C0CF1804404F59834D4F856
:1017600008C895072D0F07FA05F62CEA0606A0F122
:10177000804CBCF5003C64D0A0F1804CBCF5013C31
:1017800062D0A0F1804CBCF5023C60D000E052E099
:10179000A0F1804CBCF5033C5CD0A0F1804CBCF5C2
:1017A000043C5AD0A0F1804CBCF5053C58D0A0F1C7
:1017B000804CBCF5063C56D0A0F1804CBCF5073CF3
:1017C00054D04FF0080C0CFA05FC4CEA060CC4F897
:1017D00008C8D9F800C02CEA030C4C6814F4803F08
:1017E00001D04CEA030CC9F800C0254CD4F800C065
:1017F0002CEA030C4D6815F4003F01D04CEA030CB1
:10180000C4F800C0DAF800C02CEA030C4C6814F4E9
:10181000801F01D04CEA030CCAF800C0194CD4F860
:1018200000C02CEA030C4D6815F4001F01D04CEAEF
:10183000030CC4F800C0521C102AFFF423AFBDE80B
:10184000F88F4FF0000CBEE74FF0010CBBE74FF0F4
:10185000020CB8E74FF0030CB5E74FF0040CB2E709
:101860004FF0050CAFE74FF0060CACE74FF0070C5C
:10187000A9E7000044380240003C0140083C014018
:10188000043C01400C3C0140002A01D081617047BA
:1018900009048161704700000148806870470000BA
:1018A000AC00002070B50446002C04D094F83D0034
:1018B000002510B106E0012070BD84F83C502046A0
:1018C00000F0BCF8242084F83D002068016821F075
:1018D0000101016000F06CFA544B6168994203D831
:1018E0005349884203D304E05249884201D201207F
:1018F00070BD5149B0FBF1F12268D2F804C02CF060
:101900003F0C4CEA010CC2F804C062689A4201D84C
:101910004A1C07E04FF4967251434FF47A72B1FBC0
:10192000F2F14A1C2168D1F820C02CF03F0C42EAA9
:101930000C020A626168994210D84900401EB0FB4F
:10194000F1F2521CC2F30B02042A01D2042026E059
:10195000B0FBF1F0401CC0F30B0020E0A268002AAD
:1019600050D001EBC10303EB0113A0F1010CBCFB50
:10197000F3F35B1C43F480431B051B0D4AD0002A84
:101980004AD001EBC10202EB0111401EB0FBF1F0A5
:10199000401CC0F30B0040F4804040F4004021683C
:1019A000CA6922F0FF0222F44F421043C861216A43
:1019B000E06901432068026822F0C002114301601F
:1019C000E168206901432068826822F0FF0222F466
:1019D000034211438160A169606901432068C268C4
:1019E00022F0FF021143C1602068016841F001014B
:1019F00001602564202084F83D00256384F83E5072
:101A0000002070BD01EB4103A0F1010CBCFBF3F31E
:101A10005B1CB1E70120C2E701EB4101401EB0FBB6
:101A2000F1F0401CC0F30B00B7E70000A0860100F6
:101A300080841E0000093D0040420F00F0B587B0D1
:101A4000044614216846FEF786FD1B49206888423B
:101A50002FD11A48016841F004010160016801F0CA
:101A600004010591016841F001010160006804244E
:101A700000F0010005904FF40070122501260327A5
:101A800004948DE8E10069460D48FFF7EFFDA001E1
:101A900004948DE8E10069460A48FFF7E7FD07482E
:101AA0001030016841F400010160006800F400009A
:101AB000059007B0F0BD0000005C004030380240E7
:101AC0000008024000000240024881680278114488
:101AD00081607047AC00002010B50B48016841F4EC
:101AE00000710160016841F480610160016841F4A6
:101AF00080710160032000F089F80F2000F006F8E3
:101B000000F026F8002010BD003C024070B50446ED
:101B10000D4D4FF47A712878B1FBF0F00B4909684C
:101B2000B1FBF0F000F0A6FC08B1012070BD102C54
:101B300007D200222146501E00F034F86C600020CD
:101B400070BD012070BD0000AC0000202C00002002
:101B50000C4882B0016841F480410160006800F4E3
:101B6000804000900748001F016841F080510160EB
:101B70000068002200F0805000900F21901E02B0FB
:101B800000F010B84438024000280ADB00F01F01C2
:101B9000012202FA01F14009800000F1E020C0F8C2
:101BA0000011704710B4184B1B68C3F30223C3F134
:101BB000070CBCF1040F01D94FF0040C1C1D072CBD
:101BC00001D2002300E0DB1E012404FA0CFCACF17E
:101BD000010C0CEA0101994004FA03F35B1E1A4060
:101BE0001143002806DB00F1E020090180F8001411
:101BF00010BC704700F00F0000F1E020090180F8F0
:101C0000141D10BC704700000CED00E000F0070050
:101C1000064A11684FF6FF03194041EA002040F0E0
:101C2000FD7040F080601060704700000CED00E037
:101C30002DE9F04704460D46002C13D0DFF85091F3
:101C4000D9F80000EFB200F00F00A8420DD289F8D9
:101C50000070D9F8000000F00F00A84205D0012064
:101C6000BDE8F0870120BDE8F0872068494E10F0FC
:101C7000020F14D010F0040F03D0306840F4E0508D
:101C80003060207810F0080F03D0306840F46040D6
:101C900030603068A16820F0F000084330602078A0
:101CA00010F0010F3ED060683B49012808D002289F
:101CB0000DD003280BD0096811F0020F28D00AE0DC
:101CC000096811F4003F06D10120BDE8F0870968DA
:101CD00011F0007F19D0316821F003010843306012
:101CE000FFF7DAFD80463068616800F00C00B0EB69
:101CF000810F17D041F2883AFFF7CEFDA0EB080024
:101D0000504508D90320BDE8F0870120BDE8F087E1
:101D10000120BDE8F0873068616800F00C00B0EB8E
:101D2000810FE9D1D9F8000000F00F00A8420AD9CC
:101D300089F80070D9F8000000F00F00A84202D026
:101D40000120BDE8F087207810F0040F05D030683E
:101D5000E16820F4E05008433060207810F0080F6C
:101D600006D03068216920F4604040EAC10030604C
:101D700000F03EF83168094AC1F30311515CC840D4
:101D8000074908600F20FFF7C1FE0020BDE8F0877B
:101D9000003C024008380240003802403874000815
:101DA0002C00002001480068704700002C00002033
:101DB00000B5FFF7F7FF04490968044AC1F382211F
:101DC000515CC84000BD000008380240487400085B
:101DD00000B5FFF7E7FF04490968044AC1F342313F
:101DE000515CC84000BD000008380240487400083B
:101DF00010B51748006810F00C01164816D0164BA5
:101E0000042912D0082911D1144C216801F03F0295
:101E1000216811F4800F0AD02068C0F38810A0FB5D
:101E200003010023FEF7A1FA09E0184610BD21685E
:101E30000023C1F38811A1FB0001FEF796FA216887
:101E4000C1F30141491C4900B0FBF1F010BD000095
:101E5000083802400024F400001BB7000438024098
:101E60002DE9F84F0446002C10D02078FA4D10F0E0
:101E7000010F64D0F948016801F00C0104290DD06C
:101E8000006800F00C00082803D011E00120BDE834
:101E9000F88FF348006810F4800F09D0286810F418
:101EA000003F4CD06068002849D10120BDE8F88F80
:101EB0006068B0F5803F14D0B0F5A02F16D0286828
:101EC00020F480302860286820F480202860606832
:101ED00010B3FFF7E1FC0646286810F4003F0ED06F
:101EE0002DE0286840F480302860F0E7286840F44E
:101EF00080202860286840F480302860E7E7FFF7FA
:101F0000CBFC801B642802D90320BDE8F88F286829
:101F100010F4003FF3D012E0FFF7BEFC064628683D
:101F200010F4003F0BD0FFF7B7FC801B642802D9E8
:101F30000320BDE8F88F286810F4003FF3D1207823
:101F4000C84F10F0020F4FF0000856D0C348016888
:101F500011F00C0F15D0006800F00C00082804D117
:101F6000BF48006810F4800F0BD0E06878B3012000
:101F70003860FFF791FC0646286810F0020F12D077
:101F80001DE0286810F0020F05D0E068012802D09B
:101F90000120BDE8F88F2868216920F0F80040EAA8
:101FA000C100286029E0FFF777FC801B022802D9D6
:101FB0000320BDE8F88F286810F0020FF3D02868DE
:101FC000216920F0F80040EAC100286015E0FFE731
:101FD000C7F80080FFF760FC0646286810F0020F83
:101FE0000BD0FFF759FC801B022802D90320BDE863
:101FF000F88F286810F0020FF3D1207810F0080F46
:1020000033D09948DFF864926169B9B10121016068
:10201000FFF742FC0646D9F8000010F0020F24D169
:10202000FFF73AFC801B022802D90320BDE8F88F95
:10203000D9F8000010F0020FF2D016E0C0F80080CE
:10204000FFF72AFC0646D9F8000010F0020F0CD06A
:10205000FFF722FC801B022802D90320BDE8F88F7D
:10206000D9F8000010F0020FF2D1207810F0040F20
:1020700073D04FF00009DFF8F8A1DAF8000010F093
:10208000805F0CD1DAF8000040F08050CAF8000000
:10209000DAF8000000F0805000904FF00109DFF8FE
:1020A000D4B1DBF8000010F4807F1AD1DBF8000017
:1020B00040F48070CBF80000FFF7EEFB0646DBF83B
:1020C000000010F4807F0CD1FFF7E6FB801B022894
:1020D00002D90320BDE8F88FDBF8000010F4807F00
:1020E000F2D0A068DFF890B1012818D005281DD0E3
:1020F000DBF8000020F00100CBF80000DBF8000066
:1021000020F00400CBF80000A06838B3FFF7C4FB50
:102110000646DBF8000010F0020F14D03CE0DBF8BC
:10212000000040F00100CBF80000EDE7DBF8000014
:1021300040F00400CBF80000DBF8000040F00100A4
:10214000CBF80000E0E7FFF7A7FB811B41F28830E6
:10215000814204D90320BDE8F88F26E005E0DBF8D2
:10216000000010F0020FEED016E0FFF795FB0646D8
:10217000DBF8000010F0020F0ED0FFF78DFB811B83
:1021800041F28830814202D90320BDE8F88FDBF8A4
:10219000000010F0020FF0D1B9F1010F05D1DAF80B
:1021A000000020F08050CAF80000A069E8B32B4975
:1021B000096801F00C0108296BD0022810D0C7F87B
:1021C0006080FFF769FB0446286810F0007F5ED04E
:1021D000FFF762FB001B022855D90320BDE8F88FEA
:1021E000C7F86080FFF758FB0646286810F0007FAC
:1021F0000BD0FFF751FB801B022802D90320BDE85A
:10220000F88F286810F0007FF3D1216AE069A26A94
:102210000843616A4FF0FF33890103EB520241EA40
:102220000241084394F82C1000E030E040EA0161DC
:102230000B48016001203866FFF72EFB0446286832
:1022400010F0007F23D1FFF727FB001B022815D9D0
:102250000320BDE8F88F1CE0003802400838024037
:102260000438024000004742800E47427438024062
:10227000403802400070004070380240286810F07A
:10228000007FE0D003E0286810F0007FA0D100209C
:10229000DFE70120DDE770B50446002C03D060794C
:1022A000002510B105E0012070BD2571204600F029
:1022B0000DF8022060712068016841F0040101609E
:1022C00001206071A560002070BD000008B50068A5
:1022D0000649884208D10648016841F04001016082
:1022E000006800F04000009008BD000000080650A3
:1022F0003438024070B50446002C05D00025A56294
:1023000094F8510010B106E0012070BD84F85050DF
:10231000204600F031F8022084F85100206801685E
:1023200021F040010160A168606822690843E1680A
:102330001143084361690843218B01F4007108438C
:10234000E1690843216A0843A16A084321680860DB
:10235000A069042101EA1040616A084321684860CD
:102360002068C16921F40061C1616565012084F8BC
:102370005100002070BD00002DE9F04387B00446F5
:1023800014216846FEF7E7F834492068884261D195
:1023900033480025016841F480510160006800F471
:1023A000805005902E481438016841F00201016008
:1023B000016801F002010591016841F0010101602D
:1023C0000068022600F001000590182001274FF058
:1023D00003084FF005098DE8C10369462148FFF75E
:1023E00045F980208DE8C10369461F48FFF73EF993
:1023F0001F4E1E484FF0C0673060C6E901754FF4AC
:102400008068C6E9035875617812B561C6E907505E
:1024100030467562FFF7A6F808B1FEF7A9FAE66440
:10242000B463134E114860361830E6E802074020C6
:10243000A6E82101C00246F81459B561C6E9075063
:102440000B4875626030FFF78DF808B1FEF790FA1F
:10245000A664B46307B0BDE8F0830000003001401B
:102460004438024000040240000002404064024040
:10247000E0080020401EB0F1807F01D301207047AA
:102480004FF0E0214861044AF0201070002088617C
:10249000072008610020704723ED00E090F83C2001
:1024A000012A2CD0012280F83C20CA680023D1F8F0
:1024B00008C022F4407242EA0C02D1F804C022F4AF
:1024C000806242EA0C02D1F800C022F4006242EAC3
:1024D0000C02D1F810C022F4805242EA0C02D1F86A
:1024E00014C022F4005242EA0C02C96922F480426C
:1024F00011430268516480F83C300020704702208C
:10250000704730B490F83C20012A1ED0012480F896
:102510003C40022280F83D200268D2F804C0936853
:102520002CF0700C0D6845EA0C0C23F08003496810
:102530001943C2F804C00268916080F83D40002150
:1025400080F83C1030BC0020704730BC022070473F
:1025500010B50446002C03D094F83D0010B107E0FC
:10256000012010BD002084F83C00204600F00CF84B
:10257000022084F83D00211D206800F0F7FF0120B3
:1025800084F83D00002010BD08B500680C49884261
:1025900008D10C48016841F008010160006800F0B2
:1025A00008000BE00849884209D10648001D01686F
:1025B00041F400310160006800F40030009008BD73
:1025C000000C00404038024000440140022180F8E5
:1025D0003D1001688A6802F00702062A03D00A68E3
:1025E00042F001020A60012180F83D10002070478E
:1025F00070B5044694F83C00012818D0012584F8F1
:102600003C50022084F83D002068826822F0770266
:1026100022F47F4282600868502832D00EDC2028E5
:102620004DD006DC00284AD010284DD147E00220CA
:1026300070BD302843D0402846D136E060282AD0EB
:10264000702806D0B0F5805F3ED0B0F5005F3BD17A
:102650000BE0CB684A688968206800F0FCFF2068BE
:10266000816841F0770181602EE0CB684A68896813
:10267000206800F0F0FF2068816841F480418160AB
:1026800022E0CA684968206801F0D4F85021206827
:1026900000F0ECFF18E0CA684968206801F0DDF836
:1026A0006021206800F0E2FF0EE0CA6849682068F7
:1026B00001F0C0F84021206800F0D8FF04E0226853
:1026C0000146104600F0D2FF84F83D50002084F807
:1026D0003C0070BD30B587B0044614216846FDF754
:1026E0003AFF384D20680024374902220123A842CE
:1026F00010D1086840F0100008600868694600F0D2
:10270000100005904FF420608DE81500CDE90343DB
:102710002E4811E02E4D0324A84211D1086840F044
:10272000080008600868694600F008000590281451
:102730008DE81D0027480492FEF798FF07B030BDD2
:10274000254DA8421FD1086840F080000860086845
:10275000694600F0800005904FF4E0508DE80D00D0
:1027600003921E480492FEF781FF1D48FFF72EFFDB
:1027700000211B4800F0E6F80421194800F0E2F8B7
:10278000082117481AE0174DA842D7D1086840F031
:10279000200008600868694600F02000059040208D
:1027A0008DE80D00CDE903240F48FEF75FFF0C48CC
:1027B0004030FFF70BFF0A480021403000F0C2F81C
:1027C000BCE7000000000140303802400010024029
:1027D00000080040000C0240000C0040001C0240B9
:1027E000200A0020004401400014024070B5044655
:1027F0000D4694F83C0001280DD0012684F83C6079
:10280000022084F83D0042B1042A1AD0082A2DD0B3
:102810000C2A53D13EE0022070BD2946206800F00A
:102820002DFF2068816941F008018161206881697C
:1028300021F004018161206881692A691143816165
:102840003CE02946206800F051FF2068816941F48E
:10285000006181612068816921F480618161206863
:1028600081692A6941EA0221816127E029462068BD
:1028700000F078FF2068C16941F00801C16120685B
:10288000C16921F00401C1612068C1692A6911434D
:10289000C16113E02946206800F0A0FF2068C169EB
:1028A00041F40061C1612068C16921F48061C161A6
:1028B0002068C1692A6941EA0221C16184F83D604A
:1028C000002084F83C0070BD10B50446002C03D0F5
:1028D00094F83D0010B107E0012010BD002084F8FD
:1028E0003C00204600F00CF8022084F83D00211D39
:1028F000206800F03BFE012084F83D00002010BD60
:1029000008B500680C49884208D10C48016841F0BC
:1029100001010160006800F001000BE008498842F5
:1029200009D10648001F016841F0040101600068F8
:1029300000F00400009008BD00000140443802404F
:102940000008004010B504460122206800F074FE23
:102950002168A1F18040B0F5803004D0A1F1804021
:10296000B0F5823003D1486C40F4004048642068E0
:10297000816801F00701062903D0016841F00101D7
:102980000160002010BD70B50446002C04D094F8FE
:102990003900002510B106E0012070BD84F83850E0
:1029A000204600F023F8242084F839002068C1680C
:1029B00021F40051C160204600F062FF20680169E7
:1029C00021F4904101612068416921F02A014161AF
:1029D0002068C16841F40051C160E563202084F89B
:1029E000390084F83A00002070BD00002DE9F04F56
:1029F00087B0054614216846FDF7ADFDDFF834C108
:102A0000296800264C4802240123032707224FF09F
:102A1000006A4FF4806B614548D147491431D1F8C1
:102A200000C04CF0100CC1F800C0096801F01001A2
:102A30000591016841F002010160016801F00201A5
:102A40000591016841F0010101600068984600F0BD
:102A50000100059080208DE81101CDE903729146B7
:102A600069463648FEF702FE20028DE81101CDE9E5
:102A7000037969463248FEF7F9FD334C3148E4E802
:102A8000020A4020A4E84108800244F81469A661C3
:102A9000C4E907602C486662FEF764FD08B1FDF7E3
:102AA00067FF2C63A56307B0BDE8F08FDFF89CC01B
:102AB0006145F8D120491031D1F800C04CF4802C88
:102AC000C1F800C0096801F480210591016841F056
:102AD000040101600068029300F0040005904FF4C7
:102AE0004060CDE90004CDE9037269461848FEF75D
:102AF000BDFD154C174860342060C4E901A6C4E947
:102B0000036B66614FF40030A661C4E9076020469C
:102B10006662FEF727FD08B1FDF72AFF6C6300220D
:102B200004212720A563FFF73DF82720FFF72CF8A5
:102B3000B9E70000001001403038024000040240B4
:102B400000000240B8640240200B00200048004012
:102B50000008024028600240FEE700000F4810B560
:102B60000D4901600321416000214FF41022816072
:102B7000C0E903124FF4001242610176417681767A
:102B8000C17601774177FEF7EEF9002803D0BDE862
:102B90001040FDF7EDBE10BD00640040D4070020DA
:102BA0000F4810B50D4901600321416000214FF429
:102BB00010228160C0E903124FF4001242610176D5
:102BC00041768176C17601774177FEF7CCF900280E
:102BD00003D0BDE81040FDF7CBBE10BD006800403B
:102BE000FC070020194808B5016841F48001016024
:102BF000016801F480010091016841F40011016055
:102C00000068002200F40010009005210C20FEF75F
:102C1000C9FF0C20FEF7B8FF002205213A20FEF77D
:102C2000C1FF3A20FEF7B0FF002205213B20FEF74E
:102C3000B9FF3B20FEF7A8FF002205214620FEF742
:102C4000B1FFBDE808404620FEF79EBF3038024085
:102C500010B5C6B01C2237496846FDF742FC00217A
:102C6000684601F0EAFF344C32491C2220601C31D6
:102C700007A8FDF736FC002107A801F0DEFF2D496B
:102C800060601C2238310EA8FDF72BFC00210EA835
:102C900001F0D3FF2749A0601C22543115A8FDF78D
:102CA00020FC002115A801F0C8FF2249E0601C2289
:102CB00070311CA8FDF715FC00211CA801F0BDFF18
:102CC0001C4920611C228C3123A8FDF70AFC00213D
:102CD00023A801F0B2FF174960611C22A8312AA87D
:102CE000FDF7FFFB00212AA801F0A7FF1149A06111
:102CF0001C22C43131A8FDF7F4FB002131A801F0FA
:102D00009CFF0C49E0611C22E03138A8FDF7E9FB8B
:102D1000002138A801F091FF064920621C22FC31F5
:102D20003FA8FDF7DEFB00213FA801F086FF6062AF
:102D300046B010BD20730008000000202DE9F04FC0
:102D400087B014216846FDF706FC6348002501683A
:102D500041F002010160016801F002010591016882
:102D600041F001010160016801F001010591016874
:102D700041F008010160016801F008010591016856
:102D800041F004010160016801F00401059101684E
:102D900041F080010160016801F080010591016846
:102DA00041F040010160016801F0400105910168B6
:102DB00041F020010160016801F0200105910168E6
:102DC00041F0100101600068012200F01000DFF8FE
:102DD0000C811402059021464046FEF755FD404FF8
:102DE000012240213846FEF74FFDDFF8F89001221E
:102DF00010214846FEF748FDDFF8ECA04FF4C0462E
:102E0000012231465046FEF73FFDDFF8E0B00122D7
:102E100011465846FEF738FD00940124CDE90145DE
:102E2000694640460395FEF721FC4020CDE90004A9
:102E30000294694638460394FEF718FC2C4D09208D
:102E4000CDE90005694602943846FEF70FFC1020D4
:102E5000CDE900040227CDE9024769464846FEF75E
:102E600005FC3020CDE90005694602944046FEF796
:102E7000FDFBCDE90064CDE9024769465046FEF707
:102E8000F5FBCDE902470094694658460194FEF7E8
:102E9000EDFB062100220846FEF784FE0620FEF721
:102EA00073FE002205210920FEF77CFE0920FEF7B3
:102EB0006BFE002205210A20FEF774FE0A20FEF7B1
:102EC00063FE002205211720FEF76CFE1720FEF797
:102ED0005BFE07B0BDE8F08F3038024000080240CA
:102EE00000180240000002400010024000040240AE
:102EF000000021100D4810B50B4901600C494160DC
:102F000000214FF480428160C0E903124161816178
:102F1000C1610162FEF7C6FC002803D0BDE8104085
:102F2000FDF726BD10BD0000005C00402408002015
:102F3000801A0600074910B5054808600846FFF7E3
:102F4000AAF9002803D0BDE81040FDF711BD10BD5F
:102F50000008065078080020104810B50E4901609E
:102F60004FF482714160002102228160C0E90312A6
:102F700001224261520282613822C0E90721416286
:102F800081620A21C162FFF7B5F9002803D0BDE8CC
:102F90001040FDF7EDBC10BD003001408808002056
:102FA00010B588B01C216846FDF7D5FA14481349BE
:102FB0000024C0E9001441F28731C0E902410461F4
:102FC0008461FFF7C5FA08B1FDF7D2FC0C48FFF7A2
:102FD0007BFC08B1FDF7CCFC6020CDE90004029435
:102FE0000022694606480494FFF700FC08B1FDF78B
:102FF000BFFC0348FFF76EFB08B010BD0044014062
:10300000600A002010B592B000240F941C2168467D
:103010001094FDF7A0FA202107A8FDF79CFA254897
:1030200023490160A721C0E9011444F61F61C0E9EA
:10303000031444618461FFF747FC08B1FDF798FC75
:103040000F940FA91B481094FFF75BFA08B1FDF726
:103050008FFC6020009040F2DC50CDE90104039425
:10306000049405940022694612480694FFF7BEFBBB
:1030700008B1FDF77DFC042269460E48FFF7B6FB58
:1030800008B1FDF775FC0794089409944FF40050BB
:103090000A94CDE90B4007A906480E94FFF7FEF904
:1030A00008B1FDF765FC0348FFF714FB12B010BD33
:1030B00000000140A009002010B58AB00024079448
:1030C0001C2168460894FDF746FA16481449016029
:1030D000A721C0E901144FF6FF71C0E90314846110
:1030E000FFF7F2FB08B1FDF743FC079407A90D4871
:1030F0000894FFF706FA08B1FDF73AFC6020CDE925
:10310000000402940822694606480494FFF76EFB07
:1031100008B1FDF72DFC0348FFF7DCFA0AB010BD3B
:1031200000080040E009002010B58EB0002407948C
:10313000089409940A940B941C2168460C94FDF79A
:103140000AFA26482449C0E900144FF6FF71C0E985
:10315000024104618461FFF7FBF908B1FDF708FC47
:103160004FF48050079007A91C48FFF741FA08B1B7
:10317000FDF7FEFB1948FFF7A7FB08B1FDF7F8FBC9
:103180000B940BA915480C94FFF7BBF908B1FDF798
:10319000EFFB6020CDE900040294002269460F484D
:1031A0000494FFF723FB08B1FDF7E2FB0422694614
:1031B0000A48FFF71BFB08B1FDF7DAFB0822694656
:1031C0000648FFF713FB08B1FDF7D2FB0348FFF7F2
:1031D00081FA0EB010BD0000000C0040200A002053
:1031E0000C4810B50A4901604FF4E13141600021FB
:1031F00081600C22C160C0E904128161C161FFF7E6
:10320000C2FB002803D0BDE81040FDF7B1BB10BDE4
:1032100000100140A00A00200C4810B50A490160C6
:103220000B494160002181600C22C160C0E9041299
:103230008161C161FFF7A7FB002803D0BDE8104002
:10324000FDF796BB10BD000000480040E00A0020DA
:10325000A0860100FEE77047A0B1D0ED101AC0EDC6
:10326000111A90ED0F1A80ED101AC0ED060A80EDCC
:10327000070A30EEC00A80ED0F0A017829B1012952
:103280003BD078E09FED3D0A7047D0ED010A60EE3B
:10329000801AC0ED091AD0ED0A0A90ED022A42EE1A
:1032A000000A30EE410AC0ED0A0A90ED0D2A80EDC9
:1032B0000E2A90ED0C2A80ED0D2A80ED0C0A90ED7F
:1032C000031A21EE001A80ED0B1A90ED050AF4EEB8
:1032D000C00AF1EE10FA09DCB1EE400AF4EEC00AC1
:1032E000F1EE10FA02D390ED0A0A01E080ED0A0A2D
:1032F00031EE800A30EE010A2BE070EE410A90EDCB
:10330000012A60EE820AC0ED090A90ED022A22EE3F
:10331000002A80ED0A2AD0ED0D2A70EE820AC0ED57
:103320000E2AD0ED0C2AC0ED0D2AF0EE002A01EE97
:10333000620A30EE210A80ED0C0A90ED031A21EEAC
:10334000000A80ED0B0A30EE800AD0ED080A30EE5C
:10335000200A80ED080AD0ED040AB4EEE00AF1EE8E
:1033600010FA06DCF1EE600AB4EEE00AF1EE10FAB3
:1033700001D2C0ED080A90ED080A70470000000075
:10338000002819D09FED0D0A80ED110A80ED100A7A
:1033900080ED0F0A80ED0E0A80ED0D0A80ED0C0A1B
:1033A00080ED0B0A80ED0A0A80ED090A80ED080A1B
:1033B00080ED060A80ED070A70470000000000005B
:1033C000002828D0002A26D0017092ED001A80ED46
:1033D000011A92ED011A80ED021A92ED021A80EDA7
:1033E000031A80ED040A9FED0C0AC0ED050A80ED7A
:1033F0000E0A80ED0D0A80ED0C0A80ED080A80EDC2
:103400000B0A80ED0A0A80ED090A80ED110A80EDB1
:10341000100A80ED0F0A70470000000030B5144C10
:1034200023685D6945F040055D612368DC6844F010
:103430001004DC600F4C23681D6825F001051D6039
:1034400023681D68ED07F7D125680B4BAB60236837
:10345000D86020680161206842602068016841F4FA
:10346000802101602068016841F00101016030BDE8
:10347000E00A0020800B00200448004010B5FEF751
:1034800023FB03F085F8012803D0BDE8104002F0CB
:103490007DBD10BD30B593B030216846FDF75BF8B7
:1034A00014210CA8FDF757F819480025016841F0D0
:1034B00080510160006800F080501190154801684B
:1034C00041F4804101600068022400F480401190C2
:1034D00001200090000401908001CDE90640062003
:1034E0000890A820CDE9090407200B906846FEF754
:1034F000B7FC0CA90F2081E831004FF4A0500F90C9
:10350000E002109005210CA8FEF792FB13B030BD2D
:1035100040380240007000401048016841F47001DA
:1035200001600F48016841F0010101600C4A00216F
:103530000832116002680B4B1A400260031D0A4AF0
:103540001A60026822F48022026005480C30016093
:1035500002495806803908607047000088ED00E095
:1035600000380240FFFFF6FE10300024F0B402687D
:103570002C4B2D4C2D4D2E4EDFF8B8C098420AD062
:10358000B0F1804F07D0A04205D0A84203D0B0428E
:1035900001D0604503D122F070024F683A4398424F
:1035A00028D0B0F1804F25D0A04223D0A84221D00E
:1035B000B0421FD060451DD0A0F18044B4F5A034C6
:1035C00018D0A0F18044B4F5A23413D0A0F1804407
:1035D000B4F5A4340ED0A0F18044B4F5C05409D0A1
:1035E000A0F18044B4F5E05404D0A0F18044B4F5D7
:1035F000005403D122F44072CC6822434C6922F07B
:103600008002224302608A68C2620A68826298422B
:1036100001D0604501D10969016301214161F0BC1C
:103620007047000000000140000400400008004016
:10363000000C00400004014001F01F0101238B40F9
:10364000D0F820C02CEA03030362036A02FA01F1F6
:10365000194301627047D0F808C02CF47F4C42EA4D
:103660000322114341EA0C0181607047826822F015
:103670007002114341F007018160704770B4026A23
:1036800022F001020262036A4268D0F818C02CF0EE
:10369000700C2CF0030C0C6844EA0C0C23F00203B1
:1036A0008C6823430F4C104DA04201D0A84205D195
:1036B00023F00803CE68334323F00403A04201D073
:1036C000A84207D122F4807222F400724C6922438E
:1036D0008C6922434260C0F818C0496841630362A4
:1036E00070BC7047000001400004014070B4026AE1
:1036F00022F010020262036A4268D0F818C02CF46B
:10370000E04C2CF4407C0C684CEA042C23F02003A1
:103710008C6843EA0413114C114DA04201D0A84219
:1037200006D123F08003CE6843EA061323F040035A
:10373000A04201D0A84209D122F4806222F40062A2
:103740004C6942EA84028C6942EA84024260C0F811
:1037500018C049688163036270BC70470000014073
:103760000004014070B4026A22F480720262036AAB
:103770004268D0F81CC02CF0700C2CF0030C0C68C4
:1037800044EA0C0C23F400738C6843EA0423114CC4
:10379000114DA04201D0A84206D123F40063CE68A7
:1037A00043EA062323F48063A04201D0A84209D152
:1037B00022F4805222F400524C6942EA04128C69CD
:1037C00042EA04124260C0F81CC04968C163036247
:1037D00070BC7047000001400004014010B4026A50
:1037E00022F480520262D0F820C04268C36923F4F8
:1037F000E04323F440730C6843EA04232CF4005C98
:103800008C684CEA043CA0F18044B4F5803404D0C8
:10381000A0F18044B4F5823404D122F480424C6992
:1038200042EA84124260C36149680164C0F820C062
:1038300010BC7047036AD0F820C02CF0010CC0F80F
:1038400020C0D0F818C02CF0F00C4CEA021223F083
:103850000A031943826101627047036A23F010036F
:103860000362D0F818C0036A2CF4704C4CEA0232A0
:1038700023F0A00343EA0111826101627047000056
:103880002DE9F041044620680169E26821F44051C5
:10389000114301612169A068E2690843616911432C
:1038A00001432068C26822F4037222F414421143D7
:1038B000C16020684169A26921F4407111434161EE
:1038C000E069BC4ABC49BD4D3226B0F5004F5ED020
:1038D0002068884202D0904240F01281FEF778FAC8
:1038E00000EBC00101EB001061688900B0FBF1F74B
:1038F000FEF76EFA00EBC00101EB00106168890071
:10390000B0FBF1F0A5FB001040096FF0180148432F
:1039100007EB800006EB0010A5FB0010400900F04B
:10392000F007FEF755FA00EBC00101EB00106168EB
:103930008900B0FBF1F0A5FB0010400907EB001770
:10394000FEF746FA00EBC00101EB00106168890048
:10395000B0FBF1F8FEF73CFA00EBC00101EB001000
:1039600061688900B0FBF1F0A5FB001040096FF021
:103970001801484308EB800006EB0010A5FB00107F
:103980002168C0F3431038448860BDE8F0812068A6
:10399000884201D0904259D1FEF71AFA00EBC001DB
:1039A00001EB001061684900B0FBF1F0A5FB0010CD
:1039B00040090701FEF70CFA00EBC00101EB001013
:1039C00061684900B0FBF1F8FEF702FA00EBC001B4
:1039D00001EB001061684900B0FBF1F0A5FB00109D
:1039E00040096FF01801484308EB800006EBC00067
:1039F000A5FB0010400900F0F80007EB4007FEF7B8
:103A0000E7F900EBC00101EB001061684900B0FB71
:103A1000F1F8FEF7DDF900EBC00101EB0010616881
:103A20004900B0FBF1F0A5FB001040096FF0180150
:103A3000484308EB800006EBC000A5FB001021689E
:103A4000C0F3421038448860BDE8F081FEF7B0F959
:103A500000EBC00101EB001061684900B0FBF1F020
:103A6000A5FB001040090701FEF7A2F900EBC00119
:103A700001EB001061684900B0FBF1F8FEF798F91E
:103A800000EBC00101EB001061684900B0FBF1F0F0
:103A9000A5FB001040096FF01801484308EB8000B7
:103AA00006EBC000A5FB0010400900F0F80007EB92
:103AB0004007FEF77DF900EBC00101EB00106168E3
:103AC0004900B0FBF1F8FEF773F900EBC00101EB20
:103AD000001061684900B0FBF1F0A5FB001040093F
:103AE0006FF01801484308EB800006EBC000A5FB0F
:103AF00000102168C0F3421038448860BDE8F081AE
:103B0000FEF756F900EBC00101EB00106168890077
:103B1000B0FBF1F7FEF74CF900EBC00101EB001030
:103B200061688900B0FBF1F0A5FB001040096FF05F
:103B30001801484307EB800006EB0010A5FB0010BE
:103B4000400900F0F007FEF733F900EBC00101EB8C
:103B5000001061688900B0FBF1F0A5FB001040097E
:103B600007EB0017FEF724F900EBC00101EB001092
:103B700061688900B0FBF1F8FEF71AF900EBC001AB
:103B800001EB001061688900B0FBF1F0A5FB0010AB
:103B900040096FF01801484308EB800006EB001065
:103BA000A5FB00102168C0F3431038448860BDE8CD
:103BB000F081000000140140001001401F85EB510E
:103BC000234818B400680168890604D50168406874
:103BD000009018BC70471F490968C906F9D50168EB
:103BE00040681D4A0090106801681C4C0903016878
:103BF0004FF0240321F00101016011684868C0F111
:103C0000240080B220804B600FD411680B6843F40D
:103C100000230B6011680A6842F001020A60122852
:103C2000D7D10F4901F117000EE00E498B6A23F43A
:103C300000238B6211680A6842F001020A601228B0
:103C4000C7D1074901F13B0018BC01F0B9BC000025
:103C5000E00A002000480040800B0020880000207F
:103C6000DC0C002000600240FEE7704710B50C4CF1
:103C7000010EC0F30742217012FB01F26280C0F313
:103C8000072313FB01F3A380C0B210FB01F0054929
:103C9000E0800C686063086883630868C26310BDD5
:103CA00038000020200A0020D0ED000AF4EEC00AFF
:103CB000F1EE10FA06DCB1EE400AF4EEC00AF1EEC5
:103CC00010FA01D280ED000A7047000010B5040020
:103CD00036D084ED040A30EEC00AC4ED030A04F1C4
:103CE0002C0084ED050AD4ED000A60EE800AC4EDD4
:103CF0000A0AD4ED0B0AD4ED011A41EE800AC4ED94
:103D00000B0A94ED020A20EE010A84ED0C0A94EDF0
:103D1000080AFFF7C9FF94ED0A0AD4ED0B0A04F173
:103D2000340030EE200AD4ED0C0A30EE200A84ED87
:103D30000D0A94ED070AFFF7B7FF94ED0D0A10BDC9
:103D40009FED010A10BD0000000000002DE9F047C2
:103D500004464079002578B305282DD006282BD0BD
:103D600001269FED4C1ADFF8308104F15C014FF021
:103D70000309012823D0DFED490A494F022837D033
:103D800004F1200204284AD0032850D007285ED02E
:103D9000082812D1C8ED010AC4ED060A94ED050AFF
:103DA0000846FFF759FABDEEC00A10EE100AA083CC
:103DB000A0680069B84200DAA583BDE8F087A67163
:103DC00088ED011A84ED061A94ED050AF0EE410A19
:103DD0000846FFF741FABDEEC00A324910EE100A5C
:103DE000A083A06800698842E7DD84F80590E4E7D5
:103DF0000220A071C8ED010AC4ED060A94ED050A7F
:103E00000846FFF729FABDEEC00A10EE100AA0839B
:103E1000A0680069B842D0DA04206071CDE7A068DC
:103E200094ED051ADFED200A90ED040A06E0A06883
:103E300094ED051ADFED1D0A90ED040A1046FFF718
:103E400045FFBDEEC00A10EE100AA083B5E7A068DA
:103E5000174A0069904204DA9FED160A88ED010ABC
:103E600001E088ED011AD8ED010A0846C4ED060A02
:103E700094ED050AFFF7F0F9BDEEC00A0E4910EE09
:103E8000100AA083A0680069884296DDC8F8006027
:103E9000ABE7000000C0DA459800002000C0DAC59A
:103EA0000000964300F020460000000000A02546D8
:103EB00000803B4500409C4600A0254600280CD0D1
:103EC0008168B1F9041000EE101A0449B8EEC00A76
:103ED00080ED050A0068C07A88607047980000206D
:103EE00070B505003DD01F4800F00AFD0020687144
:103EF0002871A87100F006FB286040F2072102201B
:103F000000F0C0FADFED192ADFED171A9FED180A4D
:103F1000A86015F12004F0EE620AB1EE042AB7EEB3
:103F2000001A0FD084ED002A84ED011A84ED020AF4
:103F30009FED100A84ED050A84ED040AC4ED080A19
:103F4000C4ED071AF0EE620A9FED0B0A0B4A00213E
:103F500005F15C00FFF734FA2846BDE87040FFF732
:103F6000ADBF70BDC80C00200000FA4500004843FA
:103F70009A9999BE0000000000606A46B07400087B
:103F80002DE9F047040030D03848DFF8E4C00725B9
:103F9000427938480827012A4079DCF80010226865
:103FA0004FF47A794FF416760CD0937A4FF00008DC
:103FB000022B26D0012B27D0D07A032821D002282B
:103FC00030D043E0B2F90220B24206DD6279072A1E
:103FD00003D004280BD0032809D0012905D160792A
:103FE000002802D0032800D16771BDE8F087484659
:103FF00001F05CFE2068B0F90200B042F5DD6571A9
:10400000F3E784F80580F0E7B2F90220B24203DD5D
:104010000428ECD00328EAD00129E6D160790028F1
:10402000E2D1E2E7DCF8080003280FD1A0790228EA
:1040300006D02179062901D0022005E0012805D00B
:104040002079052802D001206071CEE7A06841F2F6
:104050007071B0F90600884201DD0520F4E741F2F5
:104060007071C842C1DA0620EEE70000A40000200B
:1040700098000020541000204FF4967001F016FEB6
:104080000948FFF72DFF084C0748FFF779FF06485E
:10409000FFF714FF0448FFF759FE052001F006FE64
:1040A00060792071F0E700000011002000B58BB0AE
:1040B00000200121CDE906010891009001900290B5
:1040C00003900590049069460C48FCF7E7FC0B4808
:1040D000FDF719F902210948FCF74BFC0E20099065
:1040E000059069460648FCF7D9FC0548FDF70BF931
:1040F00002210348FCF73DFC0BB000BDD4070020B3
:10410000FC070020064807490068B0FBF1F20649A9
:104110000A704FF47A72B0FBF2F04860704700000A
:104120002C00002040420F003000002002490020F7
:104130000968C86370470000E009002070B50446B4
:104140002DED028B00799FED3F8A01280BD00628C8
:1041500009D020B3022825D0032826D0042827D050
:10416000052828D029E0002505EB850004EB800612
:1041700005EBC50086ED058A04EBC00096ED040A48
:10418000F0EE480A8030FFF767F8BDEEC00A6D1CFC
:10419000EDB210EE100A062D3083E5D33EE09FED20
:1041A0002A8A0AE09FED298A07E09FED298A04E028
:1041B0009FED288A01E09FED288A0020B1EE480A91
:1041C00000EB800104EB8101401CC0B281ED050AC7
:1041D0000328F5D3032000EB800104EB8101401C90
:1041E000C0B281ED058A0628F5D3002505EB8500D0
:1041F00004EB800605EBC50004EBC000D6ED050A14
:1042000096ED040A8030FFF727F8BDEEC00A6D1C5A
:10421000EDB210EE100A062D3083E7D334F9402FAB
:1042200034F9141C34F9280CFCF7E8FAB4F93C20F2
:10423000B4F92810B4F91400BDEC028BBDE870404D
:10424000FCF700BB0000000000F0C34500A0C8451B
:104250000080C5450028C3450008C045002811D08E
:10426000002101EB810200EB8202491C9368C9B274
:104270000629B3F9043000EE103AB8EEC00A82ED18
:10428000040AEED37047000010B504002DED028B38
:1042900074D00120207100F035F9206040F2012136
:1042A000012000F0EFF89FED378ADFED378AA0603C
:1042B000F0EE480AB0EE680A344A002104F18000AA
:1042C000FFF77EF840F20221012000F0DBF82F4AD0
:1042D000E061F0EE480AB0EE680A0C32002104F109
:1042E000C800FFF76DF840F20321012000F0CAF882
:1042F000264A2063F0EE480AB0EE680A1832002120
:1043000004F58870FFF75CF840F20521012000F009
:10431000B9F81E4A6064F0EE480AB0EE680A24322A
:10432000002104F5AC70FFF74BF840F206210120A4
:1043300000F0A8F8154AA065F0EE480AB0EE680A49
:104340003032002104F5D070FFF73AF840F207212F
:10435000012000F097F80D4AE066F0EE480AB0EE52
:10436000680A3C32002104F5F470FFF729F8BDEC2F
:10437000028B2046BDE81040FFF770BFBDEC028BFA
:1043800010BD000000409C450000804650740008AD
:104390002DE9F043002818D02149022403254A7949
:1043A000224904261F4F204B09684FF0000C4FF0A4
:1043B00001084FF00509012A09D00268927A022A01
:1043C00008D0032A22D0012A07D0BDE8F0837A79E9
:1043D000072A02D080F80480F7E780F804C07A79D1
:1043E000072AF2D1BA6812699A4212DD01E004711B
:1043F000EBE79A4200DD11B19A420DDD03E0057151
:10440000E3E70671E1E780F80490DEE70621017139
:10441000DBE70029EDD1EAE70129F4D1F1E700005B
:10442000A4000020001100200020CB4598000020AF
:1044300040F2651001F03AFC0948FFF725FF094CEE
:104440000748FFF7A5FF0648FFF708FF0448FFF7F6
:1044500075FE2088401C2080022001F027FCEFE739
:104460003C0D00208A000020028842810A8852BA4E
:1044700002804A8852BA82808A8852BAC280897978
:104480000172704710B540F20522531C941C01289C
:1044900002D0022823D031E0A1F5007001380BD002
:1044A000A1F5007002380AD0A1F50070033809D0D8
:1044B00091420AD1124810BD11483C3810BD104835
:1044C000283810BD0E48143810BD994202D10C484E
:1044D000143010BDA14211D10948283010BD9142BD
:1044E00002D107483C3010BD994202D104485030F7
:1044F00010BDA142FCD10248643010BD002010BDA7
:10450000640C002000487047DC0C002010B504004B
:1045100036D084ED040A30EEC00AC4ED030A04F17B
:104520002C0084ED050AD4ED000A60EE800AC4ED8B
:104530000A0AD4ED0B0AD4ED011A41EE800AC4ED4B
:104540000B0A94ED020A20EE010A84ED0C0A94EDA8
:10455000080AFFF7A9FB94ED0A0AD4ED0B0A04F14F
:10456000340030EE200AD4ED0C0A30EE200A84ED3F
:104570000D0A94ED070AFFF797FB94ED0D0A10BDA5
:104580009FED010A10BD000000000000002811D0BE
:104590009FED090A80ED040A80ED030A80ED050A0B
:1045A00080ED060A80ED0C0A80ED0B0A80ED0A0A08
:1045B00080ED0D0A704700000000000000280BD0BD
:1045C00080EC031A9FED051A80ED051A80ED041AA0
:1045D000C0ED080A80ED070A7047000000000000E7
:1045E00010B5002819D081680C4CDFED0D0AB1F927
:1045F0000C300A8804EB43331A4400EE102AB8EE5C
:10460000C00A20EE200A80ED030AB1F9041000EE82
:10461000101AB8EEC00A80ED050A10BD11F4FFFFB4
:104620008FBB4E3C002801D00021818470470000E0
:1046300070B504002DED028B44D000206071207114
:10464000FFF760FF206040F205210220FFF71AFF0C
:104650009FED1E8ADFED1F8AA06004F12800B9EEED
:10466000082AF0EE481A9FED1A1AF0EE480AB0EE4A
:10467000680A0546FFF7A2FF04F16400F0EE680A3D
:104680009FED150A154A00210646FEF799FE9FED9B
:10469000142AF2EE041A9FED131AF0EE480A9FED69
:1046A000120A04F1AC00FFF789FF2846FFF76EFFFE
:1046B0003046FEF765FEBDEC028B2046BDE870403B
:1046C000FFF78EBFBDEC028B70BD00000000000044
:1046D0000000FA43000048430080BB45987400087E
:1046E000000066C300606A460060EA4610B5040038
:1046F0000BD004F10C0090EC030AA030FFF706FF8A
:10470000BDEEC00A10EE100AA08410BD70B50446BC
:104710000079012823D120684FF416754FF47A717F
:10472000B0F90620AA420ADD084601F0BFFA206867
:10473000B0F90600A84212DD9FED100A0DE0B0F9B5
:104740000000A8420CDD084601F0B0FA2068B0F97C
:104750000000A84203DD9FED0A0A84ED040A70BD43
:10476000084DA842FBDA084601F0A0FA2068B0F92B
:104770000000A842F3DA9FED040AEEE70000000013
:104780001AC9E940A8FDFFFF82BCB9C04FF496707A
:1047900001F08CFA0248FFF7B9FF0520F8E70000A6
:1047A0006C0F002000280BD00179012909D00229C3
:1047B00006D14179022903D090ED030A80ED040A65
:1047C000704741790029F7D07047000010B5040008
:1047D0002DED028B48D0206840F67462B0F90410C9
:1047E00023480180A1680988914203D9B0F90020CB
:1047F000002A23DC40F62E12914203D2B0F90010B9
:1048000000291BDBB0F9000002F0FBFA9FED191B39
:1048100053EC112B02F020FB9FED181B53EC112BD6
:1048200002F06AF941EC180B206902F0FDFC53EC30
:10483000182B02F0B9F802F085F8206104F10C00A1
:1048400090EC030A1C30FFF761FE84ED060AF0EEDF
:10485000400A94ED050A04F16400FEF7FDFCBDEE8C
:10486000C00A10EE100AA084BDEC028B10BD00003F
:104870008C0000201F85EB51B81EF93F000000009E
:104880000088D3404FF4967001F010FA1A48FFF7F1
:10489000CFFE1A4E184D022471791748012915D000
:1048A0000168897A022913D0032913D001290DD078
:1048B0001148FFF777FF1048FFF792FE0E48017985
:1048C00059B101290CD002290DD00EE00471EFE797
:1048D000002100E001210171EAE7FFF7A3FE04E0F7
:1048E000FFF774FF01E0FFF701FF052001F0DEF99B
:1048F00028796871D0E700006C0F0020A400002028
:1049000001884180B1F5805F02D9C189491CC1810C
:1049100070470000827A06484FF48071022A04D062
:10492000032A02D00022FCF7AFBF0122FBE7000000
:1049300000080240FFF7E6FDFFF7ECFF022001F060
:10494000B5F9F7E72DED0A8BDFF8BC819FED6FAA73
:104950006F4E7079012803D000244FF47A774DE030
:10496000D8F80400010E00EE101AC0F30742B8EEAA
:10497000408A00EE102AC0F30722C0B2B8EE401AF7
:1049800000EE102AF8EE400A00EE100AD8F80800EF
:10499000000E01EE900AB8EE400AB8EE612A01EE70
:1049A000901AF8EE611A72EE611A9FED5A2AFCEE27
:1049B000C18ABCEEE09AC1EE82AAFCEEC09A002445
:1049C00038EE2A8ABCEEC80A10EE100A010618EE6C
:1049D000900A41EA004119EE100A41EA002019EE5E
:1049E000901A0843FFF742F9012000F019F9641CFE
:1049F000A4B2642CE4D3ACE701287FD058F824009B
:104A0000030E00EE103AC0F30742C0F30721B8EEE0
:104A1000408A00EE102A00F0FF0C08EB8400F8EE4C
:104A2000408A00EE101A4068B8EE409A00EE10CAB4
:104A3000050EF8EE409A00EE105A0025F8EE400AF6
:104A400000EE103AC0F30743B8EE400A70EEC01A09
:104A500000EE103AF8EE400A00EE102AC0F30722EA
:104A6000C0B2B8EE400AC1EE8AAA30EEC01A00EE1B
:104A7000102AF8EE400A00EE101AB8EE400A81EE55
:104A80000ABA70EEC00A00EE100AB8EE402A00EE34
:104A900010CAB8EE400A32EE400AC0EE8ABA80EE82
:104AA0000ACA01E0012823D038EE2A8A78EE8B8AE0
:104AB00039EE2B9A79EE8C9ABCEEC80A10EE100AE9
:104AC000BCEEE80A010610EE100ABCEEC90A41EA83
:104AD000004110EE100ABCEEE90A41EA002010EE97
:104AE000101A0843FFF7C2F8012000F099F8707916
:104AF0006D1CADB2BD4200E000E0D3D3641CA4B293
:104B0000062CBFF478AF77E74400002000007A4419
:104B1000A40000200000C842FCF7DEFFFEF7BAFC4C
:104B2000FEF70CF9FEF75EF8FEF716FAFEF7FCFA50
:104B3000FEF7E0F9FEF734FAFEF764FAFEF70EF836
:104B4000FEF72EF8FEF7F6F9FEF766FBFEF748FBD8
:104B5000FEF7B2FA0848FDF739FD08210648FDF7CF
:104B6000F1FEFFF7CFFA00F023FDFFF79FFAFEF703
:104B70006FF800F05DF8FEE7E009002000218428CE
:104B800000D0C11C084670474FF4967001F08EF8B3
:104B9000204C002666712671FFF7B4FC1E4D274697
:104BA00020601C4C2068B0F90200A8422CDA4FF4B7
:104BB0007A7001F07BF82068B0F90200A84223DA8D
:104BC000607940B901206071144806602068B0F92E
:104BD0000200A84218DA2068B0F90600A84213DAE9
:104BE0004FF4FA7001F062F82068B0F90210A9429F
:104BF0000ADAB0F90610A94206DA807A022803D14F
:104C00006079012800D16671052001F04FF87879AC
:104C10003871C6E7A4000020A8FDFFFF980000201F
:104C200010B5002800D1012001F040F8002010BD8F
:104C300010B501F0A9F8002010BD30B585B00446CC
:104C40000D466169B4F90800002910D0A16971B15D
:104C5000FFF794FF6269A1690192029100902B46CF
:104C600022692168606801F063FC049010E0FFF79E
:104C700085FF04A901910090208A2B4682B2216809
:104C8000606801F01FFC012802D005B0002030BD93
:104C9000049805B030BD00002DE9F04104460F46F0
:104CA0001B4E75693168002081F852003068001D84
:104CB00000F0C2FE48B93068012190F82C0001FADA
:104CC00000F0B16921EA0000B061B4F1FF3F07D103
:104CD00037B13068BDE8F041011D0E4800F0FFBE5D
:104CE0002C4430684460AC4206D23068011DB06884
:104CF000BDE8F04100F0D8BE3068011D706800F0DA
:104D0000D3FE306B844200D23463BDE8F0810000F2
:104D1000B8000020C412002070B5044600F0ECFE7C
:104D20001C4D2869401C2861286810B1E86938B119
:104D30000CE02C602869012808D100F08BF905E00F
:104D40002868E16AC06A884200D82C60E86A401C82
:104D5000E862E06A0121AA6981401143A9610E4914
:104D600000EB800001EB8000211D00F0B8FE00F098
:104D7000E3FEE86900280CD02868E16AC06A88422E
:104D800007D206494FF080500860BFF34F8FBFF342
:104D90006F8F70BDB8000020E811002004ED00E026
:104DA00038B500F0A9FE0F4CA068B8B90E4800F065
:104DB0006DFE0E4800F06AFE0B4820601430606003
:104DC00000200B4B009003F1480210210A2001F053
:104DD000F3F8A06010B107A100F02EFFBDE8384045
:104DE00000F0AABEF4000020D8120020EC1200202F
:104DF00000130020546D72510000000070B50D4C7E
:104E0000E068002815D00C4E00F076FEF068C5680A
:104E1000281D00F011FE2069401E2061E068401E40
:104E2000E06000F089FE284600F051F8E0680028B4
:104E3000EAD170BDB8000020B01200200B46026C11
:104E4000002A0CD0C1681144C160D0F804C061458B
:104E500001D30168C160C1681846FBF7FDBA70470D
:104E60002DE9F041044616460027A56B226C002A66
:104E700010D0C6B1E068FBF7EFFAE168206C091AC0
:104E8000E1602268914202D26168081AE060022E55
:104E900016D017E02068A8B9606801F0F5FB074656
:104EA000002060600EE0A068FBF7D6FA216CA068D5
:104EB0000844A0606168884204D32068A06001E0D3
:104EC00005B16D1E681CA0633846BDE8F08110B5C1
:104ED000044694F8511000290BD0012911D0022961
:104EE00014D0502080F31188BFF34F8FBFF36F8F22
:104EF000FEE7206B00F036FE2046BDE8104000F0D3
:104F000031BE2046BDE8104000F02CBE10BD0000B0
:104F100007490A681168002904D00021016019B10D
:104F2000002070470121F9E7D06800687047000051
:104F3000F40000204FF4C041104810F0070F06D0D5
:104F4000C01D20F007000D49411AC1F5C0410C4AAF
:104F50001060002353600144083921F00701103A22
:104F600011604B600B600B1A4360016040689060F9
:104F700050604FF00040D06070470000E813002000
:104F800018010020074E4FF08054074DFFF736FF01
:104F900030680128FAD92C60BFF34F8FBFF36F8FB1
:104FA000F4E70000E811002004ED00E0034600985B
:104FB000002905D00260C3630164012101F034B807
:104FC0000060F8E72DE9F05F82460B9F0A9D0C9C7C
:104FD0000E4690469B464FEA8801A522206BFBF7C0
:104FE000B2FA206BA8F1010100EB810020F0070963
:104FF0004FF0000800202218315C82F83410315C38
:1050000011B1401C1028F6D384F84380072D00D33B
:105010000625E5626564C4F84880201D00F041FD66
:1050200004F1180000F03DFD2461C5F10700A06106
:105030006462C4F84C8084F8508084F852805A46E8
:105040005146484600F09EFA2060002F00D03C6098
:10505000BDE8F09F70B500240F4D04EB840005EB14
:10506000800000F013FD641C072CF6D30B4800F001
:105070000DFD0B4800F00AFD0A4800F007FD0A4844
:1050800000F004FD094800F001FD094803494160B2
:105090001431816070BD0000E811002074120020FE
:1050A000881200209C120020B0120020C4120020A0
:1050B000B800002010B4144900E011460A6882428A
:1050C000FBD34B6803EB010C844503D140681844C3
:1050D000486008460C68D0F804C00CEB0003A342FB
:1050E0000CD10A4B1B689A4206D052686244426057
:1050F0000A681268026002E0036000E00260814218
:1051000000D0086010BC7047180100200801002082
:1051100010B5002441600061DFF838C091420BD81F
:10512000D11A8269914201D3012410E0011DDCF8FB
:10513000040000F0B9FC0AE09A4203D2994201D37C
:10514000012404E0011DDCF8000000F0ADFC204665
:1051500010BD0000F400002010B5044600F0CCFCA7
:10516000A06B20B1002400F0E7FC204610BD012414
:10517000F9E710B5044600F0BFFCA06BE16B884274
:1051800001D1012400E0002400F0D6FC204610BD2F
:10519000F8B505460E4614480068C068C468201D6E
:1051A00000F04AFCE069012810D1A0692B464119A2
:1051B00032462046FFF7ACFF40B1002003460146CF
:1051C00000902A46204601F083FB28B1616A01B0B5
:1051D0002046BDE8F0400847502080F31188BFF317
:1051E0004F8FBFF36F8FFEE7F400002030B587B01C
:1051F000334D002202A9A86801F074F800285CD0A1
:105200000298002803DA039A0599049890470298B7
:1052100000284BDB049C606910B1201D00F00CFCE1
:1052200001A800F097F8024602980A283ED2DFE86B
:1052300000F00505053D263705053D260398A169C3
:10524000034601442046FFF763FF00B3616A20462E
:105250008847E069012829D1002000900398A169BE
:10526000002342181946204601F032FB78B950203D
:1052700080F31188BFF34F8FBFF36F8FFEE7039862
:10528000A06128B1811813462046FFF741FF0DE0C9
:10529000502080F31188BFF34F8FBFF36F8FFEE76D
:1052A00094F8280010B9204600F05CFC002202A906
:1052B000A86801F017F80028A2D107B030BD00009F
:1052C000F4000020F8B505460C4600F0A5FD684640
:1052D00000F040F80646009810B101F05FFAF8BD02
:1052E00044B9B54206D801F059FA31462846FFF7CD
:1052F0004FFFF8BD0C481CB14168096891B100240A
:10530000A91B2246806800F0ABFC01F047FA002898
:10531000EFD106494FF080500860BFF34F8FBFF3C5
:105320006F8FF8BD0124EBE7F400002004ED00E0EE
:10533000074948680068002805D04868C068C06808
:105340004068086370474FF0FF3008637047000003
:10535000B800002070B5044601F028F90546074E54
:105360003069854204D200F00BF80120206001E092
:10537000002020603561284670BD0000F400002048
:10538000F8B51B4E30680068002824D0002730682C
:10539000C0680568C468201D00F04EFB616A2046A5
:1053A0008847E069012812D1A0692844A84206D99B
:1053B00060602461211D306800F076FB07E0002367
:1053C0002A4619462046009701F082FA40B130681B
:1053D00000680028DBD13068716831607060F8BD0A
:1053E000502080F31188BFF34F8FBFF36F8FFEE71C
:1053F000F40000200A484068B0F1FF3F07D0502079
:1054000080F31188BFF34F8FBFF36F8FFEE75020FB
:1054100080F31188BFF34F8FBFF36F8FFEE700005B
:105420002001002082B001A8FFF772FD0199FFF76B
:1054300049FFFFF7DBFEF6E770B5044600F05CFBC2
:1054400094F94550002D0CDD606A50B104F1240040
:1054500001F068F908B100F059FC681E45B2002D52
:10546000F2DC4FF0FF3684F8456000F065FB00F099
:1054700043FB94F94450002D0CDD206950B104F138
:10548000100001F04FF908B100F040FC681E45B271
:10549000002DF2DC84F84460BDE8704000F04CBBA5
:1054A0002DE9F0410546002600F0B6FC334F386880
:1054B00008B9FFF73FFDF86805424ED19DB10835A8
:1054C00015F0070F0FD005F00700C0F108000544E4
:1054D00015F0070F07D0502080F31188BFF34F8FCE
:1054E000BFF36F8FFEE7002D37D07868854234D840
:1054F00023490846046801E0214604466068A84242
:1055000002D220680028F7D13868844225D0086884
:1055100000F10806206808606068411B10290FD957
:10552000601910F0070F07D0502080F31188BFF3E7
:105530004F8FBFF36F8FFEE741606560FFF7BAFDE5
:1055400061687868401A7860BA68904200D2B860A2
:10555000F868084360600020206001F01FF916F031
:10556000070F07D0502080F31188BFF34F8FBFF390
:105570006F8FFEE73046BDE8F08100000801002093
:1055800018010020001F4FF080730360001F21F0FE
:1055900001010160001F0549016014380260001F0D
:1055A0006FF002010160203870470000F5530008D9
:1055B00002492422A1F12400FDF730BF170D00207D
:1055C000F0B5002855D0002953D00278437842EA3C
:1055D0000322C2F30A030B8042788478D20842EA9D
:1055E0004412C2F30A024A808478C578A40944EAC6
:1055F0008504057944EA8524C4F30A048C8005797E
:1056000046796D0845EAC615C5F30A05CD80467989
:10561000C6F301168E724679B609CE728679C779BD
:1056200046EA07268E81067A477A46EA0726CE8121
:10563000867AC77A46EA07260E82067B8E74467BF8
:10564000CE74867BC77B46EA07268E82067C407C2A
:10565000A3F580630B80A2F580624A80A4F5806484
:1056600046EA00208C80A5F58065CD80A0F580609D
:105670000881F0BD0A20FFF7D3FAFBE710B50A4C0A
:105680002168C862E06001F0D3FB9FED081B53EC7A
:10569000112B01F0E1FB01F087FB2168C863BDE835
:1056A0001040142000F002BBE00900209A9999995B
:1056B0009999B93F10B50A4C2168C862E06001F0C1
:1056C000B7FB9FED081B53EC112B01F0C5FB01F05C
:1056D0006BFB2168C863BDE81040C82000F0E6BA43
:1056E000E00900209A9999999999B93F10B50B4C06
:1056F0002168C862E06001F09BFB9FED091B53EC41
:10570000112B01F0A9FB01F04FFB2168C863BDE834
:1057100010404FF4C87000F0C9BA0000E009002042
:105720009A9999999999B93F10B5040036D084EDAA
:10573000040A30EEC00AC4ED030A04F12C0084ED23
:10574000050AD4ED000A60EE800AC4ED0A0AD4ED21
:105750000B0AD4ED011A41EE800AC4ED0B0A94ED58
:10576000020A20EE010A84ED0C0A94ED080AFEF705
:105770009BFA94ED0A0AD4ED0B0A04F1340030EEE2
:10578000200AD4ED0C0A30EE200A84ED0D0A94EDC7
:10579000070AFEF789FA94ED0D0A10BD9FED010A84
:1057A00010BD00000000000070B5044640791546A9
:1057B0000E4628B3184A04F16401022806D00128D5
:1057C00007D0032811D004280FD01AE0DFED130A08
:1057D00001E0DFED130A0846C2ED000AC4ED080A35
:1057E00094ED070AFDF738FD06E004F1140090EC93
:1057F000030A1430FFF798FFBDEEC00A10EE100A3E
:10580000A084B5F91C20B4F92410B6F92400BDE831
:105810007040FAF7CFBF000090000020000016C4CF
:1058200000001644002813D081680A8800EE102A70
:10583000B8EE400A80ED050AB1F9041000EE101A26
:105840000449B8EEC00A80ED070A0068C07A4860D3
:10585000704700009000002070B505003BD000208C
:1058600068712871FEF74EFE286040F20621022082
:10587000FEF708FEDFED182A9FED183A9FED182A73
:10588000A86015F12804B0EE620AB1EE041AF0EE39
:10589000081AF0EE430A0FD0C4ED001AC4ED010A55
:1058A00084ED022AF0EE430AC4ED050AC4ED040AB1
:1058B00084ED081A84ED070ADFED0A0AB0EE620AE9
:1058C000094A002105F16400FDF77AFD2846BDE88C
:1058D0007040FFF7A7BF70BD0000FA450000000050
:1058E0000AD723BC00004843A47400082DE9F04700
:1058F00000282BD03049DFF8CC80DFF8C0A04B79EE
:105900002F49042703258A68D8F800104FF0010CAE
:105910004FF002094FF4FA66012B09D003689C7A14
:10592000022C1DD0012C20D0D97A012929D03AE0AF
:1059300021B101290AD11169234A1AE08168B1F91C
:105940000610514536DB4179042929D1BDE8F0879D
:105950004571FBE741790329F8D080F805C0F5E7E8
:1059600000214171C8F80010F0E70129EED111695A
:10597000164A9142EADA8168B1F90610B142E9DDCE
:10598000E6E71349496803290DD14179012904D07B
:105990000279032AE1D1022905D00179042902D034
:1059A00080F80590D2E78168B1F90610B142CFDCEA
:1059B0005145CBDA4771C9E7A400002030F8FFFF5A
:1059C0000011002098000020000048430000A04182
:1059D000900000204FF4967000F068F91348FFF72C
:1059E0003BFF124C1148FFF781FF1048FFF71AFFE9
:1059F0000E484179032902D0042908D00AE0017930
:105A0000012907D190ED050A80ED060A02E001792F
:105A10000229F7D0064A07490448FFF7C5FE0520CA
:105A200000F044F960792071DCE700005410002098
:105A3000001100206C0F00200169436882689A60A1
:105A4000836842685A604A68824201D182684A602B
:105A5000002202610868401E086008687047000064
:105A6000034B036003F1540008608020106070470E
:105A70002C010020044B036003F1540008604FF434
:105A800080701060704700008003002000F1080162
:105A900041604FF0FF328260C1600161002101600E
:105AA000704700210161704710B4D1F800C0BCF10B
:105AB000FF3F02D000F1080202E0026904E01A464A
:105AC00053681C686445FAD953684B6099608A60D2
:105AD000516008610168491C016010BC7047426850
