:020000040800F2
:1000000000B20020010300080F3F0008F938000883
:100010000D3F0008D5150008E14800080000000069
:100020000000000000000000000000004102000885
:1000300093170008000000009D020008F54000082A
:100040001B0300081B0300081B0300081B03000818
:100050001B0300081B030008951700081B0300087A
:100060001B0300089B170008A11700081B030008CA
:10007000C91600081B0300081B0300081B03000827
:100080001B0300081B0300081B0300081B030008D8
:10009000D91500081B0300081B030008A717000858
:1000A0001B0300081B0300081B0300081B030008B8
:1000B0001B0300081B0300081B0300081B030008A8
:1000C0001B0300081B0300081B0300081B03000898
:1000D0001B0300081B0300081B0300083948000825
:1000E0001B0300081B0300081B0300081B03000878
:1000F0001B0300081B0300081B0300081B03000868
:100100001B0300081B0300081B0300081B03000857
:100110001B0300081B0300081B0300081B03000847
:100120001B0300081B0300081B0300081B03000837
:100130001B0300081B0300081B0300081B03000827
:10014000E51500081B0300081B0300081B0300083B
:100150001B0300081B030008D51600081B0300083A
:100160001B0300081B0300081B0300081B030008F7
:100170001B0300081B0300081B030008000000000D
:100180001B0300081B03000800F002F800F049F808
:100190000AA090E8000C82448344AAF10107DA45E2
:1001A00001D100F03EF8AFF2090EBAE80F0013F0EB
:1001B000010F18BFFB1A43F001031847B06D000090
:1001C000D06D0000103A24BF78C878C1FAD8520721
:1001D00024BF30C830C144BF04680C6070470000C1
:1001E0000023002400250026103A28BF78C1FBD840
:1001F000520728BF30C148BF0B607047662906F020
:10020000B985002070471FB506F0AFFD00F090FCE7
:1002100004000020002106F01BFDE0601FBD10B5AA
:1002200010BD00F0A1FD1146FFF7EDFF04F086FEC2
:1002300000F0BFFD03B4FFF7F2FF03BC04F070FB56
:100240002C4B19680868B0E8F04F80F30988BFF3B9
:100250006F8F4FF0000080F311887047000000009E
:1002600008480068006880F308884FF0000080F3B9
:10027000148862B661B6BFF34F8FBFF36F8F00DF94
:1002800000BF00BF08ED00E0DFF80C00016841F49A
:1002900070010160704700BF88ED00E0EFF3098056
:1002A000BFF36F8F134B1A681EF0100F08BF20EDBD
:1002B000108A20E9F04F106009B44FF0500080F32D
:1002C0001188BFF34F8FBFF36F8F05F033FF4FF0EF
:1002D000000080F3118809BC19680868B0E8F04F85
:1002E0001EF0100F08BFB0EC108A80F30988BFF32E
:1002F0006F8F704790000020EFF30580704700007B
:100300000948804709480047FEE7FEE7FEE7FEE7A9
:10031000FEE7FEE7FEE7FEE7FEE7FEE704480549E5
:10032000054A064B7047000091410008890100080A
:100330000072002000B200200092002000920020F5
:10034000704753EA020C00F069802DE9F04B4FF042
:100350000006002B1FBFB3FA83F503FA05F424FA55
:1003600005F65E4012BF1643B2FA82F502FA05F4B2
:10037000C5F120051EBF22FA05FC44EA0C04203515
:1003800056EA044C4FEA144418BF641C4FF00008AE
:100390004FF00009904271EB030C39D3002919BFCB
:1003A000B1FA81F701FA07F6B0FA80F700FA07F61A
:1003B000C7F120071EBF20FA07FC46EA0C062037CB
:1003C000B6FBF4FCA7EB0507103F07F01F0BCBF1C2
:1003D00020060CFA0BFB2CFA06F644BFB3460026A7
:1003E000202FA4BF5E464FF0000B5BEA060C08BF4F
:1003F0004FF0010B19EB0B09ABFB027C48EB060835
:10040000C01B06FB02CC0BFB03CC71EB0C01C1E75C
:100410000B46024641464846BDE8F08B13B54FF007
:1004200000004FF00001AFF30080BDE81C407047B2
:100430000FB4044910B503AA029800F045FB10BCA4
:100440005DF814FB1C0000202DE9F0474FF0000A76
:1004500089460446C0F820A02046E1688847002865
:1004600076D0252806D0D4E901219047206A401C87
:100470002062F1E7E168204600258847C4F81CA007
:1004800006460027C4F818A02A2E09D0304604F0EA
:1004900040FA38B304EB8708303EC8F8186019E01A
:1004A00059F8041B204604EB87029161E1688847F4
:1004B000012F064618D1E069002820DA25F0200532
:1004C0001DE0D8F8180000EB800006EB4000303843
:1004D000C8F818002046E1688847064604F019FA73
:1004E0000028EED1012F0AD02E2E08D12046E16837
:1004F00088477F1C0646022F45F02005C4DBA06913
:10050000002803DA404245F00105A061E80701D068
:1005100025F01005B6B1A6F14100192802D8203601
:1005200045F400654A463146204625604D46FFF7B2
:1005300065FE58B1012806D0ED1D25F0070000F139
:10054000080989E704E005F1040985E730468AE7F0
:10055000206ABDE8F087032A40F2308010F0030CD7
:1005600000F0158011F8013BBCF1020F624498BF06
:1005700011F801CB00F8013B38BF11F8013BA2F1A3
:10058000040298BF00F801CB38BF00F8013B11F01E
:10059000030300F02580083AC0F0088051F8043BBE
:1005A000083A51F804CBA0E80810F5E7121D5CBF2B
:1005B00051F8043B40F8043BAFF30080D20724BF5E
:1005C00011F8013B11F801CB48BF11F8012B24BFF2
:1005D00000F8013B00F801CB48BF00F8012B704741
:1005E00010B5203AC0F00B80B1E81850203AA0E8CE
:1005F0001850B1E81850A0E81850BFF4F5AF5FEA02
:10060000027C24BFB1E81850A0E8185044BF18C9B4
:1006100018C0BDE810405FEA827C24BF51F8043B5B
:1006200040F8043B08BF7047D20728BF31F8023BAF
:1006300048BF11F8012B28BF20F8023B48BF00F843
:10064000012B704702F0FF0343EA032242EA024211
:1006500000F04EBA4FF0000200B51346944696469D
:10066000203922BFA0E80C50A0E80C50B1F12001C5
:10067000BFF4F7AF090728BFA0E80C5048BF0CC073
:100680005DF804EB890028BF40F8042B08BF7047D1
:1006900048BF20F8022B11F0804F18BF00F8012B43
:1006A0007047704770477047704770472DE9FF4F9C
:1006B0000C461E464FF0FF378BB0D2E90001DDF843
:1006C00060800A908A46C1F30A5505B93D4600216B
:1006D00008464FF00000BAF1000F00F4400005DAC0
:1006E00000EB80004FF4400101EA50004FEA9059BE
:1006F000B9F1010F00DDB9460A9850EA4A000ED060
:1007000044F61050A5F2FF3545432F14B8F1000F01
:100710001ED07542291E1EDDC9F100021CE0B8F191
:10072000010F4FF0000001D0302103E0F24305E05B
:100730002154401CB042FBDB3046002200212154F2
:100740000B99C1F80880C1E900200FB0BDE8F08F17
:10075000BD1B6D1CDEE74A4600DA694206A800F0C0
:1007600089FA06AB93E8070003AB83E8070050461D
:100770000A9900F067FB8DE80700A0F500501F38CC
:1007800000900398002D0ADD42F21F014A460844FA
:10079000002303A90390684600F0D0FD09E0A0F50E
:1007A00000504A461F38002303A90390684600F012
:1007B000DAFD8DE807000004000C03D04FF0FF3095
:1007C000410800E01046B8F1000F03D0002200926B
:1007D00015461EE0751E05D400F0AEF930326255A4
:1007E0006D1EF9D5B3460122084302D000227F1CBA
:1007F00004E02078302801D100227F1E002A0997CA
:1008000084D01DE0112D07DA00F096F930326255E0
:100810006D1C50EA0102F5D1084302D00098C8B11E
:100820000EE00021681E05E0235C625C63542254E4
:10083000401E491C8142F7DBAB46A81B401E0990B5
:10084000002004F80B000B98099AC0F80880C0E952
:10085000002B7AE711264FF0000857E72DE9F04FFB
:1008600088460446D21D22F0070191B0D1E900016B
:10087000CDE90A0104F035F802460B98C00F01D00B
:100880002D2007E02068810701D52B2002E02021E0
:1008900001EAC000032A099001D0072A05DB0346BC
:1008A0004146204600F0A6F90BE12078800601D5EC
:1008B000E06900E00620B8F1650F814606D0B8F186
:1008C000660F18D0B8F1670F70D131E00020B9F190
:1008D000110F009001DB112301E009F101030AAAC5
:1008E00001A90CA8FFF7E2FEDDE90C70002609F172
:1008F0000105834647E001204B4600904FF000473A
:100900000AAA01A90CA8FFF7D1FEDDE90DB00C99E8
:100910005D46002610B909F101000D18B9EB05007C
:1009200003D4C0F1FF3609F10105A5EB09002BE066
:10093000B9F1010F01DA4FF001090020B9F1110FEF
:100940000090484601DD112300E003460AAA01A9F0
:100950000CA8FFF7ABFEDDE90C704D460026834680
:10096000207800070AD4AB4500DA5D4601A8012DC6
:1009700004DD411911F8011C302907D04F4502DA76
:1009800017F1040F04DA012082460FE06D1EEEE736
:10099000002F02DCED1B3E4403E0781CA84200DD82
:1009A0007D1CB81B00F1010A4FF0004720780007BA
:1009B00003D4AA4501DB4FF0FF3A0021B7F1004F05
:1009C0000DF143088DF8431024D002202B23002F73
:1009D00001DA7F422D230A21021EA0F1010000DC72
:1009E0005FB197FBF1FC97FBF1F201FB1C7C174612
:1009F0000CF1300C08F801CDEEE7A8F1010003700E
:100A00002188090501D5452100E06521A0F10108F3
:100A100000F8011C09980FA9A1EB0807FF1D00B100
:100A20000120411901EBEA70A1693844081A401EFF
:100A3000A0612078C00602D42046AFF30080099858
:100A400028B1D4E901219047206A401C2062207817
:100A5000C00622D52046AFF300801EE0002E04DB46
:100A6000B34502DD01A8805D00E03020D4E901211A
:100A70009047206A401C2062761CAAF101005FEAC0
:100A8000000A0AD100F054F8C0680168405CD4E95B
:100A900001219047206A401C2062281EA5F1010513
:100AA000DCDC07E0D4E9012118F8010B9047206A4B
:100AB000401C2062381EA7F10107F3DC2046AFF38B
:100AC0000080032011B041E6074B70B50D467B4412
:100AD00000F07DF80446284600F03EF910B14FF0D2
:100AE000FF3070BD204670BDEF3F00004FF00002A8
:100AF0000429C0F0128010F0030C3FF4ADADCCF12E
:100B0000040CBCF1020F18BF00F8012BA8BF20F89D
:100B1000022BA1EB0C01FFF79FBD5FEAC17C24BF54
:100B200000F8012B00F8012B48BF00F8012B70479B
:100B300000487047C071002030B5B0F10A024FEA9A
:100B4000900E71F100034EEA817EB0EB0E0061EB76
:100B500091014FEA101E4EEA017E10EB0E0041EBB0
:100B600011114FEA102E4EEA016E10EB0E0041EB10
:100B700011214FEA104E4EEA014E10EB0E0041EBF0
:100B80001141401841F100014FEAD00040EA4170A4
:100B90004FEAD10110EB80054FEA810444EA9074DA
:100BA00044EB01046D1944EB0404521BA3414FF0C4
:100BB000000348BF0A3200D530BD401C41F100019E
:100BC00030BD000001694A1C02610878704700B519
:100BD0008FB0CDE901310021059105497944CDE976
:100BE000031011466846FFF72FFC0FB000BD000050
:100BF000E5FFFFFF2DE9F0411F460446032601688B
:100C0000072A01F4006004DB08B116A505E016A56B
:100C100003E008B115A500E015A521F01000206043
:100C2000A069C01EA0610FB1401EA0612046AFF3B5
:100C300000804FB1D4E9012138469047206A401C1A
:100C40002062C01C206206E0206AFAE7D4E9012194
:100C500015F8010B9047761EF8D22046AFF30080BE
:100C6000BDE8F0814E414E006E616E00494E460077
:100C7000696E66002DE9F047814616468AB0354810
:100C800078440DC88DE80D0032487844801C03ACD0
:100C90000DC884E80D0041F69B300844372190FBD5
:100CA000F1F290FBF1F5A5F1800501FB12041B3C6C
:100CB00002D56442012000E00020DFF898A08046C1
:100CC0000027FA44AAF1BE0A0EE0E0070AD0324635
:100CD000684607EB470101230AEB810100F043FB63
:100CE0008DE8070064107F1C002CEED1194F7F4463
:100CF000AE3F19E0E80715D007EB04100DF1180A14
:100D000090E80E008AE80E00C068F04201D1981900
:100D100008903246012306A903A800F024FB03AB88
:100D200083E807006D10641C002DE3D14FF0010330
:100D300032466946B8F1000F03A802D000F0FEFA6F
:100D400001E000F010FBC9E90001C9F808200AB071
:100D5000BDE8F0878C620000007B00F080007047E7
:100D600000487047A07100207546FFF7F9FFAE46B6
:100D700005006946534620F00700854618B020B5A7
:100D8000FFF7CCFABDE820404FF000064FF0000717
:100D90004FF000084FF0000B21F00701AC46ACE823
:100DA000C009ACE8C009ACE8C009ACE8C0098D4690
:100DB000704710B50446AFF300802046BDE81040F0
:100DC000FFF738BA4FF0013C50F8042B51F8043BC0
:100DD0009A4221D1A2EB0C03934313EACC1317D10F
:100DE00050F8042B51F8043B9A4215D1A2EB0C03A6
:100DF000934313EACC130BD150F8042B51F8043B66
:100E00009A4209D1A2EB0C03934313EACC13DBD033
:100E10004FF00000704700BFD01A01BAB1FA81F15B
:100E200001F0180122FA01F0CB40C1F12001DBB240
:100E3000C0B2C01A2CFA01F3D11A914311EAC311BE
:100E4000E6D170475FEA400C08BF91F0000F4FEA0F
:100E50008C234FEAC12243EA51514FEA1C5018BF7C
:100E600000F5F0404FEA300018BF41F000415FEA62
:100E70006C5C00F02980BCF1FF3F08BF40F080406F
:100E80007047130C06BF12044FF0100C4FF0000C0B
:100E9000130E04BF12020CF1080C130F04BF120151
:100EA0000CF1040C930F04BF92000CF1020CD30F51
:100EB00004BF52000CF1010C11464FF00002A0F1EA
:100EC0001F00A0EB0C00704711F0004F08BF7047E7
:100ED00031F000413FF4D5AF0B0C06BF09044FF0D1
:100EE000100C4FF0000C0B0E04BF09020CF1080CA3
:100EF0000B0F04BF09010CF1040C8B0F04BF890018
:100F00000CF1020CCB0F04BF49000CF1010CCCF129
:100F10002003A0EB0C0022FA03F302FA0CF241EAE0
:100F2000030100F10100704720F07F4C80EA0300CC
:100F300023F07F47ACEB070303F57C5300F0004040
:100F400003F1FF032DE980494FEA154B09B44FEA3D
:100F5000144325EA0B4E24EA03480FF2042606EB5D
:100F6000132749083E785FEA320203FB0667C7F59C
:100F7000000707FB06F64FEA54374FEAD64606F15C
:100F8000020607FB066CCCF1005C4FEA1C472CEA1A
:100F9000074C07FB06F40CFB06F504EB15464FEA7D
:100FA000961634BF00204FF000404FEAD13706FBC1
:100FB00007FC4FEA1C4C0CFB0BF7D21B03FB0CF796
:100FC00061EB07010CFB0EF7B0EB074072EB174229
:100FD0000CFB08F734BFA2EB0742B2EB074261EB10
:100FE00017414FEA0C444FEA910706FB07FC4FEA12
:100FF0001C4C0CFB0BF7B0EBC74072EB573203FBFA
:101000000CF734BFA2EBC742B2EBC74261EB5731DA
:101010000CFB0EF7B0EBC70072EB57720CFB08F736
:1010200034BFA2EBC702B2EBC70261EB5771039F5B
:101030004FEA816141EA921104EBCC044FEAD137C7
:101040004FEA826206FB07FC42EA90124FEA806098
:101050004FEA1C4C0CFB0BF7D21B03FB0CF761EBAC
:1010600007010CFB0EF7B0EB074072EB17420CFBCD
:1010700008F734BFA2EB0742B2EB074261EB17411E
:101080004FEA8C554FEA910704EB9C2406FB07FCC2
:101090004FEA1C4C0CFB0BF7B0EBC74072EB57321E
:1010A00003FB0CF734BFA2EBC742B2EBC74261EBC4
:1010B00057310CFB0EF7B0EBC70072EB57720CFB0D
:1010C00008F734BFA2EBC702B2EBC70261EB57715E
:1010D00015EB4C254FEA816141EA92114FEA826299
:1010E0004FEAD13742EA901206FB07FC44F10004B4
:1010F0004FEA80604FEA1C4C0CFB0BF7D21B03FB42
:101100000CF761EB07010CFB0EF7B0EB074072EB3D
:1011100017420CFB08F734BFA2EB0742B2EB0742C1
:1011200061EB174115EB1C154FEA813141EA924101
:101130004FEA823242EA90424FEA80304FEA0C7620
:1011400044F1000448EA03434EEA0B484FF0000E16
:10115000B2EB080C71EB030724BF624639464EEB35
:101160000E0E4FF0000B0018524149414BEB0B0B98
:10117000B2EB080C71EB03077BF1000B24BF624656
:1011800039464EEB0E0E4FF0000B0018524149410C
:101190004BEB0B0BB2EB080C71EB03077BF1000B75
:1011A00024BF624639464EEB0E0E51EA020718BFC5
:1011B00046F0010616EB0E7655F1000254F10001DF
:1011C00003D5BDE88901BDE80088BDE88901BDE817
:1011D0000048B619524141EB0101A3F101037047E8
:1011E00080807F7E7D7C7B7A797877767675747364
:1011F000727171706F6E6E6D6C6C6B6A6A69686823
:10120000676666656464636362616160605F5F5EB8
:101210005E5D5D5C5C5B5B5A5A595958585757562E
:101220005655555554545353525252515150505093
:101230004F4F4F4E4E4D4D4D4C4C4C4B4B4B4A4AE5
:101240004A49494948484847474747464646454529
:101250004544444444434343434242424241414162
:10126000002B9C4630D477002BD01CB54FEA3707B3
:1012700003B44FF010004FF01001BAF1000F06D088
:10128000BCF1000FDCBF40F0080040F008014FF057
:1012900000000FBCBDE810400BF1010BBBF1010FCA
:1012A00008BF5FEA170722BF12F1010211F1010125
:1012B0004FF0004143F1000300F0004043EA00001A
:1012C0007047F9D35708D0E746EA064613F1400FB6
:1012D0004FEA16461FDD13F1200FDFBF16430A4603
:1012E000002120335B42BED0C3F1200746EA064608
:1012F00002FA07F74FEA164646EA0706C3F1200747
:1013000022FA03F201FA07F721FA03F14FF0000382
:1013100042EA0702A7E746EA020646EA06464FEA1D
:10132000164646EA0106BCBF46EA0646360C4FF0B2
:1013300000034FF000024FF0000194E72DE9804CCC
:101340009A46934670B491E8380007C831EA400CD9
:1013500048BF34EA430C03D5FFF7E6FDFFF780FFF3
:10136000F0BCBDE8008C2DE9804C9A46934670B4E1
:1013700091E8380007C810F0804F08BF13F0804F85
:1013800003D100F005F8FFF76BFFF0BCBDE8008C5F
:1013900020F07F4780EA030023F07F4C07EB0C032B
:1013A000A3F57C5300F00040A3F1FE0392F0000F80
:1013B00000F0B38095F0000F00F077802DE901492F
:1013C0004FEA11404FEA144621EA004800FB06FCB0
:1013D00024EA064708FB06F607FB08F800FB07F7B8
:1013E00018EB06484CEB164C4FEA124B18EB07482B
:1013F0004FEA15464CEB174022EA0B4E0BFB06FC5E
:1014000025EA06470EFB06F607FB0EFE0BFB07F769
:101410001EEB064E4CEB164C4FF000061EEB074E33
:101420004CEB174B18EB0B0840F1000018EB0E0BC0
:1014300058EB000840F100008F1A4FF000013CBF4C
:10144000C943661B14BFB5EB040C00213CBFC94364
:10145000F61B4FEA17444EEA8E0E27EA04454FEA80
:101460001C4704FB07622CEA074C05FB07F70CFB43
:1014700005F604FB0CFC16EB074642EB174216EB95
:101480000C4642EB1C421BEB060658EB02024141A4
:1014900046EA9E0601D5BDE80189B619524141EBE5
:1014A0000101A3F10103BDE801894FEA14454FEAA8
:1014B000114724EA054621EA074C05FB07F406FB21
:1014C00007F70CFB06F105FB0CFC11EB074144EBA5
:1014D00017444FEA124711EB0C4144EB1C4422EA3B
:1014E000074C05FB07F206FB07F70CFB06F605FBAE
:1014F0000CFC16EB074642EB174216EB0C4642EB90
:101500001C456A1854F1000148BF7047B619524192
:1015100041EB0101A3F10103704795F0000F37D0B3
:101520004FEA11424FEA144721EA024624EA074CE7
:1015300002FB07F106FB07F70CFB06F402FB0CFCB1
:1015400014EB074441EB17414FEA154714EB0C44E9
:1015500041EB1C4125EA074C02FB07F506FB07F7A8
:101560000CFB06F602FB0CFC16EB074645EB174599
:1015700016EB0C4645EB1C42121951F1000148BF15
:101580007047B619524141EB0101A3F101037047C5
:101590004FEA14454FEA114724EA054621EA074C71
:1015A00005FB07F106FB07F70CFB06F24FF0000600
:1015B00005FB0CFC12EB074241EB174112EB0C420E
:1015C00051EB1C4148BF7047921841EB0101A3F158
:1015D00001037047FEE70000014800F0C8BA0000B0
:1015E000AC070020014800F0C2BA0000D407002078
:1015F00038B50E4B4FF4007408251C6000249C6025
:10160000C3E903450A4B050A1D705870080A987013
:10161000D970100A18715A719C71DC716B46044ABA
:101620000249044800F0D5F838BD0000780B0020CE
:1016300068000020AC07002038B50E4B40F2FF14C4
:1016400008251C6000249C60C3E903450A4B050A79
:101650001D705870080A9870D970100A18715A7164
:101660009C71DC716B46044A0249044800F0B1F8F1
:1016700038BD0000900B002070000020AC07002057
:1016800038B50E4B40F2FF1408251C6000249C6006
:10169000C3E903450A4B050A1D705870080A987083
:1016A000D970100A18715A719C71DC716B46044A2A
:1016B0000249044800F08DF838BD0000A80B002056
:1016C00078000020D4070020014800F049BD000048
:1016D000180B0020014800F043BD0000B80A0020AC
:1016E00001680A4BCAB2103AA3FB02321209084B36
:1016F0009B5CC365032A04D96FF30901091D816549
:1017000002E06FF309018165806D7047ABAAAAAA58
:101710008C6E0008014600208A6A8B69002B0FD06E
:10172000B3F5005F1DD08AB3012A30D0022A2ED033
:10173000032A04D1C96A11F0807F00D001207047CC
:101740001AB1012A07D0022AF9D1C96A11F0807FA3
:10175000F5D001207047C96AB1F1C07FFAD10120EC
:1017600070475AB1012A0BD0022A07D0032AF7D1B9
:10177000C96AB1F1C07FF3D10120704701207047E1
:10178000C96A11F0807FFAD001207047FFE701207D
:1017900070477047012000F051BE082000F04EBE97
:1017A000102000F04BBE202000F048BE704790F89B
:1017B0002020012A07D0022A05D0416A41F4802165
:1017C0004162012070470068426911434161002075
:1017D000704770B490F82040D0F800C0DCF808C022
:1017E000012C08D0022C06D0416A41F480214162CC
:1017F00070BC012070470CF080640CF000652C4335
:1018000002D11CF0805F5FD0CCF3016CBCF1020F01
:1018100006D9416A41F40001416270BC0120704761
:10182000012404FA0CF41C608B684FF4C0749BB163
:10183000CD6804EB0C162B434D6843EAC5030568DD
:10184000AB514FF4C273066803EB0C130D69F550EE
:10185000097D012909D00DE00D88CB6804EB0C1639
:1018600043EA45530568AB51EBE70168CD5845F4B1
:101870008075CD501179D379557941EA0361937917
:101880001B0443EA052319434FF4C675036805EBAF
:101890000C1559511178D37841EA03619378527845
:1018A0001B0443EA022211434FF4C473026803EBA2
:1018B0000C13D150016804EB0C100A5842F00102DD
:1018C0000A5070BC00207047416A41F40011416227
:1018D00070BC01207047000090F82020012A07D03A
:1018E000022A05D0416A41F48021416201207047FB
:1018F0004248D0F8002242F00102C0F80022D0F89D
:10190000002222F47C52C0F80022D0F800224B6A58
:1019100042EA0322C0F800220A7D012302F01F02DE
:1019200003FA02F2D0F81C329343C0F81C32CB69A0
:10193000D3B9D0F80C329343C0F80C32B1F80CC0D4
:101940004B686CF31F43D1F814C000EBCC0CCCF8FF
:101950004032B1F808C00B686CF31F43D1F814C0D3
:1019600000EBCC0CCCF84432CB69012B1AD1D0F867
:101970000C321343C0F80C32B1F800C04B686CF362
:101980001F43D1F814C000EBCC0CCCF84032B1F8B6
:1019900008C0CB686CF31F43D1F814C000EBCC0C2B
:1019A000CCF844328B697BB1D0F804321343C0F8D1
:1019B00004320B6973B1D0F814321343C0F81432F7
:1019C000096A01290CD010E0D0F804329343C0F822
:1019D0000432EEE7D0F814329343C0F81432EFE744
:1019E000D0F81C121143C0F81C12D0F8001221F0DC
:1019F0000101C0F8001200207047000000640040A0
:101A0000704710B490F820C0BCF1010F09D0BCF1B0
:101A1000020F06D0416A41F48021416210BC0120CE
:101A2000704739B1D0F800C0DCF810C01CF0030FCB
:101A30007DD006E0D0F800C0DCF80CC01CF0030F2D
:101A40007BD04FF4D87C04680CEB011C54F80C409C
:101A500004F004049460002C7DD0046854F80C4019
:101A6000E4085460046854F80CC0CCF3400CC2F88D
:101A70000CC04FF4DA7C04680CEB011C54F80C40E9
:101A800004F00F041461046854F80C40C4F30724F4
:101A90009461046854F80CC04FEA1C4CC2F814C09E
:101AA0004FF4DC72D0F800C002EB01125CF802C007
:101AB00083F800C0D0F800C05CF802C04FEA1C2CCC
:101AC00083F801C0D0F800C05CF802C04FEA1C4C9B
:101AD00083F802C0D0F800C05CF80220120EDA7061
:101AE0004FF4DE72D0F800C002EB01125CF802C0C5
:101AF00083F804C0D0F800C05CF802C04FEA1C2C88
:101B000083F805C0D0F800C05CF802C04FEA1C4C56
:101B100083F806C0D0F800C05CF80220120EDA711B
:101B2000F9B10068016941F02001016102E00BE0B8
:101B300003E010E010BC00207047416A41F400113E
:101B4000416210BC01207047416A41F400114162BA
:101B500010BC01207047046854F80C40640D1460F8
:101B600080E70068C16841F02001C160DEE72DE92F
:101B7000F05F0546002428684669D0F8049087681D
:101B8000D0F80CA0D0F810B0D0F8188016F0010FE3
:101B900054D017F0010F17D00121816017F0020F08
:101BA00003D0284600F0D6FA0EE017F0040F02D05A
:101BB0004FF4006408E017F0080F02D04FF480548F
:101BC00002E0284600F0C5FA17F4807F19D0296892
:101BD0004FF48070886017F4007F03D0284600F02F
:101BE000BBFA0EE017F4806F02D044F4005408E012
:101BF00017F4006F02D044F4804402E0284600F05D
:101C0000AAFA17F4803F19D029684FF48030886011
:101C100017F4003F03D0284600F0A0FA0EE017F4B6
:101C2000802F02D044F4004408E017F4002F02D0C3
:101C300044F4803402E0284600F08FFA16F0080FD2
:101C400007D01AF0100F04D044F400742968102053
:101C5000C86016F0040F4FF0080707D01AF0080FFD
:101C600004D02868C760284600F0CCF916F0020FAF
:101C700007D02868C06810F0030F02D0284600F093
:101C8000C3F916F0400F07D01BF0100F04D044F436
:101C9000806429681020086116F0200F07D01BF01F
:101CA000080F04D028680761284600F01DFA16F0D6
:101CB000100F07D02868006910F0030F02D02846E3
:101CC00000F013FA16F4003F08D019F0100F05D0F9
:101CD000296810204860284600F008FA16F4803F72
:101CE00007D019F0080F04D028684760284600F094
:101CF00036FA16F4004F4AD019F0040F44D016F407
:101D0000807F04D018F0010F01D044F0010416F4D4
:101D1000007F04D018F0020F01D044F0020416F442
:101D2000806F04D018F0040F01D044F0040416F4BE
:101D3000006F29D018F0700F26D008F070004028EE
:101D400015D006DC102809D020280AD0302816D15A
:101D50000AE050280ED0602811D10EE044F00804AB
:101D60000DE044F010040AE044F0200407E044F0E1
:101D7000400404E044F0800401E044F480742868E6
:101D8000816921F070018161296804204860002C7C
:101D900005D0686A204368622846FFF731FEBDE837
:101DA000F09F70B50446002C03D094F8200010B1C9
:101DB00004E0012070BD204600F0A8F8206801680A
:101DC00021F00201016000F05BFC054620684068DC
:101DD0004FF0050610F0020F11D000F051FC401B2F
:101DE0000A2807D9606A40F40030606284F82060F5
:101DF000012070BD2068406810F0020FEDD120680E
:101E0000016841F00101016000F03AFC05462068DC
:101E1000406810F0010F11D100F032FC401B0A287D
:101E200007D9606A40F40030606284F820600120C5
:101E300070BD2068406810F0010FEDD0207E0128B1
:101E40003FD02068016821F080010160607E012898
:101E50003DD02068016821F040010160A07E01288A
:101E60003BD02068016821F020010160E07E01285C
:101E700039D02068016841F010010160207F0128FD
:101E800037D02068016821F008010160607F0128D7
:101E900035D02068016821F004010160E168A06884
:101EA000626908432169114308436168491E084378
:101EB0002168C86100206062012084F820000020B1
:101EC00070BD2068016841F080010160BEE72068B4
:101ED000016841F040010160C0E72068016841F0FD
:101EE00020010160C2E72068016821F01001016053
:101EF000C4E72068016841F008010160C6E7206876
:101F0000016841F004010160C8E70000F0B587B046
:101F1000044614216846FEF79DFB3549354ADFF833
:101F2000CCE00868D4F800C0324B0324022509260F
:101F300010320027401CF44521D10860012807D148
:101F4000106840F000701060106800F0007005909C
:101F5000186840F00800186018688DE8B00000F0BC
:101F60000800CDE9046069460394234800F072FA42
:101F700000220521142000F009FD142031E0DFF8D3
:101F80007CE0F4452FD1D2F800C04CF0806CC2F850
:101F900000C0D2F800C001280CF0806CCDF814C04D
:101FA000086007D1106840F000701060106800F001
:101FB00000700590186840F00200186018686946C3
:101FC00000F00200059060208DE8A100CDE90346F5
:101FD0000B4800F03FFA00220521402000F0D6FC1B
:101FE000402000F0C5FC07B0F0BD000000640040D8
:101FF0001800002030380240000C02400068004009
:10200000000402407047000030B589B005466B46B9
:1020100002AA0021FFF7F5FC2F48304B304C8542D7
:102020001ED10298A0F2012007280FD2DFE800F0AD
:102030000406100E12141600187800E0587869464D
:1020400000EB400004EB800002F096FE09B030BDCA
:102050009878F4E7D878F2E71879F0E75879EEE75E
:1020600020488542F2D10298A0F50070053805D0CD
:10207000012805D00228E9D19879E0E7D879DEE790
:10208000187A694600EB400004EB800002F074FE11
:10209000D86830B9197A002201EB410104EB8101C3
:1020A0004A81401CD860B0F5FA7FCFDD187A00EB8A
:1020B000400034F8201004EB80000289891AB1F541
:1020C000805F02DD4189491E04E011F5805FBDDAC1
:1020D0004189491C4181B9E7AC0700205800002024
:1020E000C00B0020D407002070477047704770B5C0
:1020F000044694F82000012805D0606A40F40020CE
:102100006062012070BD022084F820002068016810
:1021100021F00101016000F0B3FA05462068406833
:1021200010F0010F12D000F0ABFA401B0A2808D9BA
:10213000606A40F400306062052084F820000120CD
:1021400070BD2068406810F0010FECD10020606283
:1021500070BD704770477047704770477047704751
:102160002DE9F84304464FF00008CDF8008076488A
:102170004FF416510068B0FBF1F7A56D2E6894F886
:102180005C00082101FA00F0304211D0206802689A
:1021900012F0040F0CD0026822F00402026094F8DE
:1021A0005C0001FA00F0A860606D40F0010060651D
:1021B00094F85C004FF0010909FA00F0304209D0B0
:1021C0002168496911F0800F04D0A860606D40F06B
:1021D0000200606594F85C1004208840304209D009
:1021E0002168096811F0020F04D0A860606D40F00A
:1021F0000400606594F85C1010208840304224D0C0
:102200002168096811F0080F1FD0A86020680168D4
:1022100011F4802F0DD0006810F4002F04D0A16CB1
:1022200099B12046884710E0216C71B1204688475B
:102230000BE0016811F4807F03D1016821F00801EF
:102240000160216C09B12046884794F85C10202079
:102250008840304251D02168096811F0100F4CD0ED
:10226000A86094F8350005280DD02068016811F4A5
:10227000802F32D0006810F4002F29D0E16B59B3C1
:102280002046884739E02068016821F01601016086
:102290002068416921F080014161206C08B9A06C7F
:1022A00020B12068016821F00801016094F85C0009
:1022B0003F2101FA00F0A86084F8348084F835905A
:1022C000216D00293ED001B02046BDE8F04308470B
:1022D000616C09B1204688470FE0016811F4807FE6
:1022E00007D1016821F01001016084F8348084F87E
:1022F0003590E16B09B120468847606D002821D0F8
:10230000606D10F0010F15D0052084F835002068AD
:10231000016821F0010101600098401C0090B84262
:1023200004D82068006810F0010FF5D184F83480DB
:1023300084F83590E16C002904D001B02046BDE856
:10234000F0430847BDE8F883200000202DE9F04164
:10235000044600F095F90546DCB1002684F83460A7
:10236000022084F835002068016821F00101016035
:102370002068006810F0010F13D000F081F9401BB5
:10238000052809D920206065032084F83500BDE8C0
:10239000F0810120BDE8F0812068006810F0010F95
:1023A000EBD121680868234A1040A3686268D4F81A
:1023B00010C01A43E36843EA0C031A4363691A43E3
:1023C000A3691A43E3691A43236A1A431043626AF2
:1023D000042A03D1236BE26A1A4310430860206881
:1023E000406920F00701606A40EA010501270428DE
:1023F0000ED1A06A0543E06A50B12046FFF78AF982
:1024000030B14020606584F835700120BDE8F0816E
:10241000206845612046FFF763F994F85C103F227D
:1024200002FA01F18160666584F835700020BDE82C
:10243000F08100003F8010F07047000010B50449A3
:102440000A68024202D00860FFF7F6FF10BD0000E4
:10245000143C01402DE9F84F0022DFF80082DFF83C
:102460000092DFF800A24FF0030E0F27012303FABA
:1024700002F50B682B40AB427DD1D1F804C0BCF112
:10248000020F02D0BCF1120F12D14FEAD20C00EBB6
:102490008C0CDCF820605407E40E07FA04FB26EAF3
:1024A0000B06D1F810B00BFA04F43443CCF82040FA
:1024B00006684FEA420C0EFA0CF4A64391F804B0F9
:1024C0000BF0030B0BFA0CFB4BEA060606604E689A
:1024D000012E05D0022E03D0112E01D0122E11D1C3
:1024E0008668A643D1F80CB00BFA0CFB4BEA060643
:1024F0008660466826EA05050E79C6F30016964002
:1025000035434560C56825EA04048D6805FA0CFC6E
:102510004CEA040CC0F80CC0D1F804C01CF0805F79
:102520007DD0D8F800C04CF4804CC8F800C0D8F872
:1025300000C00CF4804CCDF800C022F0030C0CF16C
:10254000804404F59834D4F808C895072D0F07FA8D
:1025500005F62CEA0606A0F1804CBCF5003C64D0E0
:10256000A0F1804CBCF5013C62D0A0F1804CBCF5E0
:10257000023C60D000E052E0A0F1804CBCF5033C8E
:102580005CD0A0F1804CBCF5043C5AD0A0F1804C4A
:10259000BCF5053C58D0A0F1804CBCF5063C56D0AB
:1025A000A0F1804CBCF5073C54D04FF0080C0CFA5D
:1025B00005FC4CEA060CC4F808C8D9F800C02CEA9F
:1025C000030C4C6814F4803F01D04CEA030CC9F8AA
:1025D00000C0254CD4F800C02CEA030C4D6815F45B
:1025E000003F01D04CEA030CC4F800C0DAF800C088
:1025F0002CEA030C4C6814F4801F01D04CEA030C45
:10260000CAF800C0194CD4F800C02CEA030C4D687D
:1026100015F4001F01D04CEA030CC4F800C0521C92
:10262000102AFFF423AFBDE8F88F4FF0000CBEE78F
:102630004FF0010CBBE74FF0020CB8E74FF0030C72
:10264000B5E74FF0040CB2E74FF0050CAFE74FF0E1
:10265000060CACE74FF0070CA9E700004438024035
:10266000003C0140083C0140043C01400C3C01405E
:10267000002A01D081617047090481617047000020
:1026800001488068704700008400002070B504464F
:10269000002C04D094F83D00002510B106E0012084
:1026A00070BD84F83C50204600F0BCF8242084F82B
:1026B0003D002068016821F00101016000F06CFA22
:1026C000544B6168994203D85349884203D304E0CC
:1026D0005249884201D2012070BD5149B0FBF1F14D
:1026E0002268D2F804C02CF03F0C4CEA010CC2F86E
:1026F00004C062689A4201D84A1C07E04FF49672FF
:1027000051434FF47A72B1FBF2F14A1C2168D1F8BF
:1027100020C02CF03F0C42EA0C020A626168994228
:1027200010D84900401EB0FBF1F2521CC2F30B025C
:10273000042A01D2042026E0B0FBF1F0401CC0F3D3
:102740000B0020E0A268002A50D001EBC10303EB8C
:102750000113A0F1010CBCFBF3F35B1C43F48043B9
:102760001B051B0D4AD0002A4AD001EBC10202EB27
:102770000111401EB0FBF1F0401CC0F30B0040F40F
:10278000804040F400402168CA6922F0FF0222F430
:102790004F421043C861216AE06901432068026822
:1027A00022F0C00211430160E16820690143206802
:1027B000826822F0FF0222F4034211438160A16982
:1027C000606901432068C26822F0FF021143C160C2
:1027D0002068016841F0010101602564202084F82F
:1027E0003D00256384F83E50002070BD01EB41039D
:1027F000A0F1010CBCFBF3F35B1CB1E70120C2E7C5
:1028000001EB4101401EB0FBF1F0401CC0F30B0096
:10281000B7E70000A086010080841E0000093D008B
:1028200040420F00F0B587B0044614216846FDF71A
:1028300011FF1B49206888422FD11A48016841F0D6
:1028400004010160016801F004010591016841F093
:10285000010101600068042400F0010005904FF4BC
:10286000007012250126032704948DE8E1006946D3
:102870000D48FFF7EFFDA00104948DE8E1006946E3
:102880000A48FFF7E7FD07481030016841F40001EE
:102890000160006800F40000059007B0F0BD000082
:1028A000005C004030380240000802400000024056
:1028B00002488168027811448160704784000020DA
:1028C00010B50B48016841F400710160016841F4E2
:1028D00080610160016841F480710160032000F0B3
:1028E00089F80F2000F006F800F026F8002010BD4F
:1028F000003C024070B504460D4D4FF47A712878C3
:10290000B1FBF0F00B490968B1FBF0F000F0A6FC58
:1029100008B1012070BD102C07D200222146501EA4
:1029200000F034F86C60002070BD012070BD000024
:1029300084000020200000200C4882B0016841F48F
:1029400080410160006800F4804000900748001F4B
:10295000016841F0805101600068002200F0805061
:1029600000900F21901E02B000F010B844380240D1
:1029700000280ADB00F01F01012202FA01F14009E0
:10298000800000F1E020C0F80011704710B4184B2F
:102990001B68C3F30223C3F1070CBCF1040F01D978
:1029A0004FF0040C1C1D072C01D2002300E0DB1E9D
:1029B000012404FA0CFCACF1010C0CEA0101994071
:1029C00004FA03F35B1E1A401143002806DB00F1F2
:1029D000E020090180F8001410BC704700F00F00DF
:1029E00000F1E020090180F8141D10BC70470000C0
:1029F0000CED00E000F00700064A11684FF6FF03F7
:102A0000194041EA002040F0FD7040F08060106005
:102A1000704700000CED00E02DE9F04704460D463C
:102A2000002C13D0DFF85091D9F80000EFB200F07D
:102A30000F00A8420DD289F80070D9F8000000F00C
:102A40000F00A84205D00120BDE8F0870120BDE8B5
:102A5000F0872068494E10F0020F14D010F0040FD8
:102A600003D0306840F4E0503060207810F0080F58
:102A700003D0306840F4604030603068A16820F0D6
:102A8000F00008433060207810F0010F3ED06068FD
:102A90003B49012808D002280DD003280BD0096833
:102AA00011F0020F28D00AE0096811F4003F06D1A6
:102AB0000120BDE8F087096811F0007F19D0316866
:102AC00021F0030108433060FFF7DAFD80463068EB
:102AD000616800F00C00B0EB810F17D041F2883A2A
:102AE000FFF7CEFDA0EB0800504508D90320BDE854
:102AF000F0870120BDE8F0870120BDE8F08730684D
:102B0000616800F00C00B0EB810FE9D1D9F800004A
:102B100000F00F00A8420AD989F80070D9F8000027
:102B200000F00F00A84202D00120BDE8F087207815
:102B300010F0040F05D03068E16820F4E05008433D
:102B40003060207810F0080F06D03068216920F43A
:102B5000604040EAC100306000F03EF83168094A48
:102B6000C1F30311515CC840074908600F20FFF70B
:102B7000C1FE0020BDE8F087003C0240083802405A
:102B800000380240206E0008200000200148006844
:102B9000704700002000002000B5FFF7F7FF044950
:102BA0000968044AC1F38221515CC84000BD00009D
:102BB00008380240306E000800B5FFF7E7FF04490F
:102BC0000968044AC1F34231515CC84000BD0000AD
:102BD00008380240306E000810B51748006810F041
:102BE0000C01164816D0164B042912D0082911D111
:102BF000144C216801F03F02216811F4800F0AD0C3
:102C00002068C0F38810A0FB03010023FDF799FBA7
:102C100009E0184610BD21680023C1F38811A1FB0B
:102C20000001FDF78EFB2168C1F30141491C4900F9
:102C3000B0FBF1F010BD0000083802400024F400A1
:102C4000001BB700043802402DE9F84F0446002C61
:102C500010D02078FA4D10F0010F64D0F9480168C7
:102C600001F00C0104290DD0006800F00C000828C8
:102C700003D011E00120BDE8F88FF348006810F49C
:102C8000800F09D0286810F4003F4CD060680028FD
:102C900049D10120BDE8F88F6068B0F5803F14D0BD
:102CA000B0F5A02F16D0286820F48030286028685E
:102CB00020F480202860606810B3FFF7E1FC06462E
:102CC000286810F4003F0ED02DE0286840F48030D2
:102CD0002860F0E7286840F480202860286840F4E5
:102CE00080302860E7E7FFF7CBFC801B642802D91F
:102CF0000320BDE8F88F286810F4003FF3D012E0FD
:102D0000FFF7BEFC0646286810F4003F0BD0FFF723
:102D1000B7FC801B642802D90320BDE8F88F28681F
:102D200010F4003FF3D12078C84F10F0020F4FF09D
:102D3000000856D0C348016811F00C0F15D0006888
:102D400000F00C00082804D1BF48006810F4800F80
:102D50000BD0E06878B301203860FFF791FC06469D
:102D6000286810F0020F12D01DE0286810F0020F42
:102D700005D0E068012802D00120BDE8F88F28685E
:102D8000216920F0F80040EAC100286029E0FFF73F
:102D900077FC801B022802D90320BDE8F88F286841
:102DA00010F0020FF3D02868216920F0F80040EA03
:102DB000C100286015E0FFE7C7F80080FFF760FC5E
:102DC0000646286810F0020F0BD0FFF759FC801B55
:102DD000022802D90320BDE8F88F286810F0020FFE
:102DE000F3D1207810F0080F33D09948DFF86492BF
:102DF0006169B9B101210160FFF742FC0646D9F8CB
:102E0000000010F0020F24D1FFF73AFC801B0228CB
:102E100002D90320BDE8F88FD9F8000010F0020FA6
:102E2000F2D016E0C0F80080FFF72AFC0646D9F879
:102E3000000010F0020F0CD0FFF722FC801B0228CC
:102E400002D90320BDE8F88FD9F8000010F0020F76
:102E5000F2D1207810F0040F73D04FF00009DFF8A2
:102E6000F8A1DAF8000010F0805F0CD1DAF8000069
:102E700040F08050CAF80000DAF8000000F08050FE
:102E800000904FF00109DFF8D4B1DBF8000010F436
:102E9000807F1AD1DBF8000040F48070CBF800008E
:102EA000FFF7EEFB0646DBF8000010F4807F0CD144
:102EB000FFF7E6FB801B022802D90320BDE8F88F4C
:102EC000DBF8000010F4807FF2D0A068DFF890B14A
:102ED000012818D005281DD0DBF8000020F00100E3
:102EE000CBF80000DBF8000020F00400CBF8000075
:102EF000A06838B3FFF7C4FB0646DBF8000010F00B
:102F0000020F14D03CE0DBF8000040F00100CBF8E9
:102F10000000EDE7DBF8000040F00400CBF8000013
:102F2000DBF8000040F00100CBF80000E0E7FFF71D
:102F3000A7FB811B41F28830814204D90320BDE800
:102F4000F88F26E005E0DBF8000010F0020FEED06D
:102F500016E0FFF795FB0646DBF8000010F0020FC5
:102F60000ED0FFF78DFB811B41F28830814202D9E0
:102F70000320BDE8F88FDBF8000010F0020FF0D15D
:102F8000B9F1010F05D1DAF8000020F08050CAF83D
:102F90000000A069E8B32B49096801F00C01082979
:102FA0006BD0022810D0C7F86080FFF769FB044699
:102FB000286810F0007F5ED0FFF762FB001B02283C
:102FC00055D90320BDE8F88FC7F86080FFF758FB9C
:102FD0000646286810F0007F0BD0FFF751FB801BDE
:102FE000022802D90320BDE8F88F286810F0007F7E
:102FF000F3D1216AE069A26A0843616A4FF0FF33A6
:10300000890103EB520241EA0241084394F82C1073
:1030100000E030E040EA01610B48016001203866C1
:10302000FFF72EFB0446286810F0007F23D1FFF73E
:1030300027FB001B022815D90320BDE8F88F1CE0F0
:10304000003802400838024004380240000047427D
:10305000800E474274380240403802400070004001
:1030600070380240286810F0007FE0D003E0286844
:1030700010F0007FA0D10020DFE70120DDE770B570
:103080000446002C03D06079002510B105E0012032
:1030900070BD2571204600F00DF802206071206897
:1030A000016841F00401016001206071A560002009
:1030B00070BD000008B500680649884208D106487E
:1030C000016841F040010160006800F0400000909C
:1030D00008BD0000000806503438024070B50446B0
:1030E000002C05D00025A56294F8510010B106E02F
:1030F000012070BD84F85050204600F031F80220C5
:1031000084F851002068016821F040010160A16845
:10311000606822690843E168114308436169084314
:10312000218B01F400710843E1690843216A0843D7
:10313000A16A084321680860A069042101EA1040DF
:10314000616A0843216848602068C16921F4006110
:10315000C1616565012084F85100002070BD000048
:103160002DE9F04387B0044614216846FDF772FA52
:1031700034492068884261D133480025016841F410
:1031800080510160006800F4805005902E4814388A
:10319000016841F002010160016801F0020105913E
:1031A000016841F0010101600068022600F00100A1
:1031B0000590182001274FF003084FF005098DE80E
:1031C000C10369462148FFF745F980208DE8C10316
:1031D00069461F48FFF73EF91F4E1E484FF0C06773
:1031E0003060C6E901754FF48068C6E9035875611F
:1031F0007812B561C6E9075030467562FFF7A6F848
:1032000008B1FEF7D3FAE664B463134E1148603692
:103210001830E6E802074020A6E82101C00246F87F
:103220001459B561C6E907500B4875626030FFF765
:103230008DF808B1FEF7BAFAA664B46307B0BDE82A
:10324000F083000000300140443802400004024096
:103250000000024040640240B8080020401EB0F167
:10326000807F01D3012070474FF0E0214861044A7C
:10327000F02010700020886107200861002070474E
:1032800023ED00E090F83C20012A2CD0012280F8A8
:103290003C20CA680023D1F808C022F4407242EAF8
:1032A0000C02D1F804C022F4806242EA0C02D1F888
:1032B00000C022F4006242EA0C02D1F810C022F4ED
:1032C000805242EA0C02D1F814C022F4005242EAC1
:1032D0000C02C96922F4804211430268516480F8EB
:1032E0003C30002070470220704730B490F83C20FA
:1032F000012A1ED0012480F83C40022280F83D20A3
:103300000268D2F804C093682CF0700C0D6845EA8E
:103310000C0C23F0800349681943C2F804C002680A
:10332000916080F83D40002180F83C1030BC0020C6
:10333000704730BC0220704710B50446002C03D003
:1033400094F83D0010B107E0012010BD002084F882
:103350003C00204600F00CF8022084F83D00211DBE
:10336000206800F03FFF012084F83D00002010BDE0
:1033700008B500680C49884208D10C48016841F042
:1033800008010160006800F008000BE0084988426D
:1033900009D10648001D016841F400310160006850
:1033A00000F40030009008BD000C0040403802409E
:1033B00000440140022180F83D1001688A6802F053
:1033C0000702062A03D00A6842F001020A600121BE
:1033D00080F83D100020704770B5044694F83C001A
:1033E000012818D0012584F83C50022084F83D00C3
:1033F0002068826822F0770222F47F4282600868A7
:10340000502832D00EDC20284DD006DC00284AD0CF
:1034100010284DD147E0022070BD302843D040280D
:1034200046D136E060282AD0702806D0B0F5805FFB
:103430003ED0B0F5005F3BD10BE0CB684A688968AD
:10344000206800F044FF2068816841F077018160C6
:103450002EE0CB684A688968206800F038FF206851
:10346000816841F48041816022E0CA68496820682F
:1034700001F01CF85021206800F034FF18E0CA6801
:103480004968206801F025F86021206800F02AFFD3
:103490000EE0CA684968206801F008F840212068F9
:1034A00000F020FF04E022680146104600F01AFFF9
:1034B00084F83D50002084F83C0070BD30B587B0E2
:1034C000044614216846FDF7C5F82F4D20680024F6
:1034D0002E4902220123A84213D1086840F01000AF
:1034E00008600868694600F0100005904FF42060FD
:1034F0008DE81500CDE903432548FEF7ABFF07B083
:1035000030BD244CA0421FD1086840F08000086004
:103510000868694600F0800005904FF4E0508DE89F
:103520000D0003921C480492FEF794FF1B48FFF71E
:1035300041FF0021194800F0D5F80421174800F098
:10354000D1F8082115481BE0154CA042D7D10868D6
:1035500040F0200008600868694600F020000590EF
:1035600040208DE80D000320CDE903200D48FEF733
:1035700071FF0A484030FFF71DFF08480021403026
:1035800000F0B0F8BBE70000000001403038024016
:1035900000100240000C0040001C0240B80900204E
:1035A000004401400014024070B504460D4694F8F2
:1035B0003C0001280DD0012684F83C60022084F8EC
:1035C0003D0042B1042A1AD0082A2DD00C2A53D12A
:1035D0003EE0022070BD2946206800F08BFE206886
:1035E000816941F0080181612068816921F004014D
:1035F0008161206881692A69114381613CE0294623
:10360000206800F0AFFE2068816941F400618161AB
:103610002068816921F480618161206881692A695B
:1036200041EA0221816127E02946206800F0D6FEA8
:103630002068C16941F00801C1612068C16921F0B9
:103640000401C1612068C1692A691143C16113E0A5
:103650002946206800F0FEFE2068C16941F400613F
:10366000C1612068C16921F48061C1612068C169BC
:103670002A6941EA0221C16184F83D60002084F892
:103680003C0070BD10B50446002C03D094F83D00FA
:1036900010B107E0012010BD002084F83C00204656
:1036A00000F00CF8022084F83D00211D206800F095
:1036B00099FD012084F83D00002010BD08B5006888
:1036C0000649884208D10648016841F001010160BD
:1036D000006800F00100009008BD000000000140FB
:1036E0004438024010B504460122206800F0E0FD95
:1036F0002168A1F18040B0F5803004D0A1F1804074
:10370000B0F5823003D1486C40F400404864206832
:10371000816801F00701062903D0016841F0010129
:103720000160002010BD70B50446002C04D094F850
:103730003900002510B106E0012070BD84F8385032
:10374000204600F023F8242084F839002068C1685E
:1037500021F40051C160204600F0CEFE20680169CE
:1037600021F4904101612068416921F02A01416101
:103770002068C16841F40051C160E563202084F8ED
:10378000390084F83A00002070BD00002DE9F04FA8
:1037900087B0054614216846FCF75CFFDFF834C1AA
:1037A000296800264C4802240123032707224FF0F2
:1037B000006A4FF4806B614548D147491431D1F814
:1037C00000C04CF0100CC1F800C0096801F01001F5
:1037D0000591016841F002010160016801F00201F8
:1037E0000591016841F0010101600068984600F010
:1037F0000100059080208DE81101CDE9037291460A
:1038000069463648FEF726FE20028DE81101CDE913
:10381000037969463248FEF71DFE334C3148E4E82F
:10382000020A4020A4E84108800244F81469A66115
:10383000C4E907602C486662FEF788FD08B1FDF711
:10384000B5FF2C63A56307B0BDE8F08FDFF89CC01F
:103850006145F8D120491031D1F800C04CF4802CDA
:10386000C1F800C0096801F480210591016841F0A8
:10387000040101600068029300F0040005904FF419
:103880004060CDE90004CDE9037269461848FEF7AF
:10389000E1FD154C174860342060C4E901A6C4E975
:1038A000036B66614FF40030A661C4E907602046EF
:1038B0006662FEF74BFD08B1FDF778FF6C630022EE
:1038C00004212720A563FFF761F82720FFF750F8B0
:1038D000B9E7000000100140303802400004024007
:1038E00000000240B8640240B80A002000480040CE
:1038F0000008024028600240FEE700000F4810B5B3
:103900000D4901600321416000214FF410228160C4
:10391000C0E903124FF400124261017641768176CC
:10392000C17601774177FEF73CFA002803D0BDE865
:103930001040FDF73BBF10BD00640040AC07002005
:103940000F4810B50D4901600321416000214FF47B
:1039500010228160C0E903124FF400124261017627
:1039600041768176C17601774177FEF71AFA002811
:1039700003D0BDE81040FDF719BF10BD006800403E
:10398000D4070020194808B5016841F4800101609E
:10399000016801F480010091016841F400110160A7
:1039A0000068002200F40010009005210C20FEF7B2
:1039B000EDFF0C20FEF7DCFF002205213A20FEF788
:1039C000E5FF3A20FEF7D4FF002205213B20FEF759
:1039D000DDFF3B20FEF7CCFF002205214620FEF74D
:1039E000D5FFBDE808404620FEF7C2BF3038024090
:1039F00010B5AAB01C2221496846FCF7F1FD002150
:103A0000684601F0D5FA1E4C1C491C2220601C316E
:103A100007A8FCF7E5FD002107A801F0C9FA17493E
:103A200060601C2238310EA8FCF7DAFD00210EA8D8
:103A300001F0BEFA1149A0601C22543115A8FCF710
:103A4000CFFD002115A801F0B3FA0C49E0601C225B
:103A500070311CA8FCF7C4FD00211CA801F0A8FAD5
:103A6000064920611C228C3123A8FCF7B9FD0021F6
:103A700023A801F09DFA60612AB010BD786D00089E
:103A8000000000202DE9F04786B014216846FCF7BD
:103A9000E1FD5B48016841F002010160016801F04D
:103AA00002010591016841F001010160016801F026
:103AB00001010591016841F008010160016801F010
:103AC00008010591016841F004010160016801F0FD
:103AD00004010591016841F080010160016801F075
:103AE00080010591016841F040010160016801F029
:103AF00040010591016841F020010160016801F079
:103B000020010591016841F01001016000683D4D00
:103B100000F010000590012240212846FEF7A8FD84
:103B2000DFF8E480012210214046FEF7A1FDDFF816
:103B3000DC904FF4C047012239464846FEF798FD15
:103B4000DFF8CCA0012211465046FEF791FD01247A
:103B50004020CDE900040294694628460394FEF70C
:103B600079FC2C4E0920CDE90006694602942846CE
:103B7000FEF770FC1020CDE900040225694640469E
:103B8000CDE90245FEF766FC3020CDE90006694626
:103B900002942148FEF75EFCCDE900746946484670
:103BA000CDE90245FEF756FC009469465046019463
:103BB000CDE90245FEF74EFC062100220846FEF73D
:103BC000E5FE0620FEF7D4FE002205210920FEF7BF
:103BD000DDFE0920FEF7CCFE002205210A20FEF7BB
:103BE000D5FE0A20FEF7C4FE002205211720FEF7AD
:103BF000CDFE1720FEF7BCFE06B0BDE8F087000042
:103C0000303802400018024000000240001002401C
:103C10000004024000002110000802400D4810B5C9
:103C20000B4901600C49416000214FF480428160E2
:103C3000C0E9031241618161C1610162FEF726FDA5
:103C4000002803D0BDE81040FDF7B0BD10BD000056
:103C5000005C0040FC070020801A0600074910B5F0
:103C6000054808600846FFF70AFA002803D0BDE8B7
:103C70001040FDF79BBD10BD000806505008002005
:103C8000104810B50E4901604FF482714160002167
:103C900002228160C0E90312012242615202826164
:103CA0003822C0E90721416281620A21C162FFF71F
:103CB00015FA002803D0BDE81040FDF777BD10BD10
:103CC000003001406008002010B588B01C21684613
:103CD000FCF7C0FC144813490024C0E9001441F269
:103CE0008731C0E9024104618461FFF725FB08B117
:103CF000FDF75CFD0C48FFF7C5FC08B1FDF756FD6C
:103D00006020CDE90004029400226946064804942C
:103D1000FFF74AFC08B1FDF749FD0348FFF7CEFB6A
:103D200008B010BD00440140F809002010B592B061
:103D300000240F941C2168461094FCF78BFC202172
:103D400007A8FCF787FC254823490160A721C0E9A3
:103D5000011444F61F61C0E9031444618461FFF754
:103D600091FC08B1FDF722FD0F940FA91B48109498
:103D7000FFF7BBFA08B1FDF719FD6020009040F293
:103D8000DC50CDE9010403940494059400226946B3
:103D900012480694FFF708FC08B1FDF707FD04225E
:103DA00069460E48FFF700FC08B1FDF7FFFC0794D9
:103DB000089409944FF400500A94CDE90B4007A9E8
:103DC00006480E94FFF75EFA08B1FDF7EFFC0348D2
:103DD000FFF774FB12B010BD00000140780900200D
:103DE00010B58EB000240794089409940A940B949B
:103DF0001C2168460C94FCF72DFC26482449C0E998
:103E000000144FF6FF71C0E9024104618461FFF7BD
:103E100093FA08B1FDF7CAFC4FF48050079007A948
:103E20001C48FFF7D9FA08B1FDF7C0FC1948FFF7A5
:103E300029FC08B1FDF7BAFC0B940BA915480C94AA
:103E4000FFF753FA08B1FDF7B1FC6020CDE900049B
:103E50000294002269460F480494FFF7A5FB08B1BD
:103E6000FDF7A4FC042269460A48FFF79DFB08B150
:103E7000FDF79CFC082269460648FFF795FB08B150
:103E8000FDF794FC0348FFF719FB0EB010BD0000CE
:103E9000000C0040B80900200C4810B50A49016028
:103EA0004FF4E1314160002181600C22C160C0E922
:103EB00004128161C161FFF736FC002803D0BDE820
:103EC0001040FDF773BC10BD00100140380A0020FF
:103ED0000C4810B50A4901600B494160002181601E
:103EE0000C22C160C0E904128161C161FFF71BFCB3
:103EF000002803D0BDE81040FDF758BC10BD0000FD
:103F000000480040780A0020A0860100FEE77047C4
:103F1000A0B1D0ED101AC0ED111A90ED0F1A80ED7E
:103F2000101AC0ED060A80ED070A30EEC00A80EDD7
:103F30000F0A017829B101293BD078E09FED3D0AB5
:103F40007047D0ED010A60EE801AC0ED091AD0ED7D
:103F50000A0A90ED022A42EE000A30EE410AC0ED54
:103F60000A0A90ED0D2A80ED0E2A90ED0C2A80EDC4
:103F70000D2A80ED0C0A90ED031A21EE001A80ED57
:103F80000B1A90ED050AF4EEC00AF1EE10FA09DC06
:103F9000B1EE400AF4EEC00AF1EE10FA02D390ED51
:103FA0000A0A01E080ED0A0A31EE800A30EE010AC9
:103FB0002BE070EE410A90ED012A60EE820AC0ED1E
:103FC000090A90ED022A22EE002A80ED0A2AD0ED9D
:103FD0000D2A70EE820AC0ED0E2AD0ED0C2AC0ED3B
:103FE0000D2AF0EE002A01EE620A30EE210A80ED81
:103FF0000C0A90ED031A21EE000A80ED0B0A30EE58
:10400000800AD0ED080A30EE200A80ED080AD0EDD3
:10401000040AB4EEE00AF1EE10FA06DCF1EE600AF2
:10402000B4EEE00AF1EE10FA01D2C0ED080A90ED0C
:10403000080A704700000000002828D0002A26D077
:10404000017092ED001A80ED011A92ED011A80EDD7
:10405000021A92ED021A80ED031A80ED040A9FED18
:104060000C0AC0ED050A80ED0E0A80ED0D0A80ED08
:104070000C0A80ED080A80ED0B0A80ED0A0A80ED3B
:10408000090A80ED110A80ED100A80ED0F0A7047D1
:104090000000000030B5144C23685D6945F0400510
:1040A0005D612368DC6844F01004DC600F4C236819
:1040B0001D6825F001051D6023681D68ED07F7D117
:1040C00025680B4BAB602368D860206801612068CD
:1040D00042602068016841F4802101602068016825
:1040E00041F00101016030BD780A0020180B00206A
:1040F0000448004010B5FEF7DBFB02F0CFFB0128BF
:1041000003D0BDE8104002F0C7B810BD30B593B081
:1041100030216846FCF79EFA14210CA8FCF79AFAA5
:1041200019480025016841F080510160006800F0E5
:10413000805011901548016841F480410160006889
:10414000022400F4804011900120009000040190AE
:104150008001CDE9064006200890A820CDE9090499
:1041600007200B906846FEF76FFD0CA90F2081E831
:1041700031004FF4A0500F90E002109005210CA8E0
:10418000FEF74AFC13B030BD4038024000700040DA
:104190001048016841F4700101600F48016841F066
:1041A000010101600C4A00210832116002680B4BCA
:1041B0001A400260031D0A4A1A60026822F4802233
:1041C000026005480C3001600249580680390860D9
:1041D0007047000088ED00E000380240FFFFF6FE67
:1041E00010300024F0B402682C4B2D4C2D4D2E4E77
:1041F000DFF8B8C098420AD0B0F1804F07D0A04293
:1042000005D0A84203D0B04201D0604503D122F0CE
:1042100070024F683A43984228D0B0F1804F25D0C1
:10422000A04223D0A84221D0B0421FD060451DD06B
:10423000A0F18044B4F5A03418D0A0F18044B4F5C6
:10424000A23413D0A0F18044B4F5A4340ED0A0F170
:104250008044B4F5C05409D0A0F18044B4F5E054D2
:1042600004D0A0F18044B4F5005403D122F440728C
:10427000CC6822434C6922F08002224302608A68A3
:10428000C2620A688262984201D0604501D1096920
:10429000016301214161F0BC704700000000014052
:1042A0000004004000080040000C004000040140F1
:1042B00001F01F0101238B40D0F820C02CEA03033A
:1042C0000362036A02FA01F1194301627047D0F8F0
:1042D00008C02CF47F4C42EA0322114341EA0C014E
:1042E00081607047826822F07002114341F007013B
:1042F0008160704770B4026A22F001020262036AB0
:104300004268D0F818C02CF0700C2CF0030C0C682C
:1043100044EA0C0C23F002038C6823430F4C104D2D
:10432000A04201D0A84205D123F00803CE68334350
:1043300023F00403A04201D0A84207D122F48072E6
:1043400022F400724C6922438C6922434260C0F817
:1043500018C049684163036270BC704700000140A7
:104360000004014070B4026A22F010020262036A83
:104370004268D0F818C02CF4E04C2CF4407C0C6857
:104380004CEA042C23F020038C6843EA0413114CFC
:10439000114DA04201D0A84206D123F08003CE687F
:1043A00043EA061323F04003A04201D0A84209D1FA
:1043B00022F4806222F400624C6942EA84028C6931
:1043C00042EA84024260C0F818C04968816303620F
:1043D00070BC7047000001400004014070B4026AE4
:1043E00022F480720262036A4268D0F81CC02CF08A
:1043F000700C2CF0030C0C6844EA0C0C23F40073D2
:104400008C6843EA0423114C114DA04201D0A8420C
:1044100006D123F40063CE6843EA062323F48063C5
:10442000A04201D0A84209D122F4805222F40052C5
:104430004C6942EA04128C6942EA04124260C0F8F4
:104440001CC04968C163036270BC70470000014032
:104450000004014010B4026A22F480520262D0F8D3
:1044600020C04268C36923F4E04323F440730C681E
:1044700043EA04232CF4005C8C684CEA043CA0F171
:104480008044B4F5803404D0A0F18044B4F5823483
:1044900004D122F480424C6942EA84124260C36132
:1044A00049680164C0F820C010BC7047036AD0F8A6
:1044B00020C02CF0010CC0F820C0D0F818C02CF09F
:1044C000F00C4CEA021223F00A03194382610162E4
:1044D0007047036A23F010030362D0F818C0036A20
:1044E0002CF4704C4CEA023223F0A00343EA011191
:1044F00082610162704700002DE9F04104462068A6
:104500000169E26821F44051114301612169A06809
:10451000E26908436169114301432068C26822F4DB
:10452000037222F414421143C16020684169A269F8
:1045300021F4407111434161E069BC4ABC49BD4D61
:104540003226B0F5004F5ED02068884202D09042FB
:1045500040F01281FEF730FB00EBC00101EB0010D0
:1045600061688900B0FBF1F7FEF726FB00EBC001A4
:1045700001EB001061688900B0FBF1F0A5FB0010B1
:1045800040096FF01801484307EB800006EB00106C
:10459000A5FB0010400900F0F007FEF70DFB00EB53
:1045A000C00101EB001061688900B0FBF1F0A5FBD0
:1045B0000010400907EB0017FEF7FEFA00EBC00100
:1045C00001EB001061688900B0FBF1F8FEF7F4FA26
:1045D00000EBC00101EB001061688900B0FBF1F055
:1045E000A5FB001040096FF01801484308EB80005C
:1045F00006EB0010A5FB00102168C0F343103844FF
:104600008860BDE8F0812068884201D0904259D18D
:10461000FEF7D2FA00EBC00101EB0010616849001F
:10462000B0FBF1F0A5FB001040090701FEF7C4FA4A
:1046300000EBC00101EB001061684900B0FBF1F82C
:10464000FEF7BAFA00EBC00101EB00106168490007
:10465000B0FBF1F0A5FB001040096FF018014843D2
:1046600008EB800006EBC000A5FB0010400900F03D
:10467000F80007EB4007FEF79FFA00EBC00101EBE3
:10468000001061684900B0FBF1F8FEF795FA00EB05
:10469000C00101EB001061684900B0FBF1F0A5FB1F
:1046A000001040096FF01801484308EB800006EB4A
:1046B000C000A5FB00102168C0F342103844886098
:1046C000BDE8F081FEF768FA00EBC00101EB0010D5
:1046D00061684900B0FBF1F0A5FB0010400907013B
:1046E000FEF75AFA00EBC00101EB001061684900C7
:1046F000B0FBF1F8FEF750FA00EBC00101EB00103F
:1047000061684900B0FBF1F0A5FB001040096FF0B3
:104710001801484308EB800006EBC000A5FB001021
:10472000400900F0F80007EB4007FEF735FA00EB10
:10473000C00101EB001061684900B0FBF1F8FEF721
:104740002BFA00EBC00101EB001061684900B0FBDF
:10475000F1F0A5FB001040096FF01801484308EB89
:10476000800006EBC000A5FB00102168C0F34210DA
:1047700038448860BDE8F081FEF70EFA00EBC00116
:1047800001EB001061688900B0FBF1F7FEF704FA55
:1047900000EBC00101EB001061688900B0FBF1F093
:1047A000A5FB001040096FF01801484307EB80009B
:1047B00006EB0010A5FB0010400900F0F007FEF723
:1047C000EBF900EBC00101EB001061688900B0FB60
:1047D000F1F0A5FB0010400907EB0017FEF7DCF92C
:1047E00000EBC00101EB001061688900B0FBF1F83B
:1047F000FEF7D2F900EBC00101EB001061688900FF
:10480000B0FBF1F0A5FB001040096FF01801484320
:1048100008EB800006EB0010A5FB00102168C0F338
:10482000431038448860BDE8F08100000014014066
:10483000001001401F85EB51234818B4006801683F
:10484000890604D501684068009018BC70471F496C
:104850000968C906F9D5016840681D4A00901068CA
:1048600001681C4C090301684FF0240321F0010189
:10487000016011684868C0F1240080B220804B605C
:104880000FD411680B6843F400230B6011680A68A9
:1048900042F001020A601228D7D10F4901F1170036
:1048A0000EE00E498B6A23F400238B6211680A68BC
:1048B00042F001020A601228C7D1074901F13B000A
:1048C00018BC01F07DB90000780A002000480040C3
:1048D000180B0020800000202C0C002000600240FB
:1048E000FEE703B401984100009850EAC12018BFC8
:1048F00004204A0D18BF40F0010040F2FF72B2EBF5
:10490000515F08BF40F00200012808BF052002B037
:10491000704730380A2801D20120704700207047C4
:104920007047000010B50C4C010EC0F30742217017
:1049300012FB01F26280C0F3072313FB01F3A38093
:10494000C0B210FB01F00549E0800C6860630868A4
:1049500083630868C26310BD2C000020B8090020E2
:10496000D0ED000AF4EEC00AF1EE10FA06DCB1EE6A
:10497000400AF4EEC00AF1EE10FA01D280ED000A0E
:104980007047000000B58BB000200121CDE9060181
:104990000891009001900290039005900490694660
:1049A0000C48FCF799FF0B48FDF7A1FB02210948D1
:1049B000FCF7FDFE0E200990059069460648FCF7BD
:1049C0008BFF0548FDF793FB02210348FCF7EFFE40
:1049D0000BB000BDAC070020D40700202DE9F04F3C
:1049E0002DED068B8BB0B0EE428AF0EE618AB0EE10
:1049F000419AF0EE609AB0EE40AA12EE900A02F0F0
:104A000043F906460F4618EE100A02F03DF9044637
:104A10000D4618EE900A02F037F9CDE9000119EEC3
:104A2000100A02F031F982468B4619EE900A02F024
:104A30002BF9804689461AEE100A02F025F941EC5E
:104A4000100B06A853EC102B80E8F000DDE9000104
:104A5000CDE904018DE8000F03A0FBF7E9FC0BB0E2
:104A6000BDEC068BBDE8F08F7B706C6F7474657263
:104A70007D252E34662C20252E34662C20252E34C0
:104A8000662C20252E34662C20252E34662C2025DD
:104A90002E34660A00000000064807490068B0FB93
:104AA000F1F206490A704FF47A72B0FBF2F04860F6
:104AB000704700002000002040420F00240000202A
:104AC00003490A685206FCD5C2B24A60704700002A
:104AD0000010014070B504462DED028B00799FED6A
:104AE000358A012803D0022801D0E0B14EE000252C
:104AF00005EB850004EB800605EBC50086ED058A15
:104B000004EBC000F0EE480A96ED040A8030FFF78F
:104B1000FFF9BDEEC00A6D1CEDB210EE100A062DB5
:104B20003083E5D332E09FED240A0020F1EE400A05
:104B300000EB800104EB8101401CC0B2C1ED050A0D
:104B40000328F5D3032000EB800104EB8101401C16
:104B5000C0B281ED050A0628F5D3002505EB8500D6
:104B600004EB800605EBC50004EBC000D6ED050A9A
:104B700096ED040A8030FFF7CBF9BDEEC00A6D1C3C
:104B8000EDB210EE100A062D3083E7D334F9402F32
:104B900034F9141C34F9280CFCF72AFDB4F93C2034
:104BA000B4F92810B4F91400BDEC028BBDE87040D4
:104BB000FCF742BD0000000000409C45002811D0D9
:104BC000002101EB810200EB8202491C9368C9B20B
:104BD0000629B3F9023000EE103AB8EEC00A82EDB1
:104BE000040AEED37047000010B504002DED028BCF
:104BF00074D00120207100F00DF9206040F20121F5
:104C0000012000F0C7F89FED378ADFED378AA060FA
:104C1000F0EE480AB0EE680A344A002104F1800040
:104C2000FFF70AFA40F20221012000F0B3F82F4A00
:104C3000E061F0EE480AB0EE680A0C32002104F19F
:104C4000C800FFF7F9F940F20321012000F0A2F8B3
:104C5000264A2063F0EE480AB0EE680A18320021B6
:104C600004F58870FFF7E8F940F20521012000F013
:104C700091F81E4A6064F0EE480AB0EE680A2432E9
:104C8000002104F5AC70FFF7D7F940F206210120AE
:104C900000F080F8154AA065F0EE480AB0EE680A08
:104CA0003032002104F5D070FFF7C6F940F2072139
:104CB000012000F06FF80D4AE066F0EE480AB0EE11
:104CC000680A3C32002104F5F470FFF7B5F9BDEC39
:104CD000028B2046BDE81040FFF770BFBDEC028B91
:104CE00010BD000000409C4500008046386E000862
:104CF00040F2651001F060F91A48FFF775FF1A4D90
:104D0000002418480168897A022904D0032904D0B4
:104D1000012905D005E0012100E00221017100E038
:104D200004711048FFF74AFF28880A280FD10D4860
:104D3000D0ED1D2A90ED182AD0ED131A90ED0E1A21
:104D4000D0ED090A90ED040AFFF748FE2C800548D3
:104D5000FFF7C0FE2888401C2880022001F02CF9B3
:104D6000CFE700008C0C0020820000200148007971
:104D7000704700008C0C0020028802810A8852BA19
:104D800002804A8852BA42808A8852BA82808979DF
:104D90008171704710B540F20522541C931C012804
:104DA00002D0022823D031E0A1F5007001380BD0E9
:104DB000A1F5007002380AD0A1F50070033809D0BF
:104DC00091420AD1124810BD1148243810BD104834
:104DD000183810BD0E480C3810BDA14202D10C4845
:104DE0000C3010BD994211D10948183010BD9942BC
:104DF00002D10748243010BD914202D1044830301E
:104E000010BDA142FCD102483C3010BD002010BDB5
:104E1000E40B0020004870472C0C0020012000F01B
:104E2000BAF8FBE72DED0A8B424F9FED43AA4FF4F2
:104E30007A76002457F82400050E00EE105AC0F3CD
:104E40000743C0F30722F8EE409A00EE103AC1B2D1
:104E500007EB8400B8EE409A00EE102A4068F8EEA6
:104E6000408A00EE101A4FEA106CB8EE408A00EE4D
:104E700010CAF8EE400A00EE105AC0F30745B8EE2B
:104E8000400A70EEC01A00EE105A0025F8EE400AF3
:104E900000EE103AC0F30723C0B2B8EE400AC1EEEC
:104EA0008AAA30EEC01A00EE103AF8EE400A00EE80
:104EB000102AB8EE400A81EE0ABA70EEC00A00EE7F
:104EC000100AB8EE402A00EE101AB8EE400A32EE90
:104ED000400AC0EE8ABA80EE0ACA79EEAA9A39EE82
:104EE0000B9A78EEAB8ABCEEE90A10EE100ABCEE23
:104EF000C90A010610EE100ABCEEE80A41EA0041B8
:104F000010EE100A38EE0C8A41EA0020BCEEC80A06
:104F100010EE101A0843FFF705FD012000F03BF8E2
:104F20006D1CADB2B542D8D3641CA4B2062C81D39B
:104F30007FE700003400002000007A44FDF7C0FC49
:104F4000FFF7E4F8FEF79EFDFEF71CFDFEF798FE66
:104F5000FEF746FFFEF762FEFEF7B6FEFEF7E6FE40
:104F6000FEF7CCFCFEF7ECFCFEF778FEFEF7B0FF98
:104F7000FEF792FFFFF790FD00F0D4FCFFF702FD73
:104F8000FEF736FD00F00FF8FEE70021842800D080
:104F9000C11C0846704710B5002800D1012001F05F
:104FA0000BF8002010BD10B501F074F8002010BD02
:104FB00030B585B004460D466169B4F90800002992
:104FC00010D0A16971B1FFF7E0FF6269A169019298
:104FD000029100902B4622692168606801F02EFC46
:104FE000049010E0FFF7D1FF04A901910090208AFE
:104FF0002B4682B22168606801F0EAFB012802D0EA
:1050000005B0002030BD049805B030BD2DE9F04159
:1050100004460F461B4E75693168002081F8520026
:105020003068001D00F08EFE48B93068012190F80C
:105030002C0001FA00F0B16921EA0000B061B4F17E
:10504000FF3F07D137B13068BDE8F041011D0E4880
:1050500000F0CBBE2C4430684460AC4206D23068CD
:10506000011DB068BDE8F04100F0A4BE3068011D2C
:10507000706800F09FFE306B844200D23463BDE85C
:10508000F0810000900000207C10002070B50446E4
:1050900000F0B8FE1C4D2869401C2861286810B13A
:1050A000E86938B10CE02C602869012808D100F0CB
:1050B0008BF905E02868E16AC06A884200D82C6054
:1050C000E86A401CE862E06A0121AA698140114354
:1050D000A9610E4900EB800001EB8000211D00F06A
:1050E00084FE00F0AFFEE86900280CD02868E16A71
:1050F000C06A884207D206494FF080500860BFF36B
:105100004F8FBFF36F8F70BD90000020A00F002065
:1051100004ED00E038B500F075FE0F4CA068B8B99A
:105120000E4800F039FE0E4800F036FE0B482060B5
:105130001430606000200B4B009003F148021021F6
:105140000A2001F0BFF8A06010B107A100F0FAFE3C
:10515000BDE8384000F076BECC0000209010002062
:10516000A4100020B8100020546D725100000000FF
:1051700070B50D4CE068002815D00C4E00F042FED2
:10518000F068C568281D00F0DDFD2069401E206123
:10519000E068401EE06000F055FE284600F051F83F
:1051A000E0680028EAD170BD90000020681000205F
:1051B0000B46026C002A0CD0C1681144C160D0F8C3
:1051C00004C0614501D30168C160C1681846FBF79E
:1051D000C2B970472DE9F041044616460027A56B79
:1051E000226C002A10D0C6B1E068FBF7B4F9E16880
:1051F000206C091AE1602268914202D26168081AA3
:10520000E060022E16D017E02068A8B9606801F0AF
:10521000C1FB0746002060600EE0A068FBF79BF929
:10522000216CA0680844A0606168884204D32068AB
:10523000A06001E005B16D1E681CA0633846BDE8A2
:10524000F08110B5044694F8511000290BD00129C3
:1052500011D0022914D0502080F31188BFF34F8F52
:10526000BFF36F8FFEE7206B00F002FE2046BDE823
:10527000104000F0FDBD2046BDE8104000F0F8BD34
:1052800010BD000007490A681168002904D00021F8
:10529000016019B1002070470121F9E7D06800686A
:1052A00070470000CC0000204FF4C041104810F0BF
:1052B000070F06D0C01D20F007000D49411AC1F5A7
:1052C000C0410C4A1060002353600144083921F0AA
:1052D0000701103A11604B600B600B1A43600160CC
:1052E0004068906050604FF00040D0607047000010
:1052F000A0110020F0000020074E4FF08054074D11
:10530000FFF736FF30680128FAD92C60BFF34F8FC2
:10531000BFF36F8FF4E70000A00F002004ED00E062
:1053200003460098002905D00260C363016401218F
:1053300001F000B80060F8E72DE9F05F82460B9FAE
:105340000A9D0C9C0E4690469B464FEA8801A5227A
:10535000206BFBF777F9206BA8F1010100EB8100CE
:1053600020F007094FF0000800202218315C82F875
:105370003410315C11B1401C1028F6D384F84380FE
:10538000072D00D30625E5626564C4F84880201D1A
:1053900000F00DFD04F1180000F009FD2461C5F1D5
:1053A0000700A0616462C4F84C8084F8508084F8DF
:1053B00052805A465146484600F09EFA2060002F1F
:1053C00000D03C60BDE8F09F70B500240F4D04EBA9
:1053D000840005EB800000F0DFFC641C072CF6D392
:1053E0000B4800F0D9FC0B4800F0D6FC0A4800F04E
:1053F000D3FC0A4800F0D0FC094800F0CDFC094875
:10540000034941601431816070BD0000A00F00208D
:105410002C100020401000205410002068100020A4
:105420007C1000209000002010B4144900E01146C8
:105430000A688242FBD34B6803EB010C844503D11D
:1054400040681844486008460C68D0F804C00CEB6B
:105450000003A3420CD10A4B1B689A4206D0526843
:10546000624442600A681268026002E0036000E081
:105470000260814200D0086010BC7047F00000203C
:10548000E000002010B5002441600061DFF838C062
:1054900091420BD8D11A8269914201D3012410E0C4
:1054A000011DDCF8040000F085FC0AE09A4203D2FA
:1054B000994201D3012404E0011DDCF8000000F052
:1054C00079FC204610BD0000CC00002010B5044639
:1054D00000F098FCA06B20B1002400F0B3FC204643
:1054E00010BD0124F9E710B5044600F08BFCA06B59
:1054F000E16B884201D1012400E0002400F0A2FC0D
:10550000204610BDF8B505460E4614480068C06830
:10551000C468201D00F016FCE069012810D1A069C4
:105520002B46411932462046FFF7ACFF40B1002020
:105530000346014600902A46204601F04FFB28B161
:10554000616A01B02046BDE8F0400847502080F372
:105550001188BFF34F8FBFF36F8FFEE7CC000020A1
:1055600030B587B0334D002202A9A86801F040F899
:1055700000285CD00298002803DA039A0599049861
:105580009047029800284BDB049C606910B1201DF5
:1055900000F0D8FB01A800F097F8024602980A280C
:1055A0003ED2DFE800F00505053D263705053D261E
:1055B0000398A169034601442046FFF763FF00B347
:1055C000616A20468847E069012829D100200090BF
:1055D0000398A169002342181946204601F0FEFAFB
:1055E00078B9502080F31188BFF34F8FBFF36F8FCE
:1055F000FEE70398A06128B1811813462046FFF703
:1056000041FF0DE0502080F31188BFF34F8FBFF3AF
:105610006F8FFEE794F8280010B9204600F028FCB0
:10562000002202A9A86800F0E3FF0028A2D107B079
:1056300030BD0000CC000020F8B505460C4600F057
:1056400071FD684600F040F80646009810B101F080
:105650002BFAF8BD44B9B54206D801F025FA314617
:105660002846FFF74FFFF8BD0C481CB14168096898
:1056700091B10024A91B2246806800F077FC01F05C
:1056800013FA0028EFD106494FF080500860BFF3AD
:105690004F8FBFF36F8FF8BD0124EBE7CC000020E4
:1056A00004ED00E0074948680068002805D0486814
:1056B000C068C0684068086370474FF0FF300863F7
:1056C000704700009000002070B5044601F0F4F827
:1056D0000546074E3069854204D200F00BF80120E0
:1056E000206001E0002020603561284670BD000088
:1056F000CC000020F8B51B4E30680068002824D08C
:1057000000273068C0680568C468201D00F01AFBD7
:10571000616A20468847E069012812D1A0692844BF
:10572000A84206D960602461211D306800F042FB68
:1057300007E000232A4619462046009701F04EFA5A
:1057400040B1306800680028DBD130687168316092
:105750007060F8BD502080F31188BFF34F8FBFF306
:105760006F8FFEE7CC0000200A484068B0F1FF3F91
:1057700007D0502080F31188BFF34F8FBFF36F8F96
:10578000FEE7502080F31188BFF34F8FBFF36F8F78
:10579000FEE70000F800002082B001A8FFF772FDCC
:1057A0000199FFF749FFFFF7DBFEF6E770B5044606
:1057B00000F028FB94F94550002D0CDD606A50B1D3
:1057C00004F1240001F034F908B100F025FC681E52
:1057D00045B2002DF2DC4FF0FF3684F8456000F052
:1057E00031FB00F00FFB94F94450002D0CDD2069D3
:1057F00050B104F1100001F01BF908B100F00CFCED
:10580000681E45B2002DF2DC84F84460BDE87040AB
:1058100000F018BB2DE9F0410546002600F082FC9F
:10582000334F386808B9FFF73FFDF86805424ED19D
:105830009DB1083515F0070F0FD005F00700C0F136
:105840000800054415F0070F07D0502080F3118899
:10585000BFF34F8FBFF36F8FFEE7002D37D078680F
:10586000854234D823490846046801E021460446AD
:105870006068A84202D220680028F7D138688442C4
:1058800025D0086800F10806206808606068411BA0
:1058900010290FD9601910F0070F07D0502080F39E
:1058A0001188BFF34F8FBFF36F8FFEE741606560D4
:1058B000FFF7BAFD61687868401A7860BA6890426C
:1058C00000D2B860F868084360600020206001F0F2
:1058D000EBF816F0070F07D0502080F31188BFF3C4
:1058E0004F8FBFF36F8FFEE73046BDE8F0810000B9
:1058F000E0000020F0000020001F4FF080730360E4
:10590000001F21F001010160001F054901601438EA
:105910000260001F6FF00201016020387047000034
:105920006957000802492422A1F12400FEF7B2BB06
:10593000670C002010B5040036D084ED040A30EE68
:10594000C00AC4ED030A04F12C0084ED050AD4ED6D
:10595000000A60EE800AC4ED0A0AD4ED0B0AD4ED09
:10596000011A41EE800AC4ED0B0A94ED020A20EE02
:10597000010A84ED0C0A94ED080AFEF7F1FF94ED9C
:105980000A0AD4ED0B0A04F1340030EE200AD4EDFB
:105990000C0A30EE200A84ED0D0A94ED070AFEF79A
:1059A000DFFF94ED0D0A10BD9FED010A10BD000050
:1059B0000000000010B50446407930B19FED2D0A7B
:1059C000012805D0032815D01AE00020A08349E063
:1059D000D4ED030A012180EE801AFDEEC10A10EE1B
:1059E000900A01FA80F000EE900AF8EEE00A20EE4C
:1059F000800A03E0D4ED040A30EE800A84ED040A44
:105A000004F10C0090EC030A1430FFF793FF84EDCF
:105A1000060A94ED051AF0EE400A04F15C00B0EEBF
:105A2000410AFEF775FABDEEC00A134910EE100ADE
:105A3000A0830420607194ED040AD4ED030A30EED3
:105A4000600AB0EEC00A10EE100A88420ADA94ED3D
:105A5000050A0A49B0EEC00A10EE100A884201DABF
:105A600005206071B4F91C100022BDE810401046FA
:105A7000FBF706BEDB0FC93FCDCCCC3D0AD7A33C1C
:105A8000002817D08168DFED0C0A0A88B1F90A30C6
:105A900002EB433200EE102AB8EEC00A20EE200AD4
:105AA00080ED030AB1F9021000EE101AB8EEC00A38
:105AB00080ED050A70470000DB0F493A70B505001C
:105AC00039D0002068712871FFF7A4F9286040F2EE
:105AD00006210220FFF75EF9DFED192ADFED160A35
