:020000040800F2
:10000000E0B30020E90200087F30000885290008DD
:100010007D30000815060008913A00080000000035
:10002000000000000000000000000000290200089D
:10003000D30700080000000085020008A532000870
:100040000303000803030008030300080303000878
:100050000303000803030008D50700080303000892
:1000600003030008DB070008E1070008030300089A
:10007000090700080303000803030008030300083E
:100080000303000803030008030300080303000838
:10009000190600080303000803030008E707000827
:1000A0000303000803030008030300080303000818
:1000B0000303000803030008030300080303000808
:1000C00003030008030300080303000803030008F8
:1000D000030300080303000803030008E9390008CC
:1000E00003030008030300080303000803030008D8
:1000F00003030008030300080303000803030008C8
:1001000003030008030300080303000803030008B7
:1001100003030008030300080303000803030008A7
:100120000303000803030008030300080303000897
:100130000303000803030008030300080303000887
:100140002506000803030008030300080303000852
:100150000303000803030008150700080303000851
:100160000303000803030008030300080303000857
:100170000303000803030008030300080000000055
:10018000030300080303000800F002F800F03CF845
:100190000AA090E8000C82448344AAF10107DA45E2
:1001A00001D100F031F8AFF2090EBAE80F0013F0F8
:1001B000010F18BFFB1A43F0010318475C6A0000E7
:1001C0007C6A0000103A24BF78C878C1FAD8520778
:1001D00024BF30C830C144BF04680C6070470000C1
:1001E0000023002400250026103A28BF78C1FBD840
:1001F000520728BF30C148BF0B6070471FB506F0DB
:1002000018FC1FBD10B510BD00F0D6F91146FFF760
:10021000F5FF04F0A1F900F0F4F903B4FFF7F2FFE1
:1002200003BC03F036FC00002C4B19680868B0E8EA
:10023000F04F80F30988BFF36F8F4FF0000080F319
:10024000118870470000000008480068006880F3CB
:1002500008884FF0000080F3148862B661B6BFF3DF
:100260004F8FBFF36F8F00DF00BF00BF08ED00E0CE
:10027000DFF80C00016841F470010160704700BFB5
:1002800088ED00E0EFF30980BFF36F8F134B1A681E
:100290001EF0100F08BF20ED108A20E9F04F10600B
:1002A00009B44FF0500080F31188BFF34F8FBFF3B4
:1002B0006F8F05F08DF94FF0000080F3118809BCB5
:1002C00019680868B0E8F04F1EF0100F08BFB0ECD6
:1002D000108A80F30988BFF36F8F7047A000002059
:1002E000EFF3058070470000094880470948004740
:1002F000FEE7FEE7FEE7FEE7FEE7FEE7FEE7FEE7D6
:10030000FEE7FEE704480549054A064B7047000032
:100310004133000889010008E0730020E0B30020A9
:10032000E0930020E0930020704753EA020C00F0B5
:1003300069802DE9F04B4FF00006002B1FBFB3FA88
:1003400083F503FA05F424FA05F65E4012BF16435E
:10035000B2FA82F502FA05F4C5F120051EBF22FAB1
:1003600005FC44EA0C04203556EA044C4FEA1444D8
:1003700018BF641C4FF000084FF00009904271EB69
:10038000030C39D3002919BFB1FA81F701FA07F636
:10039000B0FA80F700FA07F6C7F120071EBF20FA6F
:1003A00007FC46EA0C062037B6FBF4FCA7EB050772
:1003B000103F07F01F0BCBF120060CFA0BFB2CFAB9
:1003C00006F644BFB3460026202FA4BF5E464FF07A
:1003D000000B5BEA060C08BF4FF0010B19EB0B0991
:1003E000ABFB027C48EB0608C01B06FB02CC0BFBF8
:1003F00003CC71EB0C01C1E70B460246414648466F
:10040000BDE8F08B13B54FF000004FF00001AFF3E3
:100410000080BDE81C407047032A40F2308010F095
:10042000030C00F0158011F8013BBCF1020F62448F
:1004300098BF11F801CB00F8013B38BF11F8013B20
:10044000A2F1040298BF00F801CB38BF00F8013BCD
:1004500011F0030300F02580083AC0F0088051F83D
:10046000043B083A51F804CBA0E80810F5E7121D48
:100470005CBF51F8043B40F8043BAFF30080D20767
:1004800024BF11F8013B11F801CB48BF11F8012B33
:1004900024BF00F8013B00F801CB48BF00F8012B56
:1004A000704710B5203AC0F00B80B1E81850203AE0
:1004B000A0E81850B1E81850A0E81850BFF4F5AF04
:1004C0005FEA027C24BFB1E81850A0E8185044BF8E
:1004D00018C918C0BDE810405FEA827C24BF51F8FB
:1004E000043B40F8043B08BF7047D20728BF31F8EF
:1004F000023B48BF11F8012B28BF20F8023B48BF40
:1005000000F8012B704702F0FF0343EA032242EA9E
:10051000024200F02DB84FF0000200B51346944699
:100520009646203922BFA0E80C50A0E80C50B1F14B
:100530002001BFF4F7AF090728BFA0E80C5048BF5F
:100540000CC05DF804EB890028BF40F8042B08BFFD
:10055000704748BF20F8022B11F0804F18BF00F8F9
:10056000012B704770477047704770474FF000028B
:100570000429C0F0128010F0030C3FF4CEAFCCF190
:10058000040CBCF1020F18BF00F8012BA8BF20F823
:10059000022BA1EB0C01FFF7C0BF5FEAC17C24BFB7
:1005A00000F8012B00F8012B48BF00F8012B704721
:1005B00000487047807300207546FFF7F9FFAE468C
:1005C00005006946534620F00700854618B020B55F
:1005D000FFF798FEBDE820404FF000064FF00007FF
:1005E0004FF000084FF0000B21F00701AC46ACE8DB
:1005F000C009ACE8C009ACE8C009ACE8C0098D4648
:10060000704710B50446AFF300802046BDE81040A7
:10061000FFF703BEFEE70000014800F0C8BA000083
:10062000BC070020014800F0C2BA0000E407002027
:1006300038B50E4B40F2FF1408251C6000249C6066
:10064000C3E903450A4B050A1D705870080A9870E3
:10065000D970100A18715A719C71DC716B46044A8A
:100660000249044800F0D5F838BD0000F80B00201E
:1006700074000020E407002038B50E4B4FF40074DE
:1006800008251C6000249C60C3E903450A4B050A49
:100690001D705870080A9870D970100A18715A7134
:1006A0009C71DC716B46044A0249044800F0B1F8C1
:1006B00038BD0000C80B002064000020BC070020EB
:1006C00038B50E4B40F2FF1408251C6000249C60D6
:1006D000C3E903450A4B050A1D705870080A987053
:1006E000D970100A18715A719C71DC716B46044AFA
:1006F0000249044800F08DF838BD0000E00B0020EE
:100700006C000020BC070020014800F04BBD000039
:10071000680B0020014800F045BD0000080B0020D8
:1007200001680A4BCAB2103AA3FB02321209084B05
:100730009B5CC365032A04D96FF30901091D816518
:1007400002E06FF309018165806D7047ABAAAAAA28
:10075000AC6B0008014600208A6A8B69002B0FD021
:10076000B3F5005F1DD08AB3012A30D0022A2ED003
:10077000032A04D1C96A11F0807F00D0012070479C
:100780001AB1012A07D0022AF9D1C96A11F0807F73
:10079000F5D001207047C96AB1F1C07FFAD10120BC
:1007A00070475AB1012A0BD0022A07D0032AF7D189
:1007B000C96AB1F1C07FF3D10120704701207047B1
:1007C000C96A11F0807FFAD001207047FFE701204D
:1007D00070477047012000F053BE082000F050BE63
:1007E000102000F04DBE202000F04ABE704790F867
:1007F0002020012A07D0022A05D0416A41F4802135
:100800004162012070470068426911434161002044
:10081000704770B490F82040D0F800C0DCF808C0F1
:10082000012C08D0022C06D0416A41F4802141629B
:1008300070BC012070470CF080640CF000652C4304
:1008400002D11CF0805F5FD0CCF3016CBCF1020FD1
:1008500006D9416A41F40001416270BC0120704731
:10086000012404FA0CF41C608B684FF4C0749BB133
:10087000CD6804EB0C162B434D6843EAC5030568AD
:10088000AB514FF4C273066803EB0C130D69F550BE
:10089000097D012909D00DE00D88CB6804EB0C1609
:1008A00043EA45530568AB51EBE70168CD5845F481
:1008B0008075CD501179D379557941EA03619379E7
:1008C0001B0443EA052319434FF4C675036805EB7F
:1008D0000C1559511178D37841EA03619378527815
:1008E0001B0443EA022211434FF4C473026803EB72
:1008F0000C13D150016804EB0C100A5842F00102AD
:100900000A5070BC00207047416A41F400114162F6
:1009100070BC01207047000090F82020012A07D009
:10092000022A05D0416A41F48021416201207047CA
:100930004248D0F8002242F00102C0F80022D0F86C
:10094000002222F47C52C0F80022D0F800224B6A28
:1009500042EA0322C0F800220A7D012302F01F02AE
:1009600003FA02F2D0F81C329343C0F81C32CB6970
:10097000D3B9D0F80C329343C0F80C32B1F80CC0A4
:100980004B686CF31F43D1F814C000EBCC0CCCF8CF
:100990004032B1F808C00B686CF31F43D1F814C0A3
:1009A00000EBCC0CCCF84432CB69012B1AD1D0F837
:1009B0000C321343C0F80C32B1F800C04B686CF332
:1009C0001F43D1F814C000EBCC0CCCF84032B1F886
:1009D00008C0CB686CF31F43D1F814C000EBCC0CFB
:1009E000CCF844328B697BB1D0F804321343C0F8A1
:1009F00004320B6973B1D0F814321343C0F81432C7
:100A0000096A01290CD010E0D0F804329343C0F8F1
:100A10000432EEE7D0F814329343C0F81432EFE713
:100A2000D0F81C121143C0F81C12D0F8001221F0AB
:100A30000101C0F80012002070470000006400406F
:100A4000704710B490F820C0BCF1010F09D0BCF180
:100A5000020F06D0416A41F48021416210BC01209E
:100A6000704739B1D0F800C0DCF810C01CF0030F9B
:100A70007DD006E0D0F800C0DCF80CC01CF0030FFD
:100A80007BD04FF4D87C04680CEB011C54F80C406C
:100A900004F004049460002C7DD0046854F80C40E9
:100AA000E4085460046854F80CC0CCF3400CC2F85D
:100AB0000CC04FF4DA7C04680CEB011C54F80C40B9
:100AC00004F00F041461046854F80C40C4F30724C4
:100AD0009461046854F80CC04FEA1C4CC2F814C06E
:100AE0004FF4DC72D0F800C002EB01125CF802C0D7
:100AF00083F800C0D0F800C05CF802C04FEA1C2C9C
:100B000083F801C0D0F800C05CF802C04FEA1C4C6A
:100B100083F802C0D0F800C05CF80220120EDA7030
:100B20004FF4DE72D0F800C002EB01125CF802C094
:100B300083F804C0D0F800C05CF802C04FEA1C2C57
:100B400083F805C0D0F800C05CF802C04FEA1C4C26
:100B500083F806C0D0F800C05CF80220120EDA71EB
:100B6000F9B10068016941F02001016102E00BE088
:100B700003E010E010BC00207047416A41F400110E
:100B8000416210BC01207047416A41F4001141628A
:100B900010BC01207047046854F80C40640D1460C8
:100BA00080E70068C16841F02001C160DEE72DE9FF
:100BB000F05F0546002428684669D0F804908768ED
:100BC000D0F80CA0D0F810B0D0F8188016F0010FB3
:100BD00054D017F0010F17D00121816017F0020FD8
:100BE00003D0284600F0D8FA0EE017F0040F02D028
:100BF0004FF4006408E017F0080F02D04FF480545F
:100C000002E0284600F0C7FA17F4807F19D029685F
:100C10004FF48070886017F4007F03D0284600F0FE
:100C2000BDFA0EE017F4806F02D044F4005408E0DF
:100C300017F4006F02D044F4804402E0284600F02C
:100C4000ACFA17F4803F19D029684FF480308860DF
:100C500017F4003F03D0284600F0A2FA0EE017F484
:100C6000802F02D044F4004408E017F4002F02D093
:100C700044F4803402E0284600F091FA16F0080FA0
:100C800007D01AF0100F04D044F400742968102023
:100C9000C86016F0040F4FF0080707D01AF0080FCD
:100CA00004D02868C760284600F0CCF916F0020F7F
:100CB00007D02868C06810F0030F02D0284600F063
:100CC000C3F916F0400F07D01BF0100F04D044F406
:100CD000806429681020086116F0200F07D01BF0EF
:100CE000080F04D028680761284600F01FFA16F0A4
:100CF000100F07D02868006910F0030F02D02846B3
:100D000000F015FA16F4003F08D019F0100F05D0C6
:100D1000296810204860284600F00AFA16F4803F3F
:100D200007D019F0080F04D028684760284600F063
:100D300038FA16F4004F4AD019F0040F44D016F4D4
:100D4000807F04D018F0010F01D044F0010416F4A4
:100D5000007F04D018F0020F01D044F0020416F412
:100D6000806F04D018F0040F01D044F0040416F48E
:100D7000006F29D018F0700F26D008F070004028BE
:100D800015D006DC102809D020280AD0302816D12A
:100D90000AE050280ED0602811D10EE044F008047B
:100DA0000DE044F010040AE044F0200407E044F0B1
:100DB000400404E044F0800401E044F480742868B6
:100DC000816921F070018161296804204860002C4C
:100DD00005D0686A204368622846FFF731FEBDE807
:100DE000F09F70B50446002C03D094F8200010B199
:100DF00004E0012070BD204600F0A8F820680168DA
:100E000021F00201016000F05DFC054620684068A9
:100E10004FF0050610F0020F11D000F053FC401BFC
:100E20000A2807D9606A40F40030606284F82060C4
:100E3000012070BD2068406810F0020FEDD12068DD
:100E4000016841F00101016000F03CFC05462068AA
:100E5000406810F0010F11D100F034FC401B0A284B
:100E600007D9606A40F40030606284F82060012095
:100E700070BD2068406810F0010FEDD0207E012881
:100E80003FD02068016821F080010160607E012868
:100E90003DD02068016821F040010160A07E01285A
:100EA0003BD02068016821F020010160E07E01282C
:100EB00039D02068016841F010010160207F0128CD
:100EC00037D02068016821F008010160607F0128A7
:100ED00035D02068016821F004010160E168A06854
:100EE000626908432169114308436168491E084348
:100EF0002168C86100206062012084F82000002081
:100F000070BD2068016841F080010160BEE7206883
:100F1000016841F040010160C0E72068016841F0CC
:100F200020010160C2E72068016821F01001016022
:100F3000C4E72068016841F008010160C6E7206845
:100F4000016841F004010160C8E70000F0B587B016
:100F5000044614216846FFF7DEFA3549354ADFF8C2
:100F6000CCE00868D4F800C0324B032402250926DF
:100F700010320027401CF44521D10860012807D118
:100F8000106840F000701060106800F0007005906C
:100F9000186840F00800186018688DE8B00000F08C
:100FA0000800CDE9046069460394234800F074FA10
:100FB00000220521142000F00BFD142031E0DFF8A1
:100FC0007CE0F4452FD1D2F800C04CF0806CC2F820
:100FD00000C0D2F800C001280CF0806CCDF814C01D
:100FE000086007D1106840F000701060106800F0D1
:100FF00000700590186840F0020018601868694693
:1010000000F00200059060208DE8A100CDE90346C4
:101010000B4800F041FA00220521402000F0D8FCE6
:10102000402000F0C7FC07B0F0BD000000640040A5
:101030002000002030380240000C024000680040D0
:10104000000402407047000030B589B005466B4689
:1010500002AA0021FFF7F5FC3048314B314C8542A4
:101060001ED10298A0F2012007280FD2DFE800F07D
:101070000406100E12141600187800E0587869461D
:1010800000EB400004EB800002F082FF09B030BDAD
:101090009878F4E7D878F2E71879F0E75879EEE72E
:1010A00021488542F2D10298A0F5007005380ED093
:1010B00001280ED00228E9D1187A694600EB4000D9
:1010C00004EB800002F064FFD86820B10AE0987950
:1010D000D5E7D879D3E7197A002201EB410104EB77
:1010E00081014A81401CD860B0F5FA7FCEDD187AC4
:1010F00000EB400034F8201004EB80000289891ACC
:10110000B1F5805F02DD4189491E04E011F5805F81
:10111000BCDA4189491C4181B8E70000BC070020C6
:1011200054000020100C0020E40700207047704796
:10113000704770B5044694F82000012805D0606A15
:1011400040F400206062012070BD022084F820007D
:101150002068016821F00101016000F0B3FA054642
:101160002068406810F0010F12D000F0ABFA401B6D
:101170000A2808D9606A40F400306062052084F8CB
:101180002000012070BD2068406810F0010FECD1F4
:101190000020606270BD70477047704770477047AD
:1011A000704770472DE9F84304464FF00008CDF82A
:1011B000008076484FF416510068B0FBF1F7A56D3A
:1011C0002E6894F85C00082101FA00F0304211D03A
:1011D0002068026812F0040F0CD0026822F00402AA
:1011E000026094F85C0001FA00F0A860606D40F0C5
:1011F0000100606594F85C004FF0010909FA00F005
:10120000304209D02168496911F0800F04D0A860EC
:10121000606D40F00200606594F85C100420884026
:10122000304209D02168096811F0020F04D0A8608B
:10123000606D40F00400606594F85C1010208840F8
:10124000304224D02168096811F0080F1FD0A8602F
:101250002068016811F4802F0DD0006810F4002F71
:1012600004D0A16C99B12046884710E0216C71B17F
:10127000204688470BE0016811F4807F03D10168A4
:1012800021F008010160216C09B12046884794F8DB
:101290005C1020208840304251D02168096811F04C
:1012A000100F4CD0A86094F8350005280DD02068A8
:1012B000016811F4802F32D0006810F4002F29D07B
:1012C000E16B59B32046884739E02068016821F076
:1012D000160101602068416921F080014161206CA4
:1012E00008B9A06C20B12068016821F008010160F4
:1012F00094F85C003F2101FA00F0A86084F8348083
:1013000084F83590216D00293ED001B02046BDE81B
:10131000F0430847616C09B1204688470FE0016837
:1013200011F4807F07D1016821F01001016084F879
:10133000348084F83590E16B09B120468847606DB0
:10134000002821D0606D10F0010F15D0052084F821
:1013500035002068016821F0010101600098401CFF
:101360000090B84204D82068006810F0010FF5D151
:1013700084F8348084F83590E16C002904D001B001
:101380002046BDE8F0430847BDE8F883240000206C
:101390002DE9F041044600F095F90546DCB1002640
:1013A00084F83460022084F835002068016821F058
:1013B000010101602068006810F0010F13D000F0F7
:1013C00081F9401B052809D920206065032084F895
:1013D0003500BDE8F0810120BDE8F081206800689B
:1013E00010F0010FEBD121680868234A1040A36870
:1013F0006268D4F810C01A43E36843EA0C031A4346
:1014000063691A43A3691A43E3691A43236A1A43B7
:101410001043626A042A03D1236BE26A1A43104321
:1014200008602068406920F00701606A40EA010511
:10143000012704280ED1A06A0543E06A50B1204676
:10144000FFF788F930B14020606584F835700120DD
:10145000BDE8F081206845612046FFF761F994F806
:101460005C103F2202FA01F18160666584F83570F4
:101470000020BDE8F08100003F8010F070470000C0
:1014800010B504490A68024202D00860FFF7F6FF6F
:1014900010BD0000143C01402DE9F84F0022DFF898
:1014A0000082DFF80092DFF800A24FF0030E0F2752
:1014B000012303FA02F50B682B40AB427DD1D1F832
:1014C00004C0BCF1020F02D0BCF1120F12D14FEADE
:1014D000D20C00EB8C0CDCF820605407E40E07FA09
:1014E00004FB26EA0B06D1F810B00BFA04F43443DF
:1014F000CCF8204006684FEA420C0EFA0CF4A643E2
:1015000091F804B00BF0030B0BFA0CFB4BEA060648
:1015100006604E68012E05D0022E03D0112E01D098
:10152000122E11D18668A643D1F80CB00BFA0CFB31
:101530004BEA06068660466826EA05050E79C6F37C
:101540000016964035434560C56825EA04048D6859
:1015500005FA0CFC4CEA040CC0F80CC0D1F804C02D
:101560001CF0805F7DD0D8F800C04CF4804CC8F8E7
:1015700000C0D8F800C00CF4804CCDF800C022F0B8
:10158000030C0CF1804404F59834D4F808C895078E
:101590002D0F07FA05F62CEA0606A0F1804CBCF5E3
:1015A000003C64D0A0F1804CBCF5013C62D0A0F1BD
:1015B000804CBCF5023C60D000E052E0A0F1804CD1
:1015C000BCF5033C5CD0A0F1804CBCF5043C5AD087
:1015D000A0F1804CBCF5053C58D0A0F1804CBCF586
:1015E000063C56D0A0F1804CBCF5073C54D04FF0DF
:1015F000080C0CFA05FC4CEA060CC4F808C8D9F82B
:1016000000C02CEA030C4C6814F4803F01D04CEA73
:10161000030CC9F800C0254CD4F800C02CEA030C18
:101620004D6815F4003F01D04CEA030CC4F800C02B
:10163000DAF800C02CEA030C4C6814F4801F01D0C7
:101640004CEA030CCAF800C0194CD4F800C02CEACC
:10165000030C4D6815F4001F01D04CEA030CC4F8CC
:1016600000C0521C102AFFF423AFBDE8F88F4FF0E2
:10167000000CBEE74FF0010CBBE74FF0020CB8E7DF
:101680004FF0030CB5E74FF0040CB2E74FF0050C38
:10169000AFE74FF0060CACE74FF0070CA9E70000EE
:1016A00044380240003C0140083C0140043C0140F9
:1016B0000C3C0140002A01D081617047090481611E
:1016C00070470000014880687047000094000020C7
:1016D00070B50446002C04D094F83D00002510B1EC
:1016E00006E0012070BD84F83C50204600F0BCF8B4
:1016F000242084F83D002068016821F00101016088
:1017000000F06CFA544B6168994203D853498842FF
:1017100003D304E05249884201D2012070BD5149EF
:10172000B0FBF1F12268D2F804C02CF03F0C4CEA77
:10173000010CC2F804C062689A4201D84A1C07E052
:101740004FF4967251434FF47A72B1FBF2F14A1C96
:101750002168D1F820C02CF03F0C42EA0C020A624A
:101760006168994210D84900401EB0FBF1F2521C4A
:10177000C2F30B02042A01D2042026E0B0FBF1F0F0
:10178000401CC0F30B0020E0A268002A50D001EBFF
:10179000C10303EB0113A0F1010CBCFBF3F35B1CD1
:1017A00043F480431B051B0D4AD0002A4AD001EBAD
:1017B000C10202EB0111401EB0FBF1F0401CC0F36E
:1017C0000B0040F4804040F400402168CA6922F0D8
:1017D000FF0222F44F421043C861216AE0690143CD
:1017E0002068026822F0C00211430160E1682069AC
:1017F00001432068826822F0FF0222F40342114371
:101800008160A169606901432068C26822F0FF021B
:101810001143C1602068016841F001010160256445
:10182000202084F83D00256384F83E50002070BDE0
:1018300001EB4103A0F1010CBCFBF3F35B1CB1E72E
:101840000120C2E701EB4101401EB0FBF1F0401C5A
:10185000C0F30B00B7E70000A086010080841E00E3
:1018600000093D0040420F00F0B587B00446142146
:101870006846FEF750FE1B49206888422FD11A485F
:10188000016841F004010160016801F00401059163
:10189000016841F0010101600068042400F00100CA
:1018A00005904FF4007012250126032704948DE85B
:1018B000E10069460D48FFF7EFFDA00104948DE8B3
:1018C000E10069460A48FFF7E7FD07481030016864
:1018D00041F400010160006800F40000059007B0C9
:1018E000F0BD0000005C00403038024000080240BB
:1018F000000002400248816802781144816070470C
:101900009400002010B50B48016841F4007101609B
:10191000016841F480610160016841F480710160F7
:10192000032000F089F80F2000F006F800F026F8F8
:10193000002010BD003C024070B504460D4D4FF430
:101940007A712878B1FBF0F00B490968B1FBF0F02F
:1019500000F0A6FC08B1012070BD102C07D20022B7
:101960002146501E00F034F86C60002070BD01204C
:1019700070BD000094000020240000200C4882B0BC
:10198000016841F480410160006800F480400090EB
:101990000748001F016841F0805101600068002283
:1019A00000F0805000900F21901E02B000F010B89F
:1019B0004438024000280ADB00F01F01012202FA2D
:1019C00001F14009800000F1E020C0F800117047EB
:1019D00010B4184B1B68C3F30223C3F1070CBCF10E
:1019E000040F01D94FF0040C1C1D072C01D2002359
:1019F00000E0DB1E012404FA0CFCACF1010C0CEA43
:101A00000101994004FA03F35B1E1A4011430028B8
:101A100006DB00F1E020090180F8001410BC7047DB
:101A200000F00F0000F1E020090180F8141D10BC47
:101A3000704700000CED00E000F00700064A116856
:101A40004FF6FF03194041EA002040F0FD7040F0DE
:101A500080601060704700000CED00E02DE9F04759
:101A600004460D46002C13D0DFF85091D9F8000041
:101A7000EFB200F00F00A8420DD289F80070D9F83B
:101A8000000000F00F00A84205D00120BDE8F0875B
:101A90000120BDE8F0872068494E10F0020F14D0F5
:101AA00010F0040F03D0306840F4E050306020782C
:101AB00010F0080F03D0306840F4604030603068A8
:101AC000A16820F0F00008433060207810F0010F8A
:101AD0003ED060683B49012808D002280DD0032879
:101AE0000BD0096811F0020F28D00AE0096811F440
:101AF000003F06D10120BDE8F087096811F0007FA2
:101B000019D0316821F0030108433060FFF7DAFD96
:101B100080463068616800F00C00B0EB810F17D090
:101B200041F2883AFFF7CEFDA0EB0800504508D9F6
:101B30000320BDE8F0870120BDE8F0870120BDE863
:101B4000F0873068616800F00C00B0EB810FE9D1DC
:101B5000D9F8000000F00F00A8420AD989F80070F7
:101B6000D9F8000000F00F00A84202D00120BDE823
:101B7000F087207810F0040F05D03068E16820F479
:101B8000E05008433060207810F0080F06D030682D
:101B9000216920F4604040EAC100306000F03EF866
:101BA0003168094AC1F30311515CC8400749086014
:101BB0000F20FFF7C1FE0020BDE8F087003C024087
:101BC0000838024000380240286B0008240000203A
:101BD00001480068704700002400002000B5FFF7AE
:101BE000F7FF04490968044AC1F38221515CC840E7
:101BF00000BD000008380240386B000800B5FFF750
:101C0000E7FF04490968044AC1F34231515CC84006
:101C100000BD000008380240386B000810B51748B6
:101C2000006810F00C01164816D0164B042912D08B
:101C3000082911D1144C216801F03F02216811F4E8
:101C4000800F0AD02068C0F38810A0FB0301002396
:101C5000FEF76BFB09E0184610BD21680023C1F3B5
:101C60008811A1FB0001FEF760FB2168C1F301416F
:101C7000491C4900B0FBF1F010BD000008380240DB
:101C80000024F400001BB700043802402DE9F84F8F
:101C90000446002C10D02078FA4D10F0010F64D0CB
:101CA000F948016801F00C0104290DD0006800F02A
:101CB0000C00082803D011E00120BDE8F88FF3489C
:101CC000006810F4800F09D0286810F4003F4CD051
:101CD0006068002849D10120BDE8F88F6068B0F540
:101CE000803F14D0B0F5A02F16D0286820F48030A3
:101CF0002860286820F480202860606810B3FFF70F
:101D0000E1FC0646286810F4003F0ED02DE028685C
:101D100040F480302860F0E7286840F48020286094
:101D2000286840F480302860E7E7FFF7CBFC801B91
:101D3000642802D90320BDE8F88F286810F4003F1A
:101D4000F3D012E0FFF7BEFC0646286810F4003F0F
:101D50000BD0FFF7B7FC801B642802D90320BDE835
:101D6000F88F286810F4003FF3D12078C84F10F0A6
:101D7000020F4FF0000856D0C348016811F00C0F55
:101D800015D0006800F00C00082804D1BF48006896
:101D900010F4800F0BD0E06878B301203860FFF7B3
:101DA00091FC0646286810F0020F12D01DE028684A
:101DB00010F0020F05D0E068012802D00120BDE834
:101DC000F88F2868216920F0F80040EAC1002860F7
:101DD00029E0FFF777FC801B022802D90320BDE829
:101DE000F88F286810F0020FF3D02868216920F0DE
:101DF000F80040EAC100286015E0FFE7C7F800805E
:101E0000FFF760FC0646286810F0020F0BD0FFF7C2
:101E100059FC801B022802D90320BDE8F88F2868EE
:101E200010F0020FF3D1207810F0080F33D099484A
:101E3000DFF864926169B9B101210160FFF742FCEA
:101E40000646D9F8000010F0020F24D1FFF73AFC43
:101E5000801B022802D90320BDE8F88FD9F80000C2
:101E600010F0020FF2D016E0C0F80080FFF72AFC55
:101E70000646D9F8000010F0020F0CD0FFF722FC44
:101E8000801B022802D90320BDE8F88FD9F8000092
:101E900010F0020FF2D1207810F0040F73D04FF041
:101EA0000009DFF8F8A1DAF8000010F0805F0CD12B
:101EB000DAF8000040F08050CAF80000DAF80000BC
:101EC00000F0805000904FF00109DFF8D4B1DBF84A
:101ED000000010F4807F1AD1DBF8000040F480701D
:101EE000CBF80000FFF7EEFB0646DBF8000010F42D
:101EF000807F0CD1FFF7E6FB801B022802D903206C
:101F0000BDE8F88FDBF8000010F4807FF2D0A06805
:101F1000DFF890B1012818D005281DD0DBF80000AB
:101F200020F00100CBF80000DBF8000020F00400F6
:101F3000CBF80000A06838B3FFF7C4FB0646DBF817
:101F4000000010F0020F14D03CE0DBF8000040F07D
:101F50000100CBF80000EDE7DBF8000040F00400E2
:101F6000CBF80000DBF8000040F00100CBF80000E7
:101F7000E0E7FFF7A7FB811B41F28830814204D9DB
:101F80000320BDE8F88F26E005E0DBF8000010F044
:101F9000020FEED016E0FFF795FB0646DBF80000D7
:101FA00010F0020F0ED0FFF78DFB811B41F288303D
:101FB000814202D90320BDE8F88FDBF8000010F061
:101FC000020FF0D1B9F1010F05D1DAF8000020F0CD
:101FD0008050CAF80000A069E8B32B49096801F0F5
:101FE0000C0108296BD0022810D0C7F86080FFF7D9
:101FF00069FB0446286810F0007F5ED0FFF762FBA3
:10200000001B022855D90320BDE8F88FC7F860806F
:10201000FFF758FB0646286810F0007F0BD0FFF74B
:1020200051FB801B022802D90320BDE8F88F2868E5
:1020300010F0007FF3D1216AE069A26A0843616A67
:102040004FF0FF33890103EB520241EA024108439A
:1020500094F82C1000E030E040EA01610B48016088
:1020600001203866FFF72EFB0446286810F0007F39
:1020700023D1FFF727FB001B022815D90320BDE859
:10208000F88F1CE000380240083802400438024053
:1020900000004742800E47427438024040380240F8
:1020A0000070004070380240286810F0007FE0D0D7
:1020B00003E0286810F0007FA0D10020DFE70120B6
:1020C000DDE770B50446002C03D06079002510B11F
:1020D00005E0012070BD2571204600F00DF80220BA
:1020E00060712068016841F00401016001206071A5
:1020F000A560002070BD000008B500680649884250
:1021000008D10648016841F040010160006800F014
:102110004000009008BD000000080650343802401E
:1021200070B50446002C05D00025A56294F8510036
:1021300010B106E0012070BD84F85050204600F038
:1021400031F8022084F851002068016821F0400134
:102150000160A168606822690843E168114308438F
:1021600061690843218B01F400710843E169084368
:10217000216A0843A16A084321680860A069042114
:1021800001EA1040616A0843216848602068C1691B
:1021900021F40061C1616565012084F851000020CF
:1021A00070BD00002DE9F04387B004461421684655
:1021B000FEF7B1F934492068884261D133480025DF
:1021C000016841F480510160006800F4805005907E
:1021D0002E481438016841F002010160016801F0E5
:1021E00002010591016841F00101016000680226C9
:1021F00000F001000590182001274FF003084FF070
:1022000005098DE8C10369462148FFF745F980209B
:102210008DE8C10369461F48FFF73EF91F4E1E486F
:102220004FF0C0673060C6E901754FF48068C6E9B9
:10223000035875617812B561C6E90750304675627A
:10224000FFF7A6F808B1FEF7D1FAE664B463134EBF
:10225000114860361830E6E802074020A6E8210160
:10226000C00246F81459B561C6E907500B487562BB
:102270006030FFF78DF808B1FEF7B8FAA664B463D2
:1022800007B0BDE8F0830000003001404438024050
:10229000000402400000024040640240C8080020E0
:1022A000401EB0F1807F01D3012070474FF0E02144
:1022B0004861044AF02010700020886107200861FE
:1022C0000020704723ED00E090F83C20012A2CD03C
:1022D000012280F83C20CA680023D1F808C022F40B
:1022E000407242EA0C02D1F804C022F4806242EA51
:1022F0000C02D1F800C022F4006242EA0C02D1F8CC
:1023000010C022F4805242EA0C02D1F814C022F428
:10231000005242EA0C02C96922F480421143026869
:10232000516480F83C30002070470220704730B480
:1023300090F83C20012A1ED0012480F83C40022263
:1023400080F83D200268D2F804C093682CF0700C2D
:102350000D6845EA0C0C23F0800349681943C2F864
:1023600004C00268916080F83D40002180F83C1074
:1023700030BC0020704730BC0220704710B50446C6
:10238000002C03D094F83D0010B107E0012010BDEF
:10239000002084F83C00204600F00CF8022084F86D
:1023A0003D00211D206800F0F5FF012084F83D006C
:1023B000002010BD08B50068124A1349904207D1A9
:1023C000086840F004000860086800F0040009E0B4
:1023D0000E4A904208D1086840F00800086008687A
:1023E00000F00800009008BD09498842FBD106486A
:1023F000001D016841F400310160006800F4003004
:10240000F0E700000008004040380240000C0040A7
:1024100000440140022180F83D1001688A6802F002
:102420000702062A03D00A6842F001020A6001216D
:1024300080F83D100020704770B5044694F83C00C9
:10244000012818D0012584F83C50022084F83D0072
:102450002068826822F0770222F47F428260086856
:10246000502832D00EDC20284DD006DC00284AD07F
:1024700010284DD147E0022070BD302843D04028BD
:1024800046D136E060282AD0702806D0B0F5805FAB
:102490003ED0B0F5005F3BD10BE0CB684A6889685D
:1024A000206800F0ECFF2068816841F077018160CE
:1024B0002EE0CB684A688968206800F0E0FF206859
:1024C000816841F48041816022E0CA6849682068DF
:1024D00001F0C4F85021206800F0DCFF18E0CA6861
:1024E0004968206801F0CDF86021206800F0D2FF33
:1024F0000EE0CA684968206801F0B0F84021206801
:1025000000F0C8FF04E022680146104600F0C2FF58
:1025100084F83D50002084F83C0070BD30B587B091
:10252000044614216846FDF7F6FF384D2068002464
:10253000374902220123A84210D1086840F0100058
:1025400008600868694600F0100005904FF42060AC
:102550008DE81500CDE903432E4811E02E4D0324EC
:10256000A84211D1086840F0080008600868694670
:1025700000F00800059028148DE81D0027480492FB
:10258000FEF78AFF07B030BD254DA8421FD108686D
:1025900040F0800008600868694600F080000590FF
:1025A0004FF4E0508DE80D0003921E480492FEF7B0
:1025B00073FF1D48FFF72EFF00211B4800F0D8F8DD
:1025C0000421194800F0D4F8082117481AE0174DE3
:1025D000A842D7D1086840F0200008600868694622
:1025E00000F02000059040208DE80D00CDE9032487
:1025F0000F48FEF751FF0C484030FFF70BFF0A4829
:102600000021403000F0B4F8BCE7000000000140B9
:10261000303802400010024000080040000C024028
:10262000000C0040001C0240080A00200044014049
:102630000014024070B504460D4694F83C00012891
:102640000DD0012684F83C60022084F83D0042B1A0
:10265000042A1AD0082A2DD00C2A53D13EE0022099
:1026600070BD2946206800F01DFF2068816941F097
:10267000080181612068816921F00401816120687D
:1026800081692A69114381613CE02946206800F094
:1026900041FF2068816941F400618161206881699E
:1026A00021F480618161206881692A6941EA0221FF
:1026B000816127E02946206800F068FF2068C16931
:1026C00041F00801C1612068C16921F00401C161C4
:1026D0002068C1692A691143C16113E02946206855
:1026E00000F090FF2068C16941F40061C161206879
:1026F000C16921F48061C1612068C1692A6941EA28
:102700000221C16184F83D60002084F83C0070BD66
:1027100010B50446002C03D094F83D0010B107E03A
:10272000012010BD002084F83C00204600F00CF889
:10273000022084F83D00211D206800F02BFE0120BE
:1027400084F83D00002010BD08B5006806498842A5
:1027500008D10648016841F001010160006800F0FD
:102760000100009008BD0000000001404438024014
:1027700010B504460122206800F072FE2168A1F124
:102780008040B0F5803004D0A1F18040B0F58230B7
:1027900003D1486C40F4004048642068816801F02F
:1027A0000701062903D0016841F001010160002002
:1027B00010BD70B50446002C04D094F839000025F3
:1027C00010B106E0012070BD84F83850204600F0BA
:1027D00023F8242084F839002068C16821F40051CE
:1027E000C160204600F060FF2068016921F490413B
:1027F00001612068416921F02A0141612068C168B6
:1028000041F40051C160E563202084F8390084F868
:102810003A00002070BD00002DE9F04F87B005465A
:1028200014216846FDF777FEDFF834C129680026D9
:102830004C4802240123032707224FF0006A4FF47B
:10284000806B614548D147491431D1F800C04CF044
:10285000100CC1F800C0096801F010010591016871
:1028600041F002010160016801F002010591016877
:1028700041F0010101600068984600F001000590F8
:1028800080208DE81101CDE90372914669463648F2
:10289000FEF702FE20028DE81101CDE903796946B9
:1028A0003248FEF7F9FD334C3148E4E8020A402093
:1028B000A4E84108800244F81469A661C4E90760ED
:1028C0002C486662FEF764FD08B1FDF78FFF2C63AC
:1028D000A56307B0BDE8F08FDFF89CC06145F8D173
:1028E00020491031D1F800C04CF4802CC1F800C050
:1028F000096801F480210591016841F0040101603B
:102900000068029300F0040005904FF44060CDE9A8
:102910000004CDE9037269461848FEF7BDFD154C69
:10292000174860342060C4E901A6C4E9036B6661FE
:102930004FF40030A661C4E9076020466662FEF7E6
:1029400027FD08B1FDF752FF6C6300220421272008
:10295000A563FFF73DF82720FFF72CF8B9E7000043
:1029600000100140303802400004024000000240E4
:10297000B8640240080B00200048004000080240F4
:1029800028600240FEE700000F4810B50D490160C5
:102990000321416000214FF410228160C0E903123D
:1029A0004FF400124261017641768176C17601775B
:1029B0004177FEF716FA002803D0BDE81040FDF776
:1029C00015BF10BD00640040BC0700200F4810B5C3
:1029D0000D4901600321416000214FF41022816004
:1029E000C0E903124FF4001242610176417681760C
:1029F000C17601774177FEF7F4F9002803D0BDE8EE
:102A00001040FDF7F3BE10BD00680040E407002051
:102A1000194808B5016841F480010160016801F4BA
:102A200080010091016841F40011016000680022FA
:102A300000F40010009005210C20FEF7C9FF0C20C7
:102A4000FEF7B8FF002205213A20FEF7C1FF3A2029
:102A5000FEF7B0FF002205213B20FEF7B9FF3B2027
:102A6000FEF7A8FF002205214620FEF7B1FFBDE8D2
:102A700008404620FEF79EBF3038024010B5B8B07F
:102A80001C222C496846FDF70CFD0021684601F028
:102A90009FFD294C27491C2220601C3107A8FDF707
:102AA00000FD002107A801F093FD224960601C226F
:102AB00038310EA8FDF7F5FC00210EA801F088FDC5
:102AC0001C49A0601C22543115A8FDF7EAFC002126
:102AD00015A801F07DFD1749E0601C2270311CA88B
:102AE000FDF7DFFC00211CA801F072FD11492061F7
:102AF0001C228C3123A8FDF7D4FC002123A801F06F
:102B000067FD0C4960611C22A8312AA8FDF7C9FCA9
:102B100000212AA801F05CFD0649A0611C22C431F5
:102B200031A8FDF7BEFC002131A801F051FDE061A4
:102B300038B010BD486A0008000000202DE9F04FB1
:102B400087B014216846FDF7E6FC6348002501685C
:102B500041F002010160016801F002010591016884
:102B600041F001010160016801F001010591016876
:102B700041F008010160016801F008010591016858
:102B800041F004010160016801F004010591016850
:102B900041F080010160016801F080010591016848
:102BA00041F040010160016801F0400105910168B8
:102BB00041F020010160016801F0200105910168E8
:102BC00041F0100101600068012200F01000DFF800
:102BD0000C811402059021464046FEF76BFD404FE4
:102BE000012240213846FEF765FDDFF8F89001220A
:102BF00010214846FEF75EFDDFF8ECA04FF4C0461A
:102C0000012231465046FEF755FDDFF8E0B00122C3
:102C100011465846FEF74EFD00940124CDE90145CA
:102C2000694640460395FEF737FC4020CDE9000495
:102C30000294694638460394FEF72EFC2C4D092079
:102C4000CDE90005694602943846FEF725FC1020C0
:102C5000CDE900040227CDE9024769464846FEF760
:102C60001BFC3020CDE90005694602944046FEF782
:102C700013FCCDE90064CDE9024769465046FEF7F2
:102C80000BFCCDE902470094694658460194FEF7D3
:102C900003FC062100220846FEF79AFE0620FEF7F6
:102CA00089FE002205210920FEF792FE0920FEF789
:102CB00081FE002205210A20FEF78AFE0A20FEF787
:102CC00079FE002205211720FEF782FE1720FEF76D
:102CD00071FE07B0BDE8F08F3038024000080240B6
:102CE00000180240000002400010024000040240B0
:102CF000000021100D4810B50B4901600C494160DE
:102D000000214FF480428160C0E90312416181617A
:102D1000C1610162FEF7DCFC002803D0BDE8104071
:102D2000FDF764BD10BD0000005C00400C080020F1
:102D3000801A0600074910B5054808600846FFF7E5
:102D4000C0F9002803D0BDE81040FDF74FBD10BD0D
:102D50000008065060080020104810B50E490160B8
:102D60004FF482714160002102228160C0E90312A8
:102D700001224261520282613822C0E90721416288
:102D800081620A21C162FFF7CBF9002803D0BDE8B8
:102D90001040FDF72BBD10BD003001407008002031
:102DA00010B588B01C216846FDF7B5FB14481349DF
:102DB0000024C0E9001441F28731C0E902410461F6
:102DC0008461FFF7DBFA08B1FDF710FD0C48FFF74F
:102DD0009FFC08B1FDF70AFD6020CDE900040294D4
:102DE0000022694606480494FFF724FC08B1FDF769
:102DF000FDFC0348FFF792FB08B010BD0044014002
:102E0000480A002010B592B000240F941C21684697
:102E10001094FDF780FB202107A8FDF77CFB2548D7
:102E200023490160A721C0E9011444F61F61C0E9EC
:102E3000031444618461FFF76BFC08B1FDF7D6FC15
:102E40000F940FA91B481094FFF771FA08B1FDF712
:102E5000CDFC6020009040F2DC50CDE901040394E9
:102E6000049405940022694612480694FFF7E2FB99
:102E700008B1FDF7BBFC042269460E48FFF7DAFBF8
:102E800008B1FDF7B3FC0794089409944FF400507F
:102E90000A94CDE90B4007A906480E94FFF714FAEF
:102EA00008B1FDF7A3FC0348FFF738FB12B010BDD3
:102EB000000001408809002010B58EB0002407945E
:102EC000089409940A940B941C2168460C94FDF70D
:102ED00022FB1E481C490160A721C0E901144FF6DE
:102EE000FF71C0E903148461FFF748FA08B1FDF7E8
:102EF0007DFC4FF48050079007A91448FFF79CFA17
:102F000008B1FDF773FC1148FFF702FC08B1FDF7AB
:102F10006DFC0B940BA90D480C94FFF708FA08B14F
:102F2000FDF764FC6020CDE90004029408226946A4
:102F300006480494FFF77EFB08B1FDF757FC0348F1
:102F4000FFF7ECFA0EB010BD00080040C8090020E1
:102F500010B58EB000240794089409940A940B9439
:102F60001C2168460C94FDF7D6FA26482449C0E98E
:102F700000144FF6FF71C0E9024104618461FFF75C
:102F8000FDF908B1FDF732FC4FF48050079007A916
:102F90001C48FFF751FA08B1FDF728FC1948FFF764
:102FA000B7FB08B1FDF722FC0B940BA915480C9454
:102FB000FFF7BDF908B1FDF719FC6020CDE9000469
:102FC0000294002269460F480494FFF733FB08B1CE
:102FD000FDF70CFC042269460A48FFF72BFB08B1F9
:102FE000FDF704FC082269460648FFF723FB08B1F9
:102FF000FDF7FCFB0348FFF791FA0EB010BD00008F
:10300000000C0040080A00200C4810B50A49016075
:103010004FF4E1314160002181600C22C160C0E9C0
:1030200004128161C161FFF7C4FB002803D0BDE831
:103030001040FDF7DBBB10BD00100140880A0020E6
:103040000C4810B50A4901600B49416000218160BC
:103050000C22C160C0E904128161C161FFF7A9FBC4
:10306000002803D0BDE81040FDF7C0BB10BD000034
:1030700000480040C80A0020A0860100FEE7704713
:10308000A0B1D0ED101AC0ED111A90ED0F1A80ED1D
:10309000101AC0ED060A80ED070A30EEC00A80ED76
:1030A0000F0A017829B101293BD078E09FED3D0A54
:1030B0007047D0ED010A60EE801AC0ED091AD0ED1C
:1030C0000A0A90ED022A42EE000A30EE410AC0EDF3
:1030D0000A0A90ED0D2A80ED0E2A90ED0C2A80ED63
:1030E0000D2A80ED0C0A90ED031A21EE001A80EDF6
:1030F0000B1A90ED050AF4EEC00AF1EE10FA09DCA5
:10310000B1EE400AF4EEC00AF1EE10FA02D390EDEF
:103110000A0A01E080ED0A0A31EE800A30EE010A67
:103120002BE070EE410A90ED012A60EE820AC0EDBC
:10313000090A90ED022A22EE002A80ED0A2AD0ED3B
:103140000D2A70EE820AC0ED0E2AD0ED0C2AC0EDD9
:103150000D2AF0EE002A01EE620A30EE210A80ED1F
:103160000C0A90ED031A21EE000A80ED0B0A30EEF6
:10317000800AD0ED080A30EE200A80ED080AD0ED72
:10318000040AB4EEE00AF1EE10FA06DCF1EE600A91
:10319000B4EEE00AF1EE10FA01D2C0ED080A90EDAB
:1031A000080A704700000000002819D09FED0D0AA2
:1031B00080ED110A80ED100A80ED0F0A80ED0E0AF5
:1031C00080ED0D0A80ED0C0A80ED0B0A80ED0A0AF5
:1031D00080ED090A80ED080A80ED060A80ED070AF5
:1031E0007047000000000000002828D0002A26D0E8
:1031F000017092ED001A80ED011A92ED011A80ED36
:10320000021A92ED021A80ED031A80ED040A9FED76
:103210000C0AC0ED050A80ED0E0A80ED0D0A80ED66
:103220000C0A80ED080A80ED0B0A80ED0A0A80ED99
:10323000090A80ED110A80ED100A80ED0F0A70472F
:103240000000000030B5144C23685D6945F040056E
:103250005D612368DC6844F01004DC600F4C236877
:103260001D6825F001051D6023681D68ED07F7D175
:1032700025680B4BAB602368D8602068016120682B
:1032800042602068016841F4802101602068016883
:1032900041F00101016030BDC80A0020680B002028
:1032A0000448004010B5FEF725FB02F045FD01285B
:1032B00003D0BDE8104002F03DBA10BD30B593B068
:1032C00030216846FDF727F914210CA8FDF723F9F2
:1032D00019480025016841F080510160006800F044
:1032E000805011901548016841F4804101600068E8
:1032F000022400F48040119001200090000401900D
:103300008001CDE9064006200890A820CDE90904F7
:1033100007200B906846FEF7B9FC0CA90F2081E846
:1033200031004FF4A0500F90E002109005210CA83E
:10333000FEF794FB13B030BD4038024000700040EF
:103340001048016841F4700101600F48016841F0C4
:10335000010101600C4A00210832116002680B4B28
:103360001A400260031D0A4A1A60026822F4802291
:10337000026005480C300160024958068039086037
:103380007047000088ED00E000380240FFFFF6FEC5
:1033900010300024F0B402682C4B2D4C2D4D2E4ED5
:1033A000DFF8B8C098420AD0B0F1804F07D0A042F1
:1033B00005D0A84203D0B04201D0604503D122F02D
:1033C00070024F683A43984228D0B0F1804F25D020
:1033D000A04223D0A84221D0B0421FD060451DD0CA
:1033E000A0F18044B4F5A03418D0A0F18044B4F525
:1033F000A23413D0A0F18044B4F5A4340ED0A0F1CF
:103400008044B4F5C05409D0A0F18044B4F5E05430
:1034100004D0A0F18044B4F5005403D122F44072EA
:10342000CC6822434C6922F08002224302608A6801
:10343000C2620A688262984201D0604501D109697E
:10344000016301214161F0BC7047000000000140B0
:103450000004004000080040000C0040000401404F
:1034600001F01F0101238B40D0F820C02CEA030398
:103470000362036A02FA01F1194301627047D0F84E
:1034800008C02CF47F4C42EA0322114341EA0C01AC
:1034900081607047826822F07002114341F0070199
:1034A0008160704770B4026A22F001020262036A0E
:1034B0004268D0F818C02CF0700C2CF0030C0C688B
:1034C00044EA0C0C23F002038C6823430F4C104D8C
:1034D000A04201D0A84205D123F00803CE683343AF
:1034E00023F00403A04201D0A84207D122F4807245
:1034F00022F400724C6922438C6922434260C0F876
:1035000018C049684163036270BC70470000014005
:103510000004014070B4026A22F010020262036AE1
:103520004268D0F818C02CF4E04C2CF4407C0C68B5
:103530004CEA042C23F020038C6843EA0413114C5A
:10354000114DA04201D0A84206D123F08003CE68DD
:1035500043EA061323F04003A04201D0A84209D158
:1035600022F4806222F400624C6942EA84028C698F
:1035700042EA84024260C0F818C04968816303626D
:1035800070BC7047000001400004014070B4026A42
:1035900022F480720262036A4268D0F81CC02CF0E8
:1035A000700C2CF0030C0C6844EA0C0C23F4007330
:1035B0008C6843EA0423114C114DA04201D0A8426B
:1035C00006D123F40063CE6843EA062323F4806324
:1035D000A04201D0A84209D122F4805222F4005224
:1035E0004C6942EA04128C6942EA04124260C0F853
:1035F0001CC04968C163036270BC70470000014091
:103600000004014010B4026A22F480520262D0F831
:1036100020C04268C36923F4E04323F440730C687C
:1036200043EA04232CF4005C8C684CEA043CA0F1CF
:103630008044B4F5803404D0A0F18044B4F58234E1
:1036400004D122F480424C6942EA84124260C36190
:1036500049680164C0F820C010BC7047036AD0F804
:1036600020C02CF0010CC0F820C0D0F818C02CF0FD
:10367000F00C4CEA021223F00A0319438261016242
:103680007047036A23F010030362D0F818C0036A7E
:103690002CF4704C4CEA023223F0A00343EA0111EF
:1036A00082610162704700002DE9F0410446206804
:1036B0000169E26821F44051114301612169A06868
:1036C000E26908436169114301432068C26822F43A
:1036D000037222F414421143C16020684169A26957
:1036E00021F4407111434161E069BC4ABC49BD4DC0
:1036F0003226B0F5004F5ED02068884202D090425A
:1037000040F01281FEF77AFA00EBC00101EB0010E5
:1037100061688900B0FBF1F7FEF770FA00EBC001B9
:1037200001EB001061688900B0FBF1F0A5FB00100F
:1037300040096FF01801484307EB800006EB0010CA
:10374000A5FB0010400900F0F007FEF757FA00EB68
:10375000C00101EB001061688900B0FBF1F0A5FB2E
:103760000010400907EB0017FEF748FA00EBC00114
:1037700001EB001061688900B0FBF1F8FEF73EFA3A
:1037800000EBC00101EB001061688900B0FBF1F0B3
:10379000A5FB001040096FF01801484308EB8000BA
:1037A00006EB0010A5FB00102168C0F3431038445D
:1037B0008860BDE8F0812068884201D0904259D1EC
:1037C000FEF71CFA00EBC00101EB00106168490034
:1037D000B0FBF1F0A5FB001040090701FEF70EFA5F
:1037E00000EBC00101EB001061684900B0FBF1F88B
:1037F000FEF704FA00EBC00101EB0010616849001C
:10380000B0FBF1F0A5FB001040096FF01801484330
:1038100008EB800006EBC000A5FB0010400900F09B
:10382000F80007EB4007FEF7E9F900EBC00101EBF8
:10383000001061684900B0FBF1F8FEF7DFF900EB1A
:10384000C00101EB001061684900B0FBF1F0A5FB7D
:10385000001040096FF01801484308EB800006EBA8
:10386000C000A5FB00102168C0F3421038448860F6
:10387000BDE8F081FEF7B2F900EBC00101EB0010EA
:1038800061684900B0FBF1F0A5FB00104009070199
:10389000FEF7A4F900EBC00101EB001061684900DC
:1038A000B0FBF1F8FEF79AF900EBC00101EB001054
:1038B00061684900B0FBF1F0A5FB001040096FF012
:1038C0001801484308EB800006EBC000A5FB001080
:1038D000400900F0F80007EB4007FEF77FF900EB26
:1038E000C00101EB001061684900B0FBF1F8FEF780
:1038F00075F900EBC00101EB001061684900B0FBF5
:10390000F1F0A5FB001040096FF01801484308EBE7
:10391000800006EBC000A5FB00102168C0F3421038
:1039200038448860BDE8F081FEF758F900EBC0012B
:1039300001EB001061688900B0FBF1F7FEF74EF96A
:1039400000EBC00101EB001061688900B0FBF1F0F1
:10395000A5FB001040096FF01801484307EB8000F9
:1039600006EB0010A5FB0010400900F0F007FEF781
:1039700035F900EBC00101EB001061688900B0FB74
:10398000F1F0A5FB0010400907EB0017FEF726F940
:1039900000EBC00101EB001061688900B0FBF1F899
:1039A000FEF71CF900EBC00101EB00106168890013
:1039B000B0FBF1F0A5FB001040096FF0180148437F
:1039C00008EB800006EB0010A5FB00102168C0F397
:1039D000431038448860BDE8F081000000140140C5
:1039E000001001401F85EB51234818B4006801689E
:1039F000890604D501684068009018BC70471F49CB
:103A00000968C906F9D5016840681D4A0090106828
:103A100001681C4C090301684FF0240321F00101E7
:103A2000016011684868C0F1240080B220804B60BA
:103A30000FD411680B6843F400230B6011680A6807
:103A400042F001020A601228D7D10F4901F1170094
:103A50000EE00E498B6A23F400238B6211680A681A
:103A600042F001020A601228C7D1074901F13B0068
:103A700018BC01F06FBA0000C80A002000480040DE
:103A8000680B00207C0000207C0C002000600240BD
:103A9000FEE7704710B50C4C010EC0F307422170D1
:103AA00012FB01F26280C0F3072313FB01F3A38032
:103AB000C0B210FB01F00549E0800C686063086843
:103AC00083630868C26310BD30000020080A00202C
:103AD000D0ED000AF4EEC00AF1EE10FA06DCB1EE09
:103AE000400AF4EEC00AF1EE10FA01D280ED000AAD
:103AF0007047000010B504464079D0B1032818D0B3
:103B0000042816D00E4A04F15C01012814D00228C2
:103B100011D1DFED0C0A0846C2ED000AC4ED060A19
:103B200094ED050AFFF7ACFABDEEC00A10EE100ADC
:103B300000E00020A08310BDDFED030AEBE70000EA
:103B40008C00002000401CC600401C4600280CD001
:103B50008168B1F9021000EE101A0449B8EEC00AEB
:103B600080ED050A0068C07A486070478C0000202C
:103B700070B5050037D000206871287100F056FA42
:103B8000286040F20721022000F010FA9FED162A6B
:103B90009FED161A9FED160AA86015F12004F1EEAC
:103BA000041AF2EE0E0A0FD084ED001AC4ED010AD9
:103BB00084ED020A9FED0F0A84ED050A84ED040AE4
:103BC000C4ED081A84ED072ADFED0B0A9FED0B0AFE
:103BD0000B4A002105F15C00FFF706FB2846BDE813
:103BE0007040FFF7B3BF70BD00008C420000FA4385
:103BF000CDCC4CBE00000000000048430000FA4558
:103C0000A06B0008002815D001688A7A022A03D028
:103C1000C97A022902D015E000210AE01149496859
:103C200003290FD14179022907D00279042A02D051
:103C3000022141717047012904D00179032901D083
:103C40000121F6E7816841F28832B1F9041091420E
:103C500001DD0321EDE741F28832D142EADA0421A5
:103C6000E7E700008C0000204FF4967001F0F2FBB3
:103C70000948FFF77DFF084C0748FFF7C3FF0648D8
:103C8000FFF764FF0448FFF735FF052001F0E2FB72
:103C900060792071F0E700009810002000B58BB02B
:103CA00000200121CDE906010891009001900290C9
:103CB00003900590049069460C48FCF72DFE0B48D4
:103CC000FDF737FA02210948FCF791FD0E20099013
:103CD000059069460648FCF71FFE0548FDF729FADE
:103CE00002210348FCF783FD0BB000BDBC07002098
:103CF000E4070020064807490068B0FBF1F20649D6
:103D00000A704FF47A72B0FBF2F04860704700001E
:103D10002400002040420F002800002070B5044617
:103D20002DED028B00799FED358A012803D0022802
:103D300001D0E0B14EE0002505EB850004EB8006E4
:103D400005EBC50086ED058A04EBC000F0EE480ADD
:103D500096ED040A8030FFF793F9BDEEC00A6D1CA2
:103D6000EDB210EE100A062D3083E5D332E09FED60
:103D7000240A0020F1EE400A00EB800104EB8101EF
:103D8000401CC0B2C1ED050A0328F5D3032000EBA7
:103D9000800104EB8101401CC0B281ED050A0628B8
:103DA000F5D3002505EB850004EB800605EBC50087
:103DB00004EBC000D6ED050A96ED040A8030FFF74B
:103DC0005FF9BDEEC00A6D1CEDB210EE100A062DB3
:103DD0003083E7D334F9402F34F9141C34F9280C1C
:103DE000FCF74AFCB4F93C20B4F92810B4F91400EB
:103DF000BDEC028BBDE87040FCF762BC0000000027
:103E000000007A44002811D0002101EB810200EB70
:103E10008202491C9368C9B20629B3F9023000EE48
:103E2000103AB8EEC00A82ED040AEED370470000E3
:103E300010B504002DED028B74D00120207100F02C
:103E4000F5F8206040F20121012000F0AFF89FED6D
:103E5000378ADFED378AA060F0EE480AB0EE680AD4
:103E6000344A002104F18000FFF7BEF940F202213C
:103E7000012000F09BF82F4AE061F0EE480AB0EE16
:103E8000680A0C32002104F1C800FFF7ADF940F2D6
:103E90000321012000F08AF8264A2063F0EE480A48
:103EA000B0EE680A1832002104F58870FFF79CF91B
:103EB00040F20521012000F079F81E4A6064F0EE1E
:103EC000480AB0EE680A2432002104F5AC70FFF70E
:103ED0008BF940F20621012000F068F8154AA06530
:103EE000F0EE480AB0EE680A3032002104F5D070D6
:103EF000FFF77AF940F20721012000F057F80D4A48
:103F0000E066F0EE480AB0EE680A3C32002104F5A3
:103F1000F470FFF769F9BDEC028B2046BDE8104054
:103F2000FFF770BFBDEC028B10BD000000409C4548
:103F300000008046406B000840F2651001F08AFAEC
:103F40001148FFF775FF01250226104C00270E4887
:103F50000168897A022904D0032904D0012904D0F8
:103F600004E0057102E0067100E007710648FFF702
:103F700049FF0548FFF7D2FE2088401C2080022020
:103F800001F068FAE3E70000DC0C00207E0000206E
:103F9000028802810A8852BA02804A8852BA428054
:103FA0008A8852BA828089798171704710B540F24F
:103FB0000522531C941C012802D0022823D031E092
:103FC000A1F5007001380BD0A1F5007002380AD0BD
:103FD000A1F50070033809D091420AD1124810BDF2
:103FE0001148243810BD1048183810BD0E480C3840
:103FF00010BD994202D10C480C3010BDA14211D124
:104000000948183010BD914202D10748243010BD34
:10401000994202D10448303010BDA142FCD102487F
:104020003C3010BD002010BD340C0020004870470B
:104030007C0C002010B5040036D084ED040A30EE6C
:10404000C00AC4ED030A04F12C0084ED050AD4ED86
:10405000000A60EE800AC4ED0A0AD4ED0B0AD4ED22
:10406000011A41EE800AC4ED0B0A94ED020A20EE1B
:10407000010A84ED0C0A94ED080AFFF729FD94ED7E
:104080000A0AD4ED0B0A04F1340030EE200AD4ED14
:104090000C0A30EE200A84ED0D0A94ED070AFFF7B2
:1040A00017FD94ED0D0A10BD9FED010A10BD000033
:1040B00000000000002811D09FED090A80ED040ADD
:1040C00080ED030A80ED050A80ED060A80ED0C0AFA
:1040D00080ED0B0A80ED0A0A80ED0D0A70470000A2
:1040E0000000000000280BD080EC031A9FED051A99
:1040F00080ED051A80ED041AC0ED080A80ED070A6C
:10410000704700000000000010B5002819D0816839
:104110000C4CDFED0D0AB1F90A300A8804EB433389
:104120001A4400EE102AB8EEC00A20EE200A80EDF4
:10413000030AB1F9021000EE101AB8EEC00A80EDC1
:10414000050A10BDD6EAFFFF8FBB4E3C002801D008
:10415000002181847047000070B504002DED028BB2
:1041600042D0002060712071FFF760FF206040F2B4
:1041700005210220FFF71AFF9FED1D8AA06004F1C0
:104180002800B9EE042AF0EE481A9FED1A1AF0EE54
:10419000480A9FED190A0546FFF7A4FF04F16400E1
:1041A000DFED160A9FED160A164A00210646FFF7B4
:1041B0001BF89FED160A9FED142AF2EE041AB0EEDA
:1041C000401AF0EE480A04F1AC00FFF78BFF2846D6
:1041D000FFF770FF3046FEF7E7FFBDEC028B20468D
:1041E000BDE87040FFF790BFBDEC028B70BD0000D2
:1041F000000000000000FA4300008C420000484329
:104200000080BB45886B00080000FAC30060EA46E6
:1042100010B504000BD004F10C0090EC030AA030A0
:10422000FFF708FFBDEEC00A10EE100AA08410BD13
:1042300070B504460079012823D120684FF4167523
:104240004FF47A71B0F90620AA420ADD084601F05F
:1042500001F92068B0F90600A84212DD9FED100AAE
:104260000DE0B0F90000A8420CDD084601F0F2F8BC
:104270002068B0F90000A84203DD9FED0A0A84ED32
:10428000040A70BD084DA842FBDA084601F0E2F8C6
:104290002068B0F90000A842F3DA9FED040AEEE7C7
:1042A000000000001AC9E940A8FDFFFF82BCB9C0A8
:1042B0004FF4967001F0CEF80248FFF7B9FF0520E1
:1042C000F8E700000C0F002000280BD0017901292D
:1042D00009D0022906D14179022903D090ED030AC1
:1042E00080ED040A704741790029F7D0704700003B
:1042F00010B504002DED028B47D02068B0F90410F2
:1043000023480180A1680988B1F5BE5F03D9B0F9DF
:104310000020002A23DC41F28E22914203D2B0F920
:10432000001000291BDBB0F9000002F011F99FED2D
:10433000191B53EC112B02F023F99FED181B53ECC2
:10434000112B01F0ADFF41EC180B206902F000FBCE
:1043500053EC182B01F0FCFE01F0C8FE206104F1C3
:104360000C0090EC030A1C30FFF764FE84ED060A93
:10437000F0EE400A94ED050A04F16400FEF780FEB9
:10438000BDEEC00A10EE100AA084BDEC028B10BD79
:10439000800000201F85EB51B81EF93F000000008F
:1043A0000088D3404FF4967001F054F81748FFF797
:1043B000D3FE164C15480168897A022904D00329D6
:1043C00004D0012912D003E0002100E00121017195
:1043D0000E48FFF779FF0D48FFF796FE0B4801796D
:1043E00031B1012907D0022908D009E00221EEE706
:1043F000FFF7ACFE04E0FFF77BFF01E0FFF708FFEB
:10440000052001F027F820796071D3E70C0F002018
:10441000827A06484FF48071022A04D0032A02D01F
:104420000022FDF747B90122FBE700000008024027
:10443000FFF7FCFDFFF7ECFF022001F00BF8F7E7B8
:104440002DED0A8B424F9FED43AA4FF47A7600245C
:1044500057F82400050E00EE105AC0F30743C0F3CE
:104460000722F8EE409A00EE103AC1B207EB840042
:10447000B8EE409A00EE102A4068F8EE408A00EE4E
:10448000101A4FEA106CB8EE408A00EE10CAF8EE2F
:10449000400A00EE105AC0F30745B8EE400A70EE2D
:1044A000C01A00EE105A0025F8EE400A00EE103A4D
:1044B000C0F30723C0B2B8EE400AC1EE8AAA30EEBC
:1044C000C01A00EE103AF8EE400A00EE102AB8EEDC
:1044D000400A81EE0ABA70EEC00A00EE100AB8EE89
:1044E000402A00EE101AB8EE400A32EE400AC0EE42
:1044F0008ABA80EE0ACA79EEAA9A39EE0B9A78EE59
:10450000AB8ABCEEE90A10EE100ABCEEC90A01063D
:1045100010EE100ABCEEE80A41EA004110EE100A63
:1045200038EE0C8A41EA0020BCEEC80A10EE101AE0
:104530000843FFF7AFFA012000F03DF86D1CADB263
:10454000B542D8D3641CA4B2062C81D37FE7000007
:104550003800002000007A44FDF7D4F9FEF7AEFEE3
:10456000FEF7ECFAFEF754FAFEF7F6FBFEF7F0FC66
:10457000FEF7C0FBFEF714FCFEF744FCFEF704FA5E
:10458000FEF724FAFEF7D6FBFEF75AFDFEF73CFDD8
:10459000FEF792FCFFF7AEFB00F0D4FCFFF77EFBCA
:1045A000FEF76CFA00F00FF8FEE70021842800D037
:1045B000C11C0846704710B5002800D1012000F04A
:1045C00049FF002010BD10B500F0B2FF002010BD63
:1045D00030B585B004460D466169B4F9080000297C
:1045E00010D0A16971B1FFF7E0FF6269A169019282
:1045F000029100902B4622692168606801F06CFBF3
:10460000049010E0FFF7D1FF04A901910090208AE7
:104610002B4682B22168606801F028FB012802D095
:1046200005B0002030BD049805B030BD2DE9F04143
:1046300004460F461B4E75693168002081F8520010
:104640003068001D00F0CCFD48B93068012190F8B9
:104650002C0001FA00F0B16921EA0000B061B4F168
:10466000FF3F07D137B13068BDE8F041011D0E486A
:1046700000F009BE2C4430684460AC4206D2306879
:10468000011DB068BDE8F04100F0E2BD3068011DD9
:10469000706800F0DDFD306B844200D23463BDE809
:1046A000F0810000A00000205C12002070B50446DC
:1046B00000F0F6FD1C4D2869401C2861286810B1E7
:1046C000E86938B10CE02C602869012808D100F0B5
:1046D0008BF905E02868E16AC06A884200D82C603E
:1046E000E86A401CE862E06A0121AA69814011433E
:1046F000A9610E4900EB800001EB8000211D00F054
:10470000C2FD00F0EDFDE86900280CD02868E16AE0
:10471000C06A884207D206494FF080500860BFF354
:104720004F8FBFF36F8F70BDA0000020801100205D
:1047300004ED00E038B500F0B3FD0F4CA068B8B947
:104740000E4800F077FD0E4800F074FD0B48206025
:104750001430606000200B4B009003F148021021E0
:104760000A2000F0FDFFA06010B107A100F038FEA4
:10477000BDE8384000F0B4BDDC000020701200201D
:104780008412002098120020546D72510000000025
:1047900070B50D4CE068002815D00C4E00F080FD7F
:1047A000F068C568281D00F01BFD2069401E2061CF
:1047B000E068401EE06000F093FD284600F051F8EC
:1047C000E0680028EAD170BDA00000204812002057
:1047D0000B46026C002A0CD0C1681144C160D0F8AD
:1047E00004C0614501D30168C160C1681846FBF788
:1047F00013BE70472DE9F041044616460027A56B0D
:10480000226C002A10D0C6B1E068FBF705FEE16813
:10481000206C091AE1602268914202D26168081A8C
:10482000E060022E16D017E02068A8B9606801F099
:10483000FFFA0746002060600EE0A068FBF7ECFD81
:10484000216CA0680844A0606168884204D3206895
:10485000A06001E005B16D1E681CA0633846BDE88C
:10486000F08110B5044694F8511000290BD00129AD
:1048700011D0022914D0502080F31188BFF34F8F3C
:10488000BFF36F8FFEE7206B00F040FD2046BDE8D0
:10489000104000F03BBD2046BDE8104000F036BDA2
:1048A00010BD000007490A681168002904D00021E2
:1048B000016019B1002070470121F9E7D068006854
:1048C00070470000DC0000204FF4C041104810F099
:1048D000070F06D0C01D20F007000D49411AC1F591
:1048E000C0410C4A1060002353600144083921F094
:1048F0000701103A11604B600B600B1A43600160B6
:104900004068906050604FF00040D06070470000F9
:104910008013002000010020074E4FF08054074D07
:10492000FFF736FF30680128FAD92C60BFF34F8FAC
:10493000BFF36F8FF4E700008011002004ED00E06A
:1049400003460098002905D00260C3630164012179
:1049500000F03EBF0060F8E72DE9F05F82460B9F54
:104960000A9D0C9C0E4690469B464FEA8801A52264
:10497000206BFBF7C8FD206BA8F1010100EB810063
:1049800020F007094FF0000800202218315C82F85F
:104990003410315C11B1401C1028F6D384F84380E8
:1049A000072D00D30625E5626564C4F84880201D04
:1049B00000F04BFC04F1180000F047FC2461C5F145
:1049C0000700A0616462C4F84C8084F8508084F8C9
:1049D00052805A465146484600F09EFA2060002F09
:1049E00000D03C60BDE8F09F70B500240F4D04EB93
:1049F000840005EB800000F01DFC641C072CF6D33E
:104A00000B4800F017FC0B4800F014FC0A4800F0BB
:104A100011FC0A4800F00EFC094800F00BFC0948A4
:104A2000034941601431816070BD00008011002095
:104A30000C12002020120020341200204812002006
:104A40005C120020A000002010B4144900E01146C0
:104A50000A688242FBD34B6803EB010C844503D107
:104A600040681844486008460C68D0F804C00CEB55
:104A70000003A3420CD10A4B1B689A4206D052682D
:104A8000624442600A681268026002E0036000E06B
:104A90000260814200D0086010BC70470001002015
:104AA000F000002010B5002441600061DFF838C03C
:104AB00091420BD8D11A8269914201D3012410E0AE
:104AC000011DDCF8040000F0C3FB0AE09A4203D2A7
:104AD000994201D3012404E0011DDCF8000000F03C
:104AE000B7FB204610BD0000DC00002010B50446D6
:104AF00000F0D6FBA06B20B1002400F0F1FB2046B3
:104B000010BD0124F9E710B5044600F0C9FBA06B05
:104B1000E16B884201D1012400E0002400F0E0FBB9
:104B2000204610BDF8B505460E4614480068C0681A
:104B3000C468201D00F054FBE069012810D1A06971
:104B40002B46411932462046FFF7ACFF40B100200A
:104B50000346014600902A46204601F08DFA28B10E
:104B6000616A01B02046BDE8F0400847502080F35C
:104B70001188BFF34F8FBFF36F8FFEE7DC0000207B
:104B800030B587B0334D002202A9A86800F07EFF3F
:104B900000285CD00298002803DA039A059904984B
:104BA0009047029800284BDB049C606910B1201DDF
:104BB00000F016FB01A800F097F8024602980A28B8
:104BC0003ED2DFE800F00505053D263705053D2608
:104BD0000398A169034601442046FFF763FF00B331
:104BE000616A20468847E069012829D100200090A9
:104BF0000398A169002342181946204601F03CFAA7
:104C000078B9502080F31188BFF34F8FBFF36F8FB7
:104C1000FEE70398A06128B1811813462046FFF7EC
:104C200041FF0DE0502080F31188BFF34F8FBFF399
:104C30006F8FFEE794F8280010B9204600F066FB5D
:104C4000002202A9A86800F021FF0028A2D107B025
:104C500030BD0000DC000020F8B505460C4600F031
:104C6000AFFC684600F040F80646009810B101F02D
:104C700069F9F8BD44B9B54206D801F063F9314687
:104C80002846FFF74FFFF8BD0C481CB14168096882
:104C900091B10024A91B2246806800F0B5FB01F009
:104CA00051F90028EFD106494FF080500860BFF35A
:104CB0004F8FBFF36F8FF8BD0124EBE7DC000020BE
:104CC00004ED00E0074948680068002805D04868FE
:104CD000C068C0684068086370474FF0FF300863E1
:104CE00070470000A000002070B5044601F032F8C3
:104CF0000546074E3069854204D200F00BF80120CA
:104D0000206001E0002020603561284670BD000071
:104D1000DC000020F8B51B4E30680068002824D065
:104D200000273068C0680568C468201D00F058FA84
:104D3000616A20468847E069012812D1A0692844A9
:104D4000A84206D960602461211D306800F080FA15
:104D500007E000232A4619462046009701F08CF907
:104D600040B1306800680028DBD13068716831607C
:104D70007060F8BD502080F31188BFF34F8FBFF3F0
:104D80006F8FFEE7DC0000200A484068B0F1FF3F6B
:104D900007D0502080F31188BFF34F8FBFF36F8F80
:104DA000FEE7502080F31188BFF34F8FBFF36F8F62
:104DB000FEE700000801002082B001A8FFF772FDA5
:104DC0000199FFF749FFFFF7DBFEF6E770B50446F0
:104DD00000F066FA94F94550002D0CDD606A50B180
:104DE00004F1240001F072F808B100F063FB681EC2
:104DF00045B2002DF2DC4FF0FF3684F8456000F03C
:104E00006FFA00F04DFA94F94450002D0CDD206942
:104E100050B104F1100001F059F808B100F04AFB5C
:104E2000681E45B2002DF2DC84F84460BDE8704095
:104E300000F056BA2DE9F0410546002600F0C0FB0F
:104E4000334F386808B9FFF73FFDF86805424ED187
:104E50009DB1083515F0070F0FD005F00700C0F120
:104E60000800054415F0070F07D0502080F3118883
:104E7000BFF34F8FBFF36F8FFEE7002D37D07868F9
:104E8000854234D823490846046801E02146044697
:104E90006068A84202D220680028F7D138688442AE
:104EA00025D0086800F10806206808606068411B8A
:104EB00010290FD9601910F0070F07D0502080F388
:104EC0001188BFF34F8FBFF36F8FFEE741606560BE
:104ED000FFF7BAFD61687868401A7860BA68904256
:104EE00000D2B860F868084360600020206001F0DC
:104EF00029F816F0070F07D0502080F31188BFF370
:104F00004F8FBFF36F8FFEE73046BDE8F0810000A2
:104F1000F000002000010020001F4FF080730360AC
:104F2000001F21F001010160001F054901601438D4
:104F30000260001F6FF0020101602038704700001E
:104F4000894D000802492422A1F12400FEF77AB914
:104F5000B70C0020F0B5002855D0002953D00278B6
:104F6000437842EA0322C2F30A030B804278847832
:104F7000D20842EA4412C2F30A024A808478C57811
:104F8000A40944EA8504057944EA8524C4F30A04A3
:104F90008C80057946796D0845EAC615C5F30A0582
:104FA000CD804679C6F301168E724679B609CE7267
:104FB0008679C77946EA07268E81067A477A46EAD5
:104FC0000726CE81867AC77A46EA07260E82067BB6
:104FD0008E74467BCE74867BC77B46EA07268E821C
:104FE000067C407CA3F580630B80A2F580624A803A
:104FF000A4F5806446EA00208C80A5F58065CD800C
:10500000A0F580600881F0BD0A20FFF7D4FAFBE725
:1050100070B50446407915460E4600B3154A04F1B2
:105020005C01022806D0012807D003280AD00428F2
:1050300008D015E0DFED100A01E0DFED100AC2ED47
:10504000000A01E0DFED0E0A0846C4ED060A94ED01
:10505000050AFEF715F8BDEEC00A10EE100AA0838F
:10506000B5F91C20B4F91C10B6F92400BDE8704055
:10507000FBF7DEBA840000200000C8C30000C8436C
:105080000000000000280CD08168B1F9021000EE89
:10509000101A0449B8EEC00A80ED050A0068C07A0B
:1050A000486070478400002070B5050037D00020AC
:1050B00068712871FEF7BAFF286040F206210220CD
:1050C000FEF774FF9FED162A9FED161A9FED160A44
:1050D000A86015F12004F1EE041AF2EE0E0A0FD0CA
:1050E00084ED001AC4ED010A84ED020A9FED0F0A57
:1050F00084ED050A84ED040AC4ED081A84ED072A3C
:10510000DFED0B0A9FED0B0A0B4A002105F15C0055
:10511000FEF76AF82846BDE87040FFF7B3BF70BDE0
:1051200000008C420000FA43CDCC4CBE00000000D1
:10513000000048430000FA45946B0008002815D091
:1051400001688A7A022A03D0C97A012902D015E0BF
:1051500000210AE01149496803290FD14179012949
:1051600007D00279032A02D0012141717047022938
:1051700004D00179042901D00221F6E7816841F2C7
:105180008832B1F90410914201DD0321EDE741F2CB
:105190008832D142EADA0421E7E7000084000020E7
:1051A0004FF4967000F056F90A48FFF77DFF094C5E
:1051B0000848FFF7C3FF0748FFF764FF064A07499F
:1051C0000448FFF725FF052000F044F960792071BD
:1051D000EEE70000F40F0020981000200C0F0020D4
:1051E0000169436882689A60836842685A604A68C5
:1051F000824201D182684A60002202610868401E32
:105200000860086870470000034B036003F1540016
:10521000086080201060704714010020044B036078
:1052200003F1540008604FF4807010607047000074
:105230006803002000F1080141604FF0FF328260F6
:10524000C160016100210160704700210161704768
:1052500010B4D1F800C0BCF1FF3F02D000F1080249
:1052600002E0026904E01A4653681C686445FAD9F2
:1052700053684B6099608A60516008610168491CFD
:10528000016010BC704742684A6093688B60936805
:105290005960916008610168491C01607047000015
:1052A000502080F31188BFF34F8FBFF36F8F0A49EF
:1052B0004868401C486001280CD10848006810F07C
:1052C000FF0F07D0502080F31188BFF34F8FBFF33B
:1052D0006F8FFEE7704700000801002004ED00E03A
:1052E00009494868002806D0401E4860002801D1BE
:1052F00080F311887047502080F31188BFF34F8FDF
:10530000BFF36F8FFEE700000801002070B5002892
:1053100027D0A0F10804134D6068E968084207D15E
:10532000502080F31188BFF34F8FBFF36F8FFEE7DC
:1053300022683AB1502080F31188BFF34F8FBFF33A
:105340006F8FFEE78843606000F03AF96068696833
:10535000084468602046FFF777FBBDE8704000F026
:10536000F1BD70BDF00000204FF0E0200021016190
:10537000816105494FF47A720968B1FBF2F1491E67
:1053800041610721016170472400002010B5FAF740
:10539000A7FF114910280ED300F1E02090F8F00388
:1053A0000A78904207D2502080F31188BFF34F8FC4
:1053B000BFF36F8FFEE709480068896800F4E0607A
:1053C000884207D9502080F31188BFF34F8FBFF375
:1053D0006F8FFEE710BD0000080100200CED00E01B
:1053E0000022084B53F832C0BCF1000F03D0521C0E
:1053F000082AF7D3704743F8321003EBC201486024
:10540000704700004011002070B504460D46164656
:10541000FFF746FF94F94400B0F1FF3F4FF0000062
:1054200001D184F8440094F94510B1F1FF3F01D156
:1054300084F84500FFF754FFA06B28B9324629468F
:1054400004F1240000F056F82046BDE87040FFF754
:10545000BDBC000010B502460020002A12D00F4843
:10546000806B38B1502080F31188BFF34F8FBFF3AA
:105470006F8FFEE700F0A4F800211046FFF7D6F882
:1054800000F060FD002807D105494FF0805008600A
:10549000BFF34F8FBFF36F8F10BD0000A00000203F
:1054A00004ED00E002498A6A026049694160704780
:1054B000A00000200149012048627047A0000020A0
:1054C00010B50C4600280BD0094A126802F11801E9
:1054D000FFF7BEFE2046BDE810400121FFF7A6B849
:1054E000502080F31188BFF34F8FBFF36F8FFEE71B
:1054F000A000002070B50D46144600280DD00B49C1
:1055000009681831FFF7BFFE0CB14FF0FF35214697
:105510002846BDE87040FFF789B8502080F3118815
:10552000BFF34F8FBFF36F8FFEE70000A000002096
:1055300030B587B000250695059504AA05A906A8EB
:10554000FFF762FE069805990191029000230095ED
:1055500017A11948049A00F0BFFB184C606308B10A
:10556000012000E00020012801D100F051FD0128B8
:105570000AD0B0F1FF3F19D1502080F31188BFF35A
:105580004F8FBFF36F8FFEE7502080F31188BFF37A
:105590004F8FBFF36F8F4FF0FF3020630120E0612A
:1055A000656107B0BDE8304000F042B807B030BDDB
:1055B00049444C450000000019490008A0000020A3
:1055C0000248816B491C816370470000A0000020E5
:1055D000154A906B002802D00120506270470020CD
:1055E00050629069B0FA80F0C0F11F000F4900EBE3
:1055F000800051F8203073B101EB800041684968A8
:10560000416000F10803994201D149684160406856
:10561000C06810607047502080F31188BFF34F8F2F
:10562000BFF36F8FFEE70000A00000208011002074
:1056300000B583B038480168384A914207D15020FC
:1056400080F31188BFF34F8FBFF36F8FFEE70068C1
:105650003349884207D1502080F31188BFF34F8F20
:10566000BFF36F8FFEE72F4908780290FF20087084
:10567000087801909DF804009DF8042000F0F000E7
:10568000904207D0502080F31188BFF34F8FBFF3B3
:105690006F8FFEE79DF80400234B00F05000187058
:1056A000072098609DF8040010F0800F0BD09868D8
:1056B000401E98609DF80400400001909DF8040091
:1056C00010F0800FF3D19868032807D0502080F3A2
:1056D0001188BFF34F8FBFF36F8FFEE74FF4407019
:1056E0009860029808701148016841F470010160E7
:1056F000016841F070410160FFF736FE00205860FC
:10570000FAF7B6FD0A48016841F040410160FAF736
:105710009BFD03B0002000BD00ED00E071C20F4111
:1057200070C20F4100E400E00801002020ED00E01D
:1057300034EF00E010B5502080F31188BFF34F8F95
:10574000BFF36F8F00F00CFB18B104494FF080508D
:105750000860002080F3118810BD000004ED00E017
:1057600038B5049D002804D05BB102B189B1C2B143
:1057700020E0502080F31188BFF34F8FBFF36F8F6D
:10578000FEE7502080F31188BFF34F8FBFF36F8F78
:10579000FEE7502080F31188BFF34F8FBFF36F8F68
:1057A000FEE739B1502080F31188BFF34F8FBFF36C
:1057B0006F8FFEE74FF0480CCDF800C01C46012368
:1057C00084F846302B460094FFF7BAF8204638BDDF
:1057D00070B504460D46002C25D0FFF761FD226C04
:1057E000E16B206801FB020060600020A06320687C
:1057F000A060E16B226C2068491E01FB0200E060A2
:105800004FF0FF3084F8440084F845009DB104F166
:105810001000FFF70FFD04F12400FFF70BFDFFF769
:105820005FFD012070BD502080F31188BFF34F8FC2
:10583000BFF36F8FFEE720690028F0D004F110005D
:1058400000F044FB0028EAD004494FF08050086083
:10585000BFF34F8FBFF36F8FE1E7000004ED00E06F
:105860002DE9FF4782B004468A461F460025002CDA
:1058700003D0BAF1000F08D011E0502080F3118856
:10588000BFF34F8FBFF36F8FFEE7206C38B150200E
:1058900080F31188BFF34F8FBFF36F8FFEE7022FA6
:1058A0000AD1E06B012807D0502080F31188BFF3A4
:1058B0004F8FBFF36F8FFEE700F03EFA48B90498B0
:1058C00038B1502080F31188BFF34F8FBFF36F8F33
:1058D000FEE700264FF08058DFF8F090FFF7E0FC7D
:1058E000A06BE16B884205D3022F03D0049808B364
:1058F00035B329E03A4651462046FEF77BFF616A00
:1059000059B104F1240000F0E1FA68B1C9F800804F
:10591000BFF34F8FBFF36F8F06E028B1C9F8008047
:10592000BFF34F8FBFF36F8FFFF7DAFC06B0012094
:10593000BDE8F087FFF7D4FC06B00020BDE8F08793
:105940006846FFF7AFFD0125FFF7CAFCFFF738FEF9
:10595000FFF7A6FC94F94400B0F1FF3F01D184F8B1
:10596000446094F94500B0F1FF3F01D184F84560EF
:10597000FFF7B6FC04A9684600F02CF940B12046B8
:10598000FFF724FA00F0DEFA06B00020BDE8F08749
:105990002046FFF7B8F890B104F110000499FFF722
:1059A0008FFD2046FFF712FA00F0CCFA002895D1BF
:1059B000C9F80080BFF34F8FBFF36F8F8EE720468B
:1059C000FFF704FA00F0BEFA88E7000004ED00E0FB
:1059D0002DE9F0470446894617461E46002C03D0A1
:1059E000B9F1000F08D011E0502080F31188BFF307
:1059F0004F8FBFF36F8FFEE7206C38B1502080F3DC
:105A00001188BFF34F8FBFF36F8FFEE7022E0AD1CD
:105A1000E06B012807D0502080F31188BFF34F8F2F
:105A2000BFF36F8FFEE7FFF7B1FC5020EFF3118853
:105A300080F31188BFF34F8FBFF36F8FA06BE16BC3
:105A4000884206D3022E04D0002088F31188BDE8D6
:105A5000F08794F94550324649462046FEF7CAFE83
:105A6000B5F1FF3F04D0681C84F845000120ECE745
:105A7000606A0028FAD004F1240000F027FA002818
:105A8000F4D0002FF2D001203860EFE72DE9F7477E
:105A900083B004468A460025002C03D0BAF1000FDB
:105AA00008D011E0502080F31188BFF34F8FBFF36F
:105AB0006F8FFEE7206C38B1502080F31188BFF360
:105AC0004F8FBFF36F8FFEE700F036F948B90598A6
:105AD00038B1502080F31188BFF34F8FBFF36F8F21
